{"abi":[{"type":"constructor","inputs":[{"name":"_roleManager","type":"address","internalType":"address"},{"name":"_feeDistributor","type":"address","internalType":"address"},{"name":"_escrowManager","type":"address","internalType":"address"},{"name":"_platformFeeBps","type":"uint256","internalType":"uint256"}],"stateMutability":"nonpayable"},{"type":"function","name":"EMERGENCY_WITHDRAWAL_DELAY","inputs":[],"outputs":[{"name":"","type":"uint256","internalType":"uint256"}],"stateMutability":"view"},{"type":"function","name":"auctionCounter","inputs":[],"outputs":[{"name":"","type":"uint256","internalType":"uint256"}],"stateMutability":"view"},{"type":"function","name":"auctions","inputs":[{"name":"","type":"uint256","internalType":"uint256"}],"outputs":[{"name":"seller","type":"address","internalType":"address"},{"name":"reservePrice","type":"uint96","internalType":"uint96"},{"name":"nftContract","type":"address","internalType":"address"},{"name":"highestBid","type":"uint96","internalType":"uint96"},{"name":"highestBidder","type":"address","internalType":"address"},{"name":"bidIncrementBps","type":"uint16","internalType":"uint16"},{"name":"tokenId","type":"uint64","internalType":"uint64"},{"name":"startTime","type":"uint32","internalType":"uint32"},{"name":"endTime","type":"uint32","internalType":"uint32"},{"name":"assetType","type":"uint8","internalType":"enum AssetTypes.AssetType"},{"name":"standard","type":"uint8","internalType":"enum AssetTypes.TokenStandard"},{"name":"active","type":"bool","internalType":"bool"},{"name":"settled","type":"bool","internalType":"bool"},{"name":"quantity","type":"uint16","internalType":"uint16"},{"name":"assetHash","type":"bytes32","internalType":"bytes32"},{"name":"metadataURI","type":"string","internalType":"string"}],"stateMutability":"view"},{"type":"function","name":"bidderAuctions","inputs":[{"name":"","type":"address","internalType":"address"},{"name":"","type":"uint256","internalType":"uint256"}],"outputs":[{"name":"","type":"uint256","internalType":"uint256"}],"stateMutability":"view"},{"type":"function","name":"calculatePaymentDistribution","inputs":[{"name":"auctionId","type":"uint256","internalType":"uint256"}],"outputs":[{"name":"platformFee","type":"uint256","internalType":"uint256"},{"name":"royaltyFee","type":"uint256","internalType":"uint256"},{"name":"sellerNet","type":"uint256","internalType":"uint256"},{"name":"royaltyReceiver","type":"address","internalType":"address"}],"stateMutability":"view"},{"type":"function","name":"cancelAuction","inputs":[{"name":"auctionId","type":"uint256","internalType":"uint256"}],"outputs":[],"stateMutability":"nonpayable"},{"type":"function","name":"createAuction","inputs":[{"name":"assetType","type":"uint8","internalType":"enum AssetTypes.AssetType"},{"name":"nftContract","type":"address","internalType":"address"},{"name":"tokenId","type":"uint256","internalType":"uint256"},{"name":"quantity","type":"uint256","internalType":"uint256"},{"name":"reservePrice","type":"uint256","internalType":"uint256"},{"name":"duration","type":"uint256","internalType":"uint256"},{"name":"bidIncrementBps","type":"uint256","internalType":"uint256"},{"name":"standard","type":"uint8","internalType":"enum AssetTypes.TokenStandard"},{"name":"assetHash","type":"bytes32","internalType":"bytes32"},{"name":"metadataURI","type":"string","internalType":"string"}],"outputs":[{"name":"auctionId","type":"uint256","internalType":"uint256"}],"stateMutability":"nonpayable"},{"type":"function","name":"emergencyWithdraw","inputs":[{"name":"auctionId","type":"uint256","internalType":"uint256"}],"outputs":[],"stateMutability":"nonpayable"},{"type":"function","name":"endAuction","inputs":[{"name":"auctionId","type":"uint256","internalType":"uint256"}],"outputs":[],"stateMutability":"nonpayable"},{"type":"function","name":"escrowManager","inputs":[],"outputs":[{"name":"","type":"address","internalType":"contract IEscrowManager"}],"stateMutability":"view"},{"type":"function","name":"feeDistributor","inputs":[],"outputs":[{"name":"","type":"address","internalType":"contract FeeDistributor"}],"stateMutability":"view"},{"type":"function","name":"getAuction","inputs":[{"name":"auctionId","type":"uint256","internalType":"uint256"}],"outputs":[{"name":"","type":"tuple","internalType":"struct IAuctionManager.Auction","components":[{"name":"seller","type":"address","internalType":"address"},{"name":"reservePrice","type":"uint96","internalType":"uint96"},{"name":"nftContract","type":"address","internalType":"address"},{"name":"highestBid","type":"uint96","internalType":"uint96"},{"name":"highestBidder","type":"address","internalType":"address"},{"name":"bidIncrementBps","type":"uint16","internalType":"uint16"},{"name":"tokenId","type":"uint64","internalType":"uint64"},{"name":"startTime","type":"uint32","internalType":"uint32"},{"name":"endTime","type":"uint32","internalType":"uint32"},{"name":"assetType","type":"uint8","internalType":"enum AssetTypes.AssetType"},{"name":"standard","type":"uint8","internalType":"enum AssetTypes.TokenStandard"},{"name":"active","type":"bool","internalType":"bool"},{"name":"settled","type":"bool","internalType":"bool"},{"name":"quantity","type":"uint16","internalType":"uint16"},{"name":"assetHash","type":"bytes32","internalType":"bytes32"},{"name":"metadataURI","type":"string","internalType":"string"}]}],"stateMutability":"view"},{"type":"function","name":"getBidderAuctions","inputs":[{"name":"bidder","type":"address","internalType":"address"}],"outputs":[{"name":"","type":"uint256[]","internalType":"uint256[]"}],"stateMutability":"view"},{"type":"function","name":"getMinimumBid","inputs":[{"name":"auctionId","type":"uint256","internalType":"uint256"}],"outputs":[{"name":"","type":"uint256","internalType":"uint256"}],"stateMutability":"view"},{"type":"function","name":"getSellerAuctions","inputs":[{"name":"seller","type":"address","internalType":"address"}],"outputs":[{"name":"","type":"uint256[]","internalType":"uint256[]"}],"stateMutability":"view"},{"type":"function","name":"hasAuctionEnded","inputs":[{"name":"auctionId","type":"uint256","internalType":"uint256"}],"outputs":[{"name":"","type":"bool","internalType":"bool"}],"stateMutability":"view"},{"type":"function","name":"isAuctionActive","inputs":[{"name":"auctionId","type":"uint256","internalType":"uint256"}],"outputs":[{"name":"","type":"bool","internalType":"bool"}],"stateMutability":"view"},{"type":"function","name":"onERC1155BatchReceived","inputs":[{"name":"","type":"address","internalType":"address"},{"name":"","type":"address","internalType":"address"},{"name":"","type":"uint256[]","internalType":"uint256[]"},{"name":"","type":"uint256[]","internalType":"uint256[]"},{"name":"","type":"bytes","internalType":"bytes"}],"outputs":[{"name":"","type":"bytes4","internalType":"bytes4"}],"stateMutability":"pure"},{"type":"function","name":"onERC1155Received","inputs":[{"name":"","type":"address","internalType":"address"},{"name":"","type":"address","internalType":"address"},{"name":"","type":"uint256","internalType":"uint256"},{"name":"","type":"uint256","internalType":"uint256"},{"name":"","type":"bytes","internalType":"bytes"}],"outputs":[{"name":"","type":"bytes4","internalType":"bytes4"}],"stateMutability":"pure"},{"type":"function","name":"onERC721Received","inputs":[{"name":"","type":"address","internalType":"address"},{"name":"","type":"address","internalType":"address"},{"name":"","type":"uint256","internalType":"uint256"},{"name":"","type":"bytes","internalType":"bytes"}],"outputs":[{"name":"","type":"bytes4","internalType":"bytes4"}],"stateMutability":"pure"},{"type":"function","name":"pause","inputs":[],"outputs":[],"stateMutability":"nonpayable"},{"type":"function","name":"paused","inputs":[],"outputs":[{"name":"","type":"bool","internalType":"bool"}],"stateMutability":"view"},{"type":"function","name":"pendingWithdrawals","inputs":[{"name":"","type":"address","internalType":"address"}],"outputs":[{"name":"","type":"uint256","internalType":"uint256"}],"stateMutability":"view"},{"type":"function","name":"placeBid","inputs":[{"name":"auctionId","type":"uint256","internalType":"uint256"}],"outputs":[],"stateMutability":"payable"},{"type":"function","name":"platformFeeBps","inputs":[],"outputs":[{"name":"","type":"uint256","internalType":"uint256"}],"stateMutability":"view"},{"type":"function","name":"roleManager","inputs":[],"outputs":[{"name":"","type":"address","internalType":"contract RoleManager"}],"stateMutability":"view"},{"type":"function","name":"sellerAuctions","inputs":[{"name":"","type":"address","internalType":"address"},{"name":"","type":"uint256","internalType":"uint256"}],"outputs":[{"name":"","type":"uint256","internalType":"uint256"}],"stateMutability":"view"},{"type":"function","name":"supportsInterface","inputs":[{"name":"interfaceId","type":"bytes4","internalType":"bytes4"}],"outputs":[{"name":"","type":"bool","internalType":"bool"}],"stateMutability":"pure"},{"type":"function","name":"unpause","inputs":[],"outputs":[],"stateMutability":"nonpayable"},{"type":"function","name":"updatePlatformFee","inputs":[{"name":"newFeeBps","type":"uint256","internalType":"uint256"}],"outputs":[],"stateMutability":"nonpayable"},{"type":"function","name":"verifyAssetHash","inputs":[{"name":"auctionId","type":"uint256","internalType":"uint256"},{"name":"assetDetails","type":"string","internalType":"string"}],"outputs":[{"name":"isValid","type":"bool","internalType":"bool"},{"name":"expectedHash","type":"bytes32","internalType":"bytes32"},{"name":"actualHash","type":"bytes32","internalType":"bytes32"}],"stateMutability":"view"},{"type":"function","name":"withdraw","inputs":[],"outputs":[],"stateMutability":"nonpayable"},{"type":"event","name":"AuctionCancelled","inputs":[{"name":"auctionId","type":"uint256","indexed":true,"internalType":"uint256"},{"name":"seller","type":"address","indexed":true,"internalType":"address"},{"name":"reason","type":"string","indexed":false,"internalType":"string"}],"anonymous":false},{"type":"event","name":"AuctionCreated","inputs":[{"name":"auctionId","type":"uint256","indexed":true,"internalType":"uint256"},{"name":"seller","type":"address","indexed":true,"internalType":"address"},{"name":"assetType","type":"uint8","indexed":false,"internalType":"enum AssetTypes.AssetType"},{"name":"nftContract","type":"address","indexed":false,"internalType":"address"},{"name":"tokenId","type":"uint256","indexed":false,"internalType":"uint256"},{"name":"reservePrice","type":"uint256","indexed":false,"internalType":"uint256"},{"name":"startTime","type":"uint256","indexed":false,"internalType":"uint256"},{"name":"endTime","type":"uint256","indexed":false,"internalType":"uint256"},{"name":"bidIncrementBps","type":"uint256","indexed":false,"internalType":"uint256"}],"anonymous":false},{"type":"event","name":"AuctionEnded","inputs":[{"name":"auctionId","type":"uint256","indexed":true,"internalType":"uint256"},{"name":"winner","type":"address","indexed":true,"internalType":"address"},{"name":"seller","type":"address","indexed":true,"internalType":"address"},{"name":"finalBid","type":"uint256","indexed":false,"internalType":"uint256"},{"name":"platformFee","type":"uint256","indexed":false,"internalType":"uint256"},{"name":"royaltyFee","type":"uint256","indexed":false,"internalType":"uint256"},{"name":"sellerNet","type":"uint256","indexed":false,"internalType":"uint256"},{"name":"royaltyReceiver","type":"address","indexed":false,"internalType":"address"}],"anonymous":false},{"type":"event","name":"AuctionFailedReserveNotMet","inputs":[{"name":"auctionId","type":"uint256","indexed":true,"internalType":"uint256"},{"name":"highestBid","type":"uint256","indexed":false,"internalType":"uint256"},{"name":"reservePrice","type":"uint256","indexed":false,"internalType":"uint256"}],"anonymous":false},{"type":"event","name":"BidPlaced","inputs":[{"name":"auctionId","type":"uint256","indexed":true,"internalType":"uint256"},{"name":"bidder","type":"address","indexed":true,"internalType":"address"},{"name":"bidAmount","type":"uint256","indexed":false,"internalType":"uint256"},{"name":"newEndTime","type":"uint256","indexed":false,"internalType":"uint256"}],"anonymous":false},{"type":"event","name":"BidRefundQueued","inputs":[{"name":"auctionId","type":"uint256","indexed":true,"internalType":"uint256"},{"name":"bidder","type":"address","indexed":true,"internalType":"address"},{"name":"amount","type":"uint256","indexed":false,"internalType":"uint256"}],"anonymous":false},{"type":"event","name":"BidRefunded","inputs":[{"name":"auctionId","type":"uint256","indexed":true,"internalType":"uint256"},{"name":"bidder","type":"address","indexed":true,"internalType":"address"},{"name":"amount","type":"uint256","indexed":false,"internalType":"uint256"}],"anonymous":false},{"type":"event","name":"NFTEscrowed","inputs":[{"name":"auctionId","type":"uint256","indexed":true,"internalType":"uint256"},{"name":"nftContract","type":"address","indexed":true,"internalType":"address"},{"name":"tokenId","type":"uint256","indexed":false,"internalType":"uint256"},{"name":"quantity","type":"uint256","indexed":false,"internalType":"uint256"},{"name":"standard","type":"uint8","indexed":false,"internalType":"enum AssetTypes.TokenStandard"}],"anonymous":false},{"type":"event","name":"Paused","inputs":[{"name":"account","type":"address","indexed":false,"internalType":"address"}],"anonymous":false},{"type":"event","name":"Unpaused","inputs":[{"name":"account","type":"address","indexed":false,"internalType":"address"}],"anonymous":false},{"type":"event","name":"Withdrawn","inputs":[{"name":"user","type":"address","indexed":true,"internalType":"address"},{"name":"amount","type":"uint256","indexed":false,"internalType":"uint256"}],"anonymous":false},{"type":"error","name":"AssetHashRequiredForOffChain","inputs":[]},{"type":"error","name":"AuctionAlreadySettled","inputs":[{"name":"auctionId","type":"uint256","internalType":"uint256"}]},{"type":"error","name":"AuctionEnded","inputs":[{"name":"auctionId","type":"uint256","internalType":"uint256"},{"name":"endTime","type":"uint256","internalType":"uint256"}]},{"type":"error","name":"AuctionHasNotEnded","inputs":[{"name":"auctionId","type":"uint256","internalType":"uint256"},{"name":"endTime","type":"uint256","internalType":"uint256"}]},{"type":"error","name":"AuctionNotActive","inputs":[{"name":"auctionId","type":"uint256","internalType":"uint256"}]},{"type":"error","name":"AuctionNotEnded","inputs":[{"name":"auctionId","type":"uint256","internalType":"uint256"},{"name":"endTime","type":"uint256","internalType":"uint256"}]},{"type":"error","name":"AuctionNotStarted","inputs":[{"name":"auctionId","type":"uint256","internalType":"uint256"},{"name":"startTime","type":"uint256","internalType":"uint256"}]},{"type":"error","name":"BidBelowReserve","inputs":[{"name":"bidAmount","type":"uint256","internalType":"uint256"},{"name":"reservePrice","type":"uint256","internalType":"uint256"}]},{"type":"error","name":"BidTooLow","inputs":[{"name":"bidAmount","type":"uint256","internalType":"uint256"},{"name":"minimumBid","type":"uint256","internalType":"uint256"}]},{"type":"error","name":"BidderCannotBeSeller","inputs":[{"name":"bidder","type":"address","internalType":"address"}]},{"type":"error","name":"CannotBidOwnAuction","inputs":[{"name":"bidder","type":"address","internalType":"address"}]},{"type":"error","name":"CannotCancelWithBids","inputs":[{"name":"auctionId","type":"uint256","internalType":"uint256"}]},{"type":"error","name":"ERC721QuantityMustBe1","inputs":[]},{"type":"error","name":"EmergencyWithdrawalAlreadySettled","inputs":[{"name":"auctionId","type":"uint256","internalType":"uint256"}]},{"type":"error","name":"EmergencyWithdrawalNotAuthorized","inputs":[{"name":"caller","type":"address","internalType":"address"},{"name":"seller","type":"address","internalType":"address"},{"name":"highestBidder","type":"address","internalType":"address"}]},{"type":"error","name":"EmergencyWithdrawalTooEarly","inputs":[{"name":"auctionId","type":"uint256","internalType":"uint256"},{"name":"currentTime","type":"uint256","internalType":"uint256"},{"name":"availableAfter","type":"uint256","internalType":"uint256"}]},{"type":"error","name":"EnforcedPause","inputs":[]},{"type":"error","name":"ExpectedPause","inputs":[]},{"type":"error","name":"InsufficientBalance","inputs":[]},{"type":"error","name":"InsufficientBidAmount","inputs":[]},{"type":"error","name":"InvalidAssetType","inputs":[{"name":"assetType","type":"uint8","internalType":"uint8"}]},{"type":"error","name":"InvalidAuctionDuration","inputs":[{"name":"duration","type":"uint256","internalType":"uint256"}]},{"type":"error","name":"InvalidAuctionId","inputs":[{"name":"auctionId","type":"uint256","internalType":"uint256"}]},{"type":"error","name":"InvalidBasisPoints","inputs":[{"name":"bps","type":"uint256","internalType":"uint256"}]},{"type":"error","name":"InvalidBidAmount","inputs":[{"name":"bidAmount","type":"uint256","internalType":"uint256"},{"name":"minimumBid","type":"uint256","internalType":"uint256"}]},{"type":"error","name":"InvalidBidIncrement","inputs":[{"name":"incrementBps","type":"uint256","internalType":"uint256"}]},{"type":"error","name":"InvalidEscrowManager","inputs":[]},{"type":"error","name":"InvalidFeeDistributor","inputs":[]},{"type":"error","name":"InvalidNFTContract","inputs":[{"name":"nftContract","type":"address","internalType":"address"}]},{"type":"error","name":"InvalidReservePrice","inputs":[{"name":"reservePrice","type":"uint256","internalType":"uint256"}]},{"type":"error","name":"InvalidRoleManager","inputs":[]},{"type":"error","name":"InvalidSeller","inputs":[]},{"type":"error","name":"MetadataURIRequiredForOffChain","inputs":[]},{"type":"error","name":"NFTContractShouldBeZeroForOffChain","inputs":[]},{"type":"error","name":"NFTNotApproved","inputs":[{"name":"nftContract","type":"address","internalType":"address"},{"name":"tokenId","type":"uint256","internalType":"uint256"}]},{"type":"error","name":"NFTTransferFailed","inputs":[{"name":"nftContract","type":"address","internalType":"address"},{"name":"from","type":"address","internalType":"address"},{"name":"to","type":"address","internalType":"address"},{"name":"tokenId","type":"uint256","internalType":"uint256"}]},{"type":"error","name":"NoPendingWithdrawal","inputs":[]},{"type":"error","name":"NotAdmin","inputs":[{"name":"caller","type":"address","internalType":"address"}]},{"type":"error","name":"NotFeeManager","inputs":[{"name":"caller","type":"address","internalType":"address"}]},{"type":"error","name":"NotNFTOwner","inputs":[{"name":"caller","type":"address","internalType":"address"},{"name":"owner","type":"address","internalType":"address"}]},{"type":"error","name":"NotPauser","inputs":[{"name":"caller","type":"address","internalType":"address"}]},{"type":"error","name":"PercentageTooHigh","inputs":[{"name":"provided","type":"uint256","internalType":"uint256"},{"name":"maximum","type":"uint256","internalType":"uint256"}]},{"type":"error","name":"QuantityMustBeGreaterThan0","inputs":[]},{"type":"error","name":"QuantityShouldBeZeroForOffChain","inputs":[]},{"type":"error","name":"ReentrancyGuardReentrantCall","inputs":[]},{"type":"error","name":"ReservePriceNotMet","inputs":[{"name":"highestBid","type":"uint256","internalType":"uint256"},{"name":"reservePrice","type":"uint256","internalType":"uint256"}]},{"type":"error","name":"TokenIDShouldBeZeroForOffChain","inputs":[]},{"type":"error","name":"TransferFailed","inputs":[{"name":"recipient","type":"address","internalType":"address"},{"name":"amount","type":"uint256","internalType":"uint256"}]},{"type":"error","name":"TransferFailed","inputs":[{"name":"recipient","type":"address","internalType":"address"},{"name":"amount","type":"uint256","internalType":"uint256"}]},{"type":"error","name":"UnauthorizedSeller","inputs":[{"name":"caller","type":"address","internalType":"address"},{"name":"seller","type":"address","internalType":"address"}]},{"type":"error","name":"WithdrawalFailed","inputs":[{"name":"recipient","type":"address","internalType":"address"},{"name":"amount","type":"uint256","internalType":"uint256"}]}],"bytecode":{"object":"0x60e03461015d57601f61306d38819003918201601f19168301916001600160401b038311848410176101615780849260809460405283398101031261015d5761004781610175565b9061005460208201610175565b606061006260408401610175565b92015160015f55926001600160a01b0316801561014e576080526001600160a01b031690811561013f576001600160a01b031690811561013057612710831161011d576103e883116101045760a05260c052600355604051612ee3908161018a8239608051818181610385015281816109f0015281816111de0152611f75015260a051818181611eb801526125fb015260c05181818161026701526127450152f35b8263edff465960e01b5f526004526103e860245260445ffd5b82630cbf8cb160e11b5f5260045260245ffd5b63bbd7b26560e01b5f5260045ffd5b635ebbf94b60e01b5f5260045ffd5b6309a53a6560e31b5f5260045ffd5b5f80fd5b634e487b7160e01b5f52604160045260245ffd5b51906001600160a01b038216820361015d5756fe6080806040526004361015610012575f80fd5b5f3560e01c908162435da514611f635750806301ffc9a714611f0d5780630600d4eb14611ee75780630d43e8ad14611ea3578063150b7a0214611e4d5780631cb8dd1c14611e0457806322dcd13e14611de75780632ebd2d8d14611dc95780633515b4a21461146e57806335339945146113c15780633ccfd60b146113135780633f4ba83a146111bf5780635036b0bc146111675780635312ea8e14610f15578063571a26a014610dec5780635c975abb14610dca57806362910b5914610d5857806369ce5d8714610cda57806378bd793514610b175780638456cb59146109d157806396b5a755146108735780639979ef451461057c5780639abde1d2146104e5578063a7e76644146104c8578063aa0b598814610360578063b9a2de3a1461032e578063bc197c8114610296578063c12255c414610252578063c2f1cac014610235578063e71f7b151461020d578063f23a6e61146101b75763f3f437031461017b575f80fd5b346101b35760203660031901126101b3576001600160a01b0361019c611fa4565b165f526008602052602060405f2054604051908152f35b5f80fd5b346101b35760a03660031901126101b3576101d0611fa4565b506101d9611fba565b506084356001600160401b0381116101b3576101f9903690600401611fd0565b505060405163f23a6e6160e01b8152602090f35b346101b35760203660031901126101b357602061022b6004356129ff565b6040519015158152f35b346101b3575f3660031901126101b357602060405162093a808152f35b346101b3575f3660031901126101b3576040517f00000000000000000000000000000000000000000000000000000000000000006001600160a01b03168152602090f35b346101b35760a03660031901126101b3576102af611fa4565b506102b8611fba565b506044356001600160401b0381116101b3576102d89036906004016121b2565b50506064356001600160401b0381116101b3576102f99036906004016121b2565b50506084356001600160401b0381116101b35761031a903690600401611fd0565b505060405163bc197c8160e01b8152602090f35b346101b35760203660031901126101b357610347612a93565b61034f612aae565b61035a60043561245c565b60015f55005b346101b35760203660031901126101b3576040516305db2f4160e01b815260048035917f00000000000000000000000000000000000000000000000000000000000000006001600160a01b031691602090829081855afa908115610489575f91610494575b50604051632474521560e21b815260048101919091523360248201529060209082908180604481015b03915afa908115610489575f9161045a575b5015610447576127108111610435576103e8811161041d57600355005b63edff465960e01b5f526004526103e860245260445ffd5b630cbf8cb160e11b5f5260045260245ffd5b632518087360e11b5f523360045260245ffd5b61047c915060203d602011610482575b610474818361207a565b810190612393565b82610400565b503d61046a565b6040513d5f823e3d90fd5b90506020813d6020116104c0575b816104af6020938361207a565b810103126101b357516103ee6103c5565b3d91506104a2565b346101b3575f3660031901126101b3576020600254604051908152f35b346101b35760403660031901126101b3576024356004356001600160401b0382116101b35761051a6060923690600401611fd0565b9161052481612a66565b5f5260046020526101c061053a60405f206121fa565b015191610564602060405183819483830196873781015f838201520301601f19810183528261207a565b51902060405191818114835260208301526040820152f35b60203660031901126101b357600435610593612a93565b61059b612aae565b805f52600460205260405f20906105b181612a66565b600382019182549060ff8260501c16156108605780548060a01c80151580610857575b610841575060018201926002845460a01c93019182549163ffffffff8082169160201c169160018060a01b0316331461082e57804210610818575080421015610802575061062961ffff8260a01c1684612df9565b8034106107ec575083546001600160a01b03193460a01b166001600160a01b03918216179094559092169183919080546001600160a01b03191633179055845460201c63ffffffff169461067d4287612dc3565b9586036107c7575b50821515806107be575b61072a575b505050335f52600760205260405f20815f5260205260ff60405f205416156106ef575b6040519134835260208301527f51db8e23b3f4479b162fd48823b8402895442b8f6cfd94f66239391881ec7b6f60403393a360015f55005b335f5260066020526107048160405f206123e7565b335f52600760205260405f20815f5260205260405f20600160ff198254161790556106b7565b5f8080808487612710f161073c61242d565b50156107765760207fa59312996dc68b7f0224b341fed75d5afeb3bb20624107d37942d14f5942815691604051908152a35b828181610694565b60207f6ad40295cd9dd8af0a40b8e59c60ea2715450d99215e3ba1d20e9dfd92a675fd91845f526008825260405f206107b08282546123bf565b9055604051908152a361076e565b5080151561068f565b805467ffffffff000000001916602087901b67ffffffff000000001617905585610685565b63763f6abf60e11b5f523460045260245260445ffd5b63394dab1560e21b5f525f60045260245260445ffd5b630820237960e21b5f525f60045260245260445ffd5b63d53eb2cd60e01b5f523360045260245ffd5b632acb29e960e21b5f523460045260245260445ffd5b508034106105d4565b8263aff5aad960e01b5f5260045260245ffd5b346101b35760203660031901126101b35760043561088f612aae565b805f52600460205260405f206108a482612a66565b80546001600160a01b0316338190036109bb57600382019081549060ff8260501c16156109a8576001840154918260a01c6109955761ffff60501b1916600160581b17928390556108fb604084901c60ff16612acc565b610958575b846040519060208252601360208301527221b0b731b2b63632b210313c9039b2b63632b960691b60408301527fcdb034d750ed0c5924ffbc3ee3c5cbca328261d8301d42e9c176788ddca9ac4760603393a360015f55005b6001600160401b03600261098c95015460b01c169061ffff60ff8560481c169460601c1692309060018060a01b0316612aea565b81808080610900565b8563286452bd60e21b5f5260045260245ffd5b8463aff5aad960e01b5f5260045260245ffd5b637afa44f560e01b5f523360045260245260445ffd5b346101b3575f3660031901126101b35760405163e63ab1e960e01b81527f00000000000000000000000000000000000000000000000000000000000000006001600160a01b031690602081600481855afa908115610489575f91610ae3575b50604051632474521560e21b815260048101919091523360248201529060209082908180604481015b03915afa908115610489575f91610ac4575b5015610ab157610a79612a93565b600160ff19815416176001557f62e78cea01bee320cd4e420270b5ea74000d11b0c9f74754ebdbfc544b05a2586020604051338152a1005b6310351a3760e11b5f523360045260245ffd5b610add915060203d60201161048257610474818361207a565b81610a6b565b90506020813d602011610b0f575b81610afe6020938361207a565b810103126101b35751610a59610a30565b3d9150610af1565b346101b35760203660031901126101b35760043560606101e0604051610b3c8161205e565b5f81525f60208201525f60408201525f838201525f60808201525f60a08201525f60c08201525f60e08201525f6101008201525f6101208201525f6101408201525f6101608201525f6101808201525f6101a08201525f6101c08201520152610ba481612a66565b5f5260046020526101e0610bba60405f206121fa565b610cd66040519283926020845260018060a01b0381511660208501526001600160601b03602082015116604085015260018060a01b0360408201511660608501526001600160601b03606082015116608085015260018060a01b0360808201511660a085015261ffff60a08201511660c08501526001600160401b0360c08201511660e085015263ffffffff60e08201511661010085015263ffffffff61010082015116610120850152610c7861012082015161014086019061213b565b610c8c610140820151610160860190612148565b610160810151151561018085015261018081015115156101a085015261ffff6101a0820151166101c08501526101c081015182850152015161020080840152610220830190612155565b0390f35b346101b35760203660031901126101b3576001600160a01b03610cfb611fa4565b165f52600560205260405f206040519081602082549182815201915f5260205f20905f5b818110610d4257610cd685610d368187038261207a565b60405191829182612179565b8254845260209093019260019283019201610d1f565b346101b35760203660031901126101b3576001600160a01b03610d79611fa4565b165f52600660205260405f206040519081602082549182815201915f5260205f20905f5b818110610db457610cd685610d368187038261207a565b8254845260209093019260019283019201610d9d565b346101b3575f3660031901126101b357602060ff600154166040519015158152f35b346101b35760203660031901126101b3576004355f52600460205260405f208054610cd660018301549260028101549061ffff60038201546001600160401b03610e3d60056004860154950161209b565b9460405198899860018060a01b0381168a5260a01c60208a015260018060a01b03811660408a015260a01c606089015260018060a01b0381166080890152838160a01c1660a089015260b01c1660c087015263ffffffff811660e087015263ffffffff8160201c16610100870152610ebf610120870160ff8360401c1661213b565b610ed3610140870160ff8360481c16612148565b60ff8160501c16151561016087015260ff8160581c16151561018087015260601c166101a08501526101c08401526102006101e0840152610200830190612155565b346101b35760203660031901126101b357600435610f31612aae565b805f52600460205260405f20610f4682612a66565b60038101805463ffffffff8160201c1662093a80810180911161115357804210611139575060ff8160581c166111265782546001600160a01b0316338114158061110f575b6110e3575060ff60581b1916600160581b1781556002820180549091906001600160a01b0316801515806110d3575b611080575b5054610fd060ff8260401c16612acc565b611037575b505060018060a01b03905416907fcdb034d750ed0c5924ffbc3ee3c5cbca328261d8301d42e9c176788ddca9ac476060604051602081526014602082015273115b595c99d95b98de481dda5d1a191c985dd85b60621b6040820152a360015f55005b60018301548354925461107993604884901c60ff169360601c61ffff169260b09290921c6001600160401b0316916001600160a01b0391821691309116612aea565b8280610fd5565b6110936001850191825460a01c90612d82565b847fa59312996dc68b7f0224b341fed75d5afeb3bb20624107d37942d14f59428156602060018060a01b03865416935460a01c604051908152a384610fbf565b50600184015460a01c1515610fba565b6002840154631299db1160e31b5f908152336004526024929092526001600160a01b0316604452606490fd5b5060028401546001600160a01b0316331415610f8b565b8363636ca82360e11b5f5260045260245ffd5b84633b95b81b60e01b5f526004524260245260445260645ffd5b634e487b7160e01b5f52601160045260245ffd5b346101b35760403660031901126101b357611180611fa4565b6001600160a01b03165f908152600560205260409020805460243591908210156101b3576020916111b091611ffd565b90549060031b1c604051908152f35b346101b3575f3660031901126101b357604051631d6c8e3f60e21b81527f00000000000000000000000000000000000000000000000000000000000000006001600160a01b031690602081600481855afa908115610489575f916112df575b50604051632474521560e21b815260048101919091523360248201529060209082908180604481015b03915afa908115610489575f916112c0575b50156112ad5760015460ff81161561129e5760ff19166001557f5db9ee0a495bf2e6ff9c91a7834c1ba4fdd244a5e8aa4e537bd38aeae4b073aa6020604051338152a1005b638dfc202b60e01b5f5260045ffd5b630bd4212160e11b5f523360045260245ffd5b6112d9915060203d60201161048257610474818361207a565b81611259565b90506020813d60201161130b575b816112fa6020938361207a565b810103126101b3575161124761121e565b3d91506112ed565b346101b3575f3660031901126101b35761132b612aae565b335f52600860205260405f205480156113b257335f5260086020525f60408120555f80808084335af161135c61242d565b5015611394576040519081527f7084f5476618d8e60b11ef0d7d3f06914655adb8793e28ff7f018d4c76d505d560203392a260015f55005b335f5260086020526392873d1360e01b5f523360045260245260445ffd5b639121b84f60e01b5f5260045ffd5b346101b35760203660031901126101b3576004356113de81612a66565b5f52600460205260806113f360405f206121fa565b6001600160601b03606082015116809161144b61144661143c61141860035486612cac565b9586946001600160401b0360c060018060a01b036040840151169201511690612cd8565b9384929195612420565b612420565b604080519485526020850192909252908301526001600160a01b03166060820152f35b346101b3576101403660031901126101b357600d60043510156101b357611493611fba565b6084359060a43590600260e43510156101b3576101043592610124356001600160401b0381116101b3576114cb903690600401611fd0565b91906114d5612a93565b6114dd612aae565b3315611dba5769d3c21bcecceda10000008211611da757610e1085101580611d9a575b15611d87576101f460c435101580611d79575b15611d645760ff60043516600c8111611d525750611532600435612acc565b15611ce0576001600160a01b0384168015611cce5760e435611be157600160643503611bd2576040516331a9108f60e11b81526044356004820152602081602481855afa908115610489575f91611b98575b506001600160a01b0316338103611b82575060405163020604bf60e21b81526044356004820152602081602481855afa908115610489575f91611b48575b506001600160a01b031630148015611af2575b15611ada57505b600254945f198614611153576115f99060018701600255426123bf565b92604051966116078861205e565b3388526001600160601b03841660208901526001600160a01b03861660408901525f60608901819052608089015261ffff60c4351660a08901526001600160401b036044351660c089015263ffffffff42811660e08a015285166101008901526116776004356101208a016121e2565b61168760e4356101408a016121ee565b60016101608901525f61018089015261ffff606435166101a08901526101c08801526116b2816123cc565b916116c0604051938461207a565b81835236828201116101b357815f9260209283860137830101526101e0860152600184015f90815260046020908152604090912086519187015160a01b6001600160a01b0319166001600160a01b0392909216919091178155946040810151606082015160a01b6001600160a01b0319166001600160a01b0391909116176001870155608081015160028701805460a08085015160c086015167ffffffffffffffff60b01b60b09190911b1661ffff60a01b9190921b166001600160a01b039094166001600160f01b0319909216919091179290921791909117905560e081015160038701805461010084015167ffffffff0000000060209190911b1663ffffffff90931667ffffffffffffffff19909116179190911781559061012081015191600d831015611ac657805492610140830151936002851015611ac6576101608401516101808501516101a08601516dffffffffffff00000000000000001990931660409490941b68ff0000000000000000169390931760489690961b69ff000000000000000000169590951794151560501b60ff60501b169490941790151560581b60ff60581b161760609390931b61ffff60601b16929092179091556101c081015160048701556101e0015180519095906001600160401b038111611ab2576118ae6005830154612026565b96601f8811611a6a575b602097508790601f8311600114611a0257600592915f91836119f7575b50508160011b915f199060031b1c1916179101555b335f52600585526119016001850160405f206123e7565b61190c600435612acc565b61198a575b604051926119218460043561213b565b6001600160a01b0316838601526044356040840152606083015242608083015260a082015260c43560c0820152339060018301907fc9b3950b55fd840ea23cef8e9be8a86d0721db49db13002ea76f6a7c781dd6959060e090a360015f55600160405191018152f35b61199e60e435606435604435303388612aea565b6040516044358152606435868201526119bc6040820160e435612148565b6001600160a01b0384169060018601907f602eef92a144766209f5494a65af7b4b9fa2469021a4bdac3d411f80cb7940af90606090a3611911565b0151905089806118d5565b90601f19831691600585015f52815f20925f5b818110611a5357509160019391856005969410611a3b575b505050811b019101556118ea565b01515f1960f88460031b161c19169055898080611a2d565b92938b600181928786015181550195019301611a15565b600583015f5260205f20601f830160051c81019860208410611aa8575b601f0160051c01975b888110611a9d57506118b8565b5f8155600101611a90565b9098508890611a87565b634e487b7160e01b5f52604160045260245ffd5b634e487b7160e01b5f52602160045260245ffd5b63be7b5be560e01b5f5260045260443560245260445ffd5b5060405163e985e9c560e01b8152336004820152306024820152602081604481855afa908115610489575f91611b29575b506115d5565b611b42915060203d60201161048257610474818361207a565b88611b23565b90506020813d602011611b7a575b81611b636020938361207a565b810103126101b357611b74906123ab565b886115c2565b3d9150611b56565b6374c5e32560e01b5f523360045260245260445ffd5b90506020813d602011611bca575b81611bb36020938361207a565b810103126101b357611bc4906123ab565b88611584565b3d9150611ba6565b63cf32735960e01b5f5260045ffd5b60643515611cbf57604051627eeac760e11b81523360048201526044356024820152602081604481855afa908115610489575f91611c8d575b5060643511611c7e5760405163e985e9c560e01b8152336004820152306024820152602081604481855afa908115610489575f91611c5f575b5015611ada57506115dc565b611c78915060203d60201161048257610474818361207a565b88611c53565b631e9acf1760e31b5f5260045ffd5b90506020813d602011611cb7575b81611ca86020938361207a565b810103126101b3575188611c1a565b3d9150611c9b565b63553df85d60e11b5f5260045ffd5b63071463f960e01b5f5260045260245ffd5b6001600160a01b038416611d4357604435611d3457606435611d25578515611d1657826115dc5763d025417b60e01b5f5260045ffd5b6329762e6560e01b5f5260045ffd5b631b5d3e2160e11b5f5260045ffd5b632c836ee360e11b5f5260045ffd5b6309409f0560e41b5f5260045ffd5b6308a8fee960e31b5f5260045260245ffd5b630351b46760e61b5f5260c43560045260245ffd5b5061138860c4351115611513565b84634f73009b60e11b5f5260045260245ffd5b5062278d00851115611500565b5063026b22b560e51b5f5260045260245ffd5b63bab7ca3560e01b5f5260045ffd5b346101b35760203660031901126101b357602061022b600435612352565b346101b3575f3660031901126101b3576020600354604051908152f35b346101b35760403660031901126101b357611e1d611fa4565b6001600160a01b03165f908152600660205260409020805460243591908210156101b3576020916111b091611ffd565b346101b35760803660031901126101b357611e66611fa4565b50611e6f611fba565b506064356001600160401b0381116101b357611e8f903690600401611fd0565b5050604051630a85bd0160e11b8152602090f35b346101b3575f3660031901126101b3576040517f00000000000000000000000000000000000000000000000000000000000000006001600160a01b03168152602090f35b346101b35760203660031901126101b3576020611f056004356122fc565b604051908152f35b346101b35760203660031901126101b35760043563ffffffff60e01b81168091036101b357602090630a85bd0160e11b8114908115611f52575b506040519015158152f35b630271189760e51b14905082611f47565b346101b3575f3660031901126101b3577f00000000000000000000000000000000000000000000000000000000000000006001600160a01b03168152602090f35b600435906001600160a01b03821682036101b357565b602435906001600160a01b03821682036101b357565b9181601f840112156101b3578235916001600160401b0383116101b357602083818601950101116101b357565b8054821015612012575f5260205f2001905f90565b634e487b7160e01b5f52603260045260245ffd5b90600182811c92168015612054575b602083101461204057565b634e487b7160e01b5f52602260045260245ffd5b91607f1691612035565b61020081019081106001600160401b03821117611ab257604052565b90601f801991011681019081106001600160401b03821117611ab257604052565b9060405191825f8254926120ae84612026565b808452936001811690811561211957506001146120d5575b506120d39250038361207a565b565b90505f9291925260205f20905f915b8183106120fd5750509060206120d3928201015f6120c6565b60209193508060019154838589010152019101909184926120e4565b9050602092506120d394915060ff191682840152151560051b8201015f6120c6565b90600d821015611ac65752565b906002821015611ac65752565b805180835260209291819084018484015e5f828201840152601f01601f1916010190565b60206040818301928281528451809452019201905f5b81811061219c5750505090565b825184526020938401939092019160010161218f565b9181601f840112156101b3578235916001600160401b0383116101b3576020808501948460051b0101116101b357565b600d821015611ac65752565b6002821015611ac65752565b906040516122078161205e565b6101e06122f760058395805460018060a01b038116865260a01c6020860152600181015460018060a01b038116604087015260a01c60608601526001600160401b03600282015460018060a01b038116608088015261ffff8160a01c1660a088015260b01c1660c086015261ffff600382015463ffffffff811660e088015263ffffffff8160201c166101008801526122aa60ff8260401c1661012089016121e2565b6122be60ff8260481c1661014089016121ee565b60ff8160501c16151561016088015260ff8160581c16151561018088015260601c166101a086015260048101546101c08601520161209b565b910152565b61230581612a66565b5f52600460205261231860405f206121fa565b6001600160601b0360608201511680156123415761ffff60a061233e9301511690612df9565b90565b50602001516001600160601b031690565b80158015612388575b612383575f52600460205263ffffffff61010061237a60405f206121fa565b01511642101590565b505f90565b50600254811161235b565b908160209103126101b3575180151581036101b35790565b51906001600160a01b03821682036101b357565b9190820180921161115357565b6001600160401b038111611ab257601f01601f191660200190565b805468010000000000000000811015611ab25761240991600182018155611ffd565b819291549060031b91821b915f19901b1916179055565b9190820391821161115357565b3d15612457573d9061243e826123cc565b9161244c604051938461207a565b82523d5f602084013e565b606090565b805f52600460205260405f2061247182612a66565b60038101805460ff8160501c16156129ec5760ff8160581c166129d95763ffffffff8160201c168042106129c3575061ffff60501b1916600160581b1780825560018301805460028501805490939060a083901c1515806129b1575b156128fc57505050805484546124e98160a01c8360a01c612de7565b15612811575050505060ff612502915460401c16612acc565b1561268c57612510906121fa565b604081019160018060a01b03835116608083019360018060a01b0385511660c08501906001600160401b038251169261ffff6101a088015116946101408801516002811015611ac6577f337a0cbbd313e583889f10eb7c88e8631fd139af710a2fddc405f1bad8c63c139660a0966001600160401b0395612592943090612aea565b600180851b039051169151169060608601966001600160601b03885116916001600160601b03600180871b03895116926126326125ed6114466125e3886125db60035482612cac565b9a8b98612cd8565b9687929199612420565b8095612620896001808d1b037f000000000000000000000000000000000000000000000000000000000000000016612d82565b8515158061267c575b61266d57612d82565b600180881b0390511698600180881b0390511699511693604051948552602085015260408401526060830152600180841b03166080820152a4565b6126778689612d82565b612d82565b506001808b1b0388161515612629565b612695906121fa565b6101208101918251600d811015611ac6576126af90612e30565b9260608301936001600160601b0385511690608085019260018060a01b038451169260018060a01b03875116915191600d831015611ac657612726946127416020956101c08b01516101e08c015191604051998a98899788976318c17da360e21b895260048901526024880152604487019061213b565b6064850152608484015260c060a484015260c4830190612155565b03917f00000000000000000000000000000000000000000000000000000000000000006001600160a01b03165af18015610489576127de575b5060a06001600160601b037f337a0cbbd313e583889f10eb7c88e8631fd139af710a2fddc405f1bad8c63c1392600180841b0390511694600180841b039051169551166040519081525f60208201525f60408201525f60608201525f6080820152a4565b906020823d602011612809575b816127f86020938361207a565b810103126101b357905060a061277a565b3d91506127eb565b604060209493889798937f9b39d30e5c12147aebfa3cfa318d0b932a7a8861cca947d87bb8da56da8e7a80937fa59312996dc68b7f0224b341fed75d5afeb3bb20624107d37942d14f5942815698549061286f60ff83871c16612acc565b6128b9575b505085548254612891925060a01c906001600160a01b0316612d82565b5460a01c975460a01c81519089825286820152a2546040519485526001600160a01b031693a3565b87546128f493604884901c60ff169360601c61ffff169260b09290921c6001600160401b0316916001600160a01b0390811691309116612aea565b5f8080612874565b92509250925061291160ff8360401c16612acc565b612971575b50505060018060a01b03905416907fcdb034d750ed0c5924ffbc3ee3c5cbca328261d8301d42e9c176788ddca9ac47606060405160208152601060208201526f139bc8189a591cc81c9958d95a5d995960821b6040820152a3565b83546129a993604884901c60ff169360601c61ffff169260b01c6001600160401b0316916001600160a01b0390811691309116612aea565b5f8080612916565b506001600160a01b03811615156124cd565b84633df48b2560e21b5f5260045260245260445ffd5b836338602da160e21b5f5260045260245ffd5b8363aff5aad960e01b5f5260045260245ffd5b80158015612a5b575b612383575f526004602052612a1f60405f206121fa565b61016081015115159081612a31575090565b905063ffffffff6101008160e08401511692015116904210159081612a54575090565b9050421090565b506002548111612a08565b80158015612a88575b612a765750565b63317f869960e21b5f5260045260245ffd5b506002548111612a6f565b60ff60015416612a9f57565b63d93c066560e01b5f5260045ffd5b60025f5414612abd5760025f55565b633ee5aeb560e01b5f5260045ffd5b600d811015611ac6578015908115612ae2575090565b600191501490565b9490959192935f916002811015611ac657612bb357506001600160a01b038516803b15612baf57604051632142170760e11b81526001600160a01b0388811660048301528516602482015260448101869052919081908390606490829084905af19182612b97575b5050612b905750604051635296d7a560e01b81526001600160a01b039384166004820152938316602485015290911660448301526064820152608490fd5b9350505050565b612ba282809261207a565b612bac5780612b52565b80fd5b5080fd5b6001600160a01b0386169150813b156101b357604051637921219560e11b81526001600160a01b0388811660048301528516602482015260448101869052606481019190915260a060848201525f60a482018190529091829060c490829084905af19081612c59575b50612b905750604051635296d7a560e01b81526001600160a01b039384166004820152938316602485015290911660448301526064820152608490fd5b5f612c639161207a565b5f612c1c565b8181029291811591840414171561115357565b80158015612ca5575b612383576103e89081810291818304149015171561115357612710900490565b505f612c85565b80158015612cd0575b612cca5761271091612cc691612c69565b0490565b50505f90565b508115612cb5565b6040805163152a902d60e11b815260048101939093526024830184905292939290829060449082906001600160a01b03165afa805f925f92612d40575b50612d2457505090505f905f90565b612d2e8194612c7c565b809111612d3a57509190565b90925090565b925090506040823d604011612d7a575b81612d5d6040938361207a565b810103126101b3576020612d70836123ab565b920151905f612d15565b3d9150612d50565b8115612dbf575f80808085855af1612d9861242d565b5015612da2575050565b630e21dcbb60e11b5f5260018060a01b031660045260245260445ffd5b5050565b90612dce8183612e16565b612dd6575090565b905061025881018091116111535790565b8115612df257101590565b5050600190565b8015612cca57612710612e0f61233e9383612c69565b04906123bf565b80821015612cca5761012c91612e2b91612420565b111590565b612e3981612acc565b61238357600d81101580611ac657600282101580612ea0575b612e9757611ac65760098114612e8f5760088114612e8757600a8114612e8757600b14612e805762278d0090565b62278d0090565b506276a70090565b5062093a8090565b505062278d0090565b50505f6007821115612e5256fea2646970667358221220287cc44701d4578727d7c0395d93c050b115f46ebdbb702e222ce9ca91d5a3bf64736f6c634300081c0033","linkReferences":{}},"methodIdentifiers":{"EMERGENCY_WITHDRAWAL_DELAY()":"c2f1cac0","auctionCounter()":"a7e76644","auctions(uint256)":"571a26a0","bidderAuctions(address,uint256)":"1cb8dd1c","calculatePaymentDistribution(uint256)":"35339945","cancelAuction(uint256)":"96b5a755","createAuction(uint8,address,uint256,uint256,uint256,uint256,uint256,uint8,bytes32,string)":"3515b4a2","emergencyWithdraw(uint256)":"5312ea8e","endAuction(uint256)":"b9a2de3a","escrowManager()":"c12255c4","feeDistributor()":"0d43e8ad","getAuction(uint256)":"78bd7935","getBidderAuctions(address)":"62910b59","getMinimumBid(uint256)":"0600d4eb","getSellerAuctions(address)":"69ce5d87","hasAuctionEnded(uint256)":"2ebd2d8d","isAuctionActive(uint256)":"e71f7b15","onERC1155BatchReceived(address,address,uint256[],uint256[],bytes)":"bc197c81","onERC1155Received(address,address,uint256,uint256,bytes)":"f23a6e61","onERC721Received(address,address,uint256,bytes)":"150b7a02","pause()":"8456cb59","paused()":"5c975abb","pendingWithdrawals(address)":"f3f43703","placeBid(uint256)":"9979ef45","platformFeeBps()":"22dcd13e","roleManager()":"00435da5","sellerAuctions(address,uint256)":"5036b0bc","supportsInterface(bytes4)":"01ffc9a7","unpause()":"3f4ba83a","updatePlatformFee(uint256)":"aa0b5988","verifyAssetHash(uint256,string)":"9abde1d2","withdraw()":"3ccfd60b"},"id":78}