{"abi":[{"type":"constructor","inputs":[{"name":"_roleManager","type":"address","internalType":"address"},{"name":"_feeDistributor","type":"address","internalType":"address"},{"name":"_platformFeeBps","type":"uint256","internalType":"uint256"}],"stateMutability":"nonpayable"},{"type":"function","name":"addAuthorizedMarketplace","inputs":[{"name":"marketplace","type":"address","internalType":"address"}],"outputs":[],"stateMutability":"nonpayable"},{"type":"function","name":"authorizedMarketplaces","inputs":[{"name":"","type":"address","internalType":"address"}],"outputs":[{"name":"","type":"bool","internalType":"bool"}],"stateMutability":"view"},{"type":"function","name":"buyerEscrows","inputs":[{"name":"","type":"address","internalType":"address"},{"name":"","type":"uint256","internalType":"uint256"}],"outputs":[{"name":"","type":"uint256","internalType":"uint256"}],"stateMutability":"view"},{"type":"function","name":"cancelEscrow","inputs":[{"name":"escrowId","type":"uint256","internalType":"uint256"}],"outputs":[],"stateMutability":"nonpayable"},{"type":"function","name":"confirmAssetReceived","inputs":[{"name":"escrowId","type":"uint256","internalType":"uint256"}],"outputs":[],"stateMutability":"nonpayable"},{"type":"function","name":"createEscrow","inputs":[{"name":"buyer","type":"address","internalType":"address"},{"name":"seller","type":"address","internalType":"address"},{"name":"assetType","type":"uint8","internalType":"enum AssetTypes.AssetType"},{"name":"duration","type":"uint256","internalType":"uint256"},{"name":"assetHash","type":"bytes32","internalType":"bytes32"},{"name":"metadataURI","type":"string","internalType":"string"}],"outputs":[{"name":"escrowId","type":"uint256","internalType":"uint256"}],"stateMutability":"payable"},{"type":"function","name":"escrowCounter","inputs":[],"outputs":[{"name":"","type":"uint256","internalType":"uint256"}],"stateMutability":"view"},{"type":"function","name":"escrowMetadata","inputs":[{"name":"","type":"uint256","internalType":"uint256"}],"outputs":[{"name":"","type":"string","internalType":"string"}],"stateMutability":"view"},{"type":"function","name":"escrows","inputs":[{"name":"","type":"uint256","internalType":"uint256"}],"outputs":[{"name":"buyer","type":"address","internalType":"address"},{"name":"amount","type":"uint96","internalType":"uint96"},{"name":"seller","type":"address","internalType":"address"},{"name":"paymentToken","type":"address","internalType":"address"},{"name":"assetType","type":"uint8","internalType":"enum AssetTypes.AssetType"},{"name":"state","type":"uint8","internalType":"enum AssetTypes.EscrowState"},{"name":"createdAt","type":"uint32","internalType":"uint32"},{"name":"releaseTime","type":"uint32","internalType":"uint32"},{"name":"verificationDeadline","type":"uint32","internalType":"uint32"},{"name":"disputeDeadline","type":"uint32","internalType":"uint32"},{"name":"buyerConfirmed","type":"bool","internalType":"bool"},{"name":"sellerDelivered","type":"bool","internalType":"bool"},{"name":"assetHash","type":"bytes32","internalType":"bytes32"}],"stateMutability":"view"},{"type":"function","name":"feeDistributor","inputs":[],"outputs":[{"name":"","type":"address","internalType":"contract FeeDistributor"}],"stateMutability":"view"},{"type":"function","name":"getBuyerEscrows","inputs":[{"name":"buyer","type":"address","internalType":"address"}],"outputs":[{"name":"","type":"uint256[]","internalType":"uint256[]"}],"stateMutability":"view"},{"type":"function","name":"getEscrow","inputs":[{"name":"escrowId","type":"uint256","internalType":"uint256"}],"outputs":[{"name":"","type":"tuple","internalType":"struct IEscrowManager.Escrow","components":[{"name":"buyer","type":"address","internalType":"address"},{"name":"amount","type":"uint96","internalType":"uint96"},{"name":"seller","type":"address","internalType":"address"},{"name":"paymentToken","type":"address","internalType":"address"},{"name":"assetType","type":"uint8","internalType":"enum AssetTypes.AssetType"},{"name":"state","type":"uint8","internalType":"enum AssetTypes.EscrowState"},{"name":"createdAt","type":"uint32","internalType":"uint32"},{"name":"releaseTime","type":"uint32","internalType":"uint32"},{"name":"verificationDeadline","type":"uint32","internalType":"uint32"},{"name":"disputeDeadline","type":"uint32","internalType":"uint32"},{"name":"buyerConfirmed","type":"bool","internalType":"bool"},{"name":"sellerDelivered","type":"bool","internalType":"bool"},{"name":"assetHash","type":"bytes32","internalType":"bytes32"}]}],"stateMutability":"view"},{"type":"function","name":"getSellerEscrows","inputs":[{"name":"seller","type":"address","internalType":"address"}],"outputs":[{"name":"","type":"uint256[]","internalType":"uint256[]"}],"stateMutability":"view"},{"type":"function","name":"isAuthorizedMarketplace","inputs":[{"name":"marketplace","type":"address","internalType":"address"}],"outputs":[{"name":"","type":"bool","internalType":"bool"}],"stateMutability":"view"},{"type":"function","name":"markAssetDelivered","inputs":[{"name":"escrowId","type":"uint256","internalType":"uint256"}],"outputs":[],"stateMutability":"nonpayable"},{"type":"function","name":"openDispute","inputs":[{"name":"escrowId","type":"uint256","internalType":"uint256"},{"name":"reason","type":"string","internalType":"string"}],"outputs":[],"stateMutability":"nonpayable"},{"type":"function","name":"pause","inputs":[],"outputs":[],"stateMutability":"nonpayable"},{"type":"function","name":"paused","inputs":[],"outputs":[{"name":"","type":"bool","internalType":"bool"}],"stateMutability":"view"},{"type":"function","name":"platformFeeBps","inputs":[],"outputs":[{"name":"","type":"uint256","internalType":"uint256"}],"stateMutability":"view"},{"type":"function","name":"releaseEscrow","inputs":[{"name":"escrowId","type":"uint256","internalType":"uint256"}],"outputs":[],"stateMutability":"nonpayable"},{"type":"function","name":"removeAuthorizedMarketplace","inputs":[{"name":"marketplace","type":"address","internalType":"address"}],"outputs":[],"stateMutability":"nonpayable"},{"type":"function","name":"resolveDispute","inputs":[{"name":"escrowId","type":"uint256","internalType":"uint256"},{"name":"winner","type":"address","internalType":"address"},{"name":"amount","type":"uint256","internalType":"uint256"}],"outputs":[],"stateMutability":"nonpayable"},{"type":"function","name":"roleManager","inputs":[],"outputs":[{"name":"","type":"address","internalType":"contract RoleManager"}],"stateMutability":"view"},{"type":"function","name":"sellerEscrows","inputs":[{"name":"","type":"address","internalType":"address"},{"name":"","type":"uint256","internalType":"uint256"}],"outputs":[{"name":"","type":"uint256","internalType":"uint256"}],"stateMutability":"view"},{"type":"function","name":"unpause","inputs":[],"outputs":[],"stateMutability":"nonpayable"},{"type":"function","name":"updatePlatformFee","inputs":[{"name":"newFeeBps","type":"uint256","internalType":"uint256"}],"outputs":[],"stateMutability":"nonpayable"},{"type":"event","name":"AssetDelivered","inputs":[{"name":"escrowId","type":"uint256","indexed":true,"internalType":"uint256"},{"name":"seller","type":"address","indexed":true,"internalType":"address"},{"name":"deliveryTimestamp","type":"uint256","indexed":false,"internalType":"uint256"}],"anonymous":false},{"type":"event","name":"AssetReceiptConfirmed","inputs":[{"name":"escrowId","type":"uint256","indexed":true,"internalType":"uint256"},{"name":"buyer","type":"address","indexed":true,"internalType":"address"},{"name":"confirmationTimestamp","type":"uint256","indexed":false,"internalType":"uint256"}],"anonymous":false},{"type":"event","name":"DisputeOpened","inputs":[{"name":"escrowId","type":"uint256","indexed":true,"internalType":"uint256"},{"name":"disputedBy","type":"address","indexed":true,"internalType":"address"},{"name":"reason","type":"string","indexed":false,"internalType":"string"},{"name":"timestamp","type":"uint256","indexed":false,"internalType":"uint256"}],"anonymous":false},{"type":"event","name":"DisputeResolved","inputs":[{"name":"escrowId","type":"uint256","indexed":true,"internalType":"uint256"},{"name":"winner","type":"address","indexed":true,"internalType":"address"},{"name":"amount","type":"uint256","indexed":false,"internalType":"uint256"},{"name":"resolver","type":"address","indexed":false,"internalType":"address"}],"anonymous":false},{"type":"event","name":"EscrowCancelled","inputs":[{"name":"escrowId","type":"uint256","indexed":true,"internalType":"uint256"},{"name":"buyer","type":"address","indexed":true,"internalType":"address"},{"name":"refundAmount","type":"uint256","indexed":false,"internalType":"uint256"},{"name":"sellerCompensation","type":"uint256","indexed":false,"internalType":"uint256"}],"anonymous":false},{"type":"event","name":"EscrowCreated","inputs":[{"name":"escrowId","type":"uint256","indexed":true,"internalType":"uint256"},{"name":"buyer","type":"address","indexed":true,"internalType":"address"},{"name":"seller","type":"address","indexed":true,"internalType":"address"},{"name":"amount","type":"uint256","indexed":false,"internalType":"uint256"},{"name":"assetType","type":"uint8","indexed":false,"internalType":"enum AssetTypes.AssetType"},{"name":"releaseTime","type":"uint256","indexed":false,"internalType":"uint256"},{"name":"metadataURI","type":"string","indexed":false,"internalType":"string"}],"anonymous":false},{"type":"event","name":"EscrowReleased","inputs":[{"name":"escrowId","type":"uint256","indexed":true,"internalType":"uint256"},{"name":"seller","type":"address","indexed":true,"internalType":"address"},{"name":"amount","type":"uint256","indexed":false,"internalType":"uint256"},{"name":"platformFee","type":"uint256","indexed":false,"internalType":"uint256"},{"name":"sellerNet","type":"uint256","indexed":false,"internalType":"uint256"}],"anonymous":false},{"type":"event","name":"MarketplaceAuthorized","inputs":[{"name":"marketplace","type":"address","indexed":true,"internalType":"address"},{"name":"authorizedBy","type":"address","indexed":true,"internalType":"address"}],"anonymous":false},{"type":"event","name":"MarketplaceDeauthorized","inputs":[{"name":"marketplace","type":"address","indexed":true,"internalType":"address"},{"name":"deauthorizedBy","type":"address","indexed":true,"internalType":"address"}],"anonymous":false},{"type":"event","name":"Paused","inputs":[{"name":"account","type":"address","indexed":false,"internalType":"address"}],"anonymous":false},{"type":"event","name":"PlatformFeeUpdated","inputs":[{"name":"oldFeeBps","type":"uint256","indexed":false,"internalType":"uint256"},{"name":"newFeeBps","type":"uint256","indexed":false,"internalType":"uint256"},{"name":"updatedBy","type":"address","indexed":false,"internalType":"address"}],"anonymous":false},{"type":"event","name":"Unpaused","inputs":[{"name":"account","type":"address","indexed":false,"internalType":"address"}],"anonymous":false},{"type":"error","name":"AlreadyAuthorized","inputs":[{"name":"addr","type":"address","internalType":"address"}]},{"type":"error","name":"AssetTypeDoesNotRequireEscrow","inputs":[]},{"type":"error","name":"BuyerAndSellerSame","inputs":[{"name":"account","type":"address","internalType":"address"}]},{"type":"error","name":"BuyerCannotBeSeller","inputs":[]},{"type":"error","name":"BuyerRefundFailed","inputs":[]},{"type":"error","name":"CannotCancelEscrow","inputs":[]},{"type":"error","name":"DisputeDeadlinePassed","inputs":[{"name":"escrowId","type":"uint256","internalType":"uint256"}]},{"type":"error","name":"DurationTooLong","inputs":[{"name":"provided","type":"uint256","internalType":"uint256"},{"name":"maximum","type":"uint256","internalType":"uint256"}]},{"type":"error","name":"DurationTooShort","inputs":[{"name":"provided","type":"uint256","internalType":"uint256"},{"name":"minimum","type":"uint256","internalType":"uint256"}]},{"type":"error","name":"EmptyString","inputs":[{"name":"fieldName","type":"string","internalType":"string"}]},{"type":"error","name":"EnforcedPause","inputs":[]},{"type":"error","name":"EscrowAlreadyConfirmed","inputs":[{"name":"escrowId","type":"uint256","internalType":"uint256"}]},{"type":"error","name":"EscrowAlreadyDelivered","inputs":[{"name":"escrowId","type":"uint256","internalType":"uint256"}]},{"type":"error","name":"EscrowInDispute","inputs":[{"name":"escrowId","type":"uint256","internalType":"uint256"}]},{"type":"error","name":"EscrowNotActive","inputs":[{"name":"escrowId","type":"uint256","internalType":"uint256"},{"name":"currentState","type":"uint8","internalType":"enum AssetTypes.EscrowState"}]},{"type":"error","name":"EscrowNotDelivered","inputs":[{"name":"escrowId","type":"uint256","internalType":"uint256"}]},{"type":"error","name":"EscrowNotDisputed","inputs":[{"name":"escrowId","type":"uint256","internalType":"uint256"}]},{"type":"error","name":"EscrowNotReleasable","inputs":[{"name":"escrowId","type":"uint256","internalType":"uint256"}]},{"type":"error","name":"ExpectedPause","inputs":[]},{"type":"error","name":"FeeTransferFailed","inputs":[]},{"type":"error","name":"InsufficientPayment","inputs":[{"name":"provided","type":"uint256","internalType":"uint256"},{"name":"required","type":"uint256","internalType":"uint256"}]},{"type":"error","name":"InsufficientPayment","inputs":[{"name":"provided","type":"uint256","internalType":"uint256"},{"name":"required","type":"uint256","internalType":"uint256"}]},{"type":"error","name":"InvalidAmount","inputs":[{"name":"amount","type":"uint256","internalType":"uint256"}]},{"type":"error","name":"InvalidAssetType","inputs":[{"name":"assetType","type":"uint8","internalType":"uint8"}]},{"type":"error","name":"InvalidBasisPoints","inputs":[{"name":"bps","type":"uint256","internalType":"uint256"}]},{"type":"error","name":"InvalidBuyer","inputs":[{"name":"buyer","type":"address","internalType":"address"}]},{"type":"error","name":"InvalidDisputeResolution","inputs":[{"name":"amount","type":"uint256","internalType":"uint256"},{"name":"escrowAmount","type":"uint256","internalType":"uint256"}]},{"type":"error","name":"InvalidEscrowId","inputs":[{"name":"escrowId","type":"uint256","internalType":"uint256"}]},{"type":"error","name":"InvalidEscrowState","inputs":[{"name":"current","type":"uint8","internalType":"enum AssetTypes.EscrowState"},{"name":"required","type":"uint8","internalType":"enum AssetTypes.EscrowState"}]},{"type":"error","name":"InvalidFee","inputs":[{"name":"feeBps","type":"uint256","internalType":"uint256"}]},{"type":"error","name":"InvalidFeeDistributor","inputs":[]},{"type":"error","name":"InvalidHash","inputs":[]},{"type":"error","name":"InvalidRoleManager","inputs":[]},{"type":"error","name":"InvalidSeller","inputs":[{"name":"seller","type":"address","internalType":"address"}]},{"type":"error","name":"NotAdmin","inputs":[{"name":"caller","type":"address","internalType":"address"}]},{"type":"error","name":"NotAuthorized","inputs":[{"name":"caller","type":"address","internalType":"address"}]},{"type":"error","name":"NotFeeManager","inputs":[{"name":"caller","type":"address","internalType":"address"}]},{"type":"error","name":"NotPauser","inputs":[{"name":"caller","type":"address","internalType":"address"}]},{"type":"error","name":"OtherPartyTransferFailed","inputs":[]},{"type":"error","name":"PercentageTooHigh","inputs":[{"name":"provided","type":"uint256","internalType":"uint256"},{"name":"maximum","type":"uint256","internalType":"uint256"}]},{"type":"error","name":"ReentrancyGuardReentrantCall","inputs":[]},{"type":"error","name":"SellerCompensationFailed","inputs":[]},{"type":"error","name":"SellerTransferFailed","inputs":[]},{"type":"error","name":"StringTooLong","inputs":[{"name":"length","type":"uint256","internalType":"uint256"},{"name":"max","type":"uint256","internalType":"uint256"}]},{"type":"error","name":"UnauthorizedCaller","inputs":[{"name":"caller","type":"address","internalType":"address"},{"name":"required","type":"address","internalType":"address"}]},{"type":"error","name":"UnauthorizedEscrowCreation","inputs":[{"name":"caller","type":"address","internalType":"address"},{"name":"buyer","type":"address","internalType":"address"}]},{"type":"error","name":"WinnerTransferFailed","inputs":[]},{"type":"error","name":"ZeroAddress","inputs":[]}],"bytecode":{"object":"0x60c03461013357601f6125aa38819003918201601f19168301916001600160401b0383118484101761013757808492606094604052833981010312610133576100478161014b565b9060406100566020830161014b565b91015160015f55916001600160a01b03168015610124576080526001600160a01b03168015610115576127108211610102576103e882116100e95760a05260075560405161244a908161016082396080518181816105550152818161071201528181610a180152818161147b0152818161175d01528181611aaa0152611d2c015260a051818181611c0001526121350152f35b5063edff465960e01b5f526004526103e860245260445ffd5b50630cbf8cb160e11b5f5260045260245ffd5b635ebbf94b60e01b5f5260045ffd5b6309a53a6560e31b5f5260045ffd5b5f80fd5b634e487b7160e01b5f52604160045260245ffd5b51906001600160a01b03821682036101335756fe6080806040526004361015610012575f80fd5b5f3560e01c908162435da514611d1a57508063012f52ee14611c2f5780630d43e8ad14611beb5780630ec30d7414611a825780631b5924cf14611a3957806322dcd13e14611a1c578063283ea6f4146119265780632ac08bd3146118b457806335a94e5f1461173557806336f691c4146115b05780633f4ba83a1461145c5780635c975abb1461143a5780636305f68c14610de75780636864f44914610d0257806370c951a514610caa5780637d19e59614610b3f5780638456cb59146109f95780638ec8eef5146109bc5780639bcb46f9146109bc5780639c17e439146106d3578063aa0b598814610530578063b3f197d7146104ae578063c7ceafea14610491578063e018243614610346578063ed6531641461023e5763ff836e6d14610139575f80fd5b3461023a57602036600319011261023a5760043561015561204d565b61015d612068565b805f52600360205260405f2061017282612086565b61018361017e82611eda565b6120b3565b60018101546001600160a01b0316338190036102245750600381019060ff825460481c1661021157600201805460ff60a81b1916600160a91b179055805469ff000000000000000000191669010000000000000000001790556040514281523391907fc698294fe10a6a2cbe965d41f505a7bd787ed0988d3638a24913d70e0fd51f2490602090a360015f55005b8263525c415760e01b5f5260045260245ffd5b63536dd9ef60e01b5f523360045260245260445ffd5b5f80fd5b3461023a57602036600319011261023a5760043561025a61204d565b610262612068565b805f52600360205260405f2061027782612086565b600281015460ff8160a81c1660078110158061030557600182141580610339575b61031957610305576004146102f25763ffffffff60036102cc9301549160d01c169060ff808260481c169160401c16612285565b156102e0576102da906120cb565b60015f55005b631ae0e71b60e31b5f5260045260245ffd5b826335f8039d60e01b5f5260045260245ffd5b634e487b7160e01b5f52602160045260245ffd5b600162e4463360e01b03195f52600485905261033482611d68565b60445ffd5b50505f6002821415610298565b3461023a57602036600319011261023a5760043561036261204d565b61036a612068565b805f52600360205260405f209061038081612086565b61038c61017e83611eda565b60ff600383015460481c1682549080158061047f575b15610470576103b39160a01c612253565b60028401805460ff60a81b1916600560a81b1790559283610440575b5f8080808560018060a01b038654165af16103e8612001565b501561043157546040805192835260208301949094526001600160a01b0316927f9cbb559b6781d2ec602f3b43124b009cef3c77120507d3fab248055f03fcddb191a360015f55005b634de99c0760e11b5f5260045ffd5b5f8080808760018060a01b036001870154165af161045c612001565b506103cf576313c3dec160e31b5f5260045ffd5b630d87a84560e11b5f5260045ffd5b50336001600160a01b038316146103a2565b3461023a575f36600319011261023a576020600254604051908152f35b3461023a57602036600319011261023a576001600160a01b036104cf611d83565b165f52600560205260405f206040519081602082549182815201915f5260205f20905f5b81811061051a576105168561050a81870382611e94565b60405191829182611dd8565b0390f35b82548452602090930192600192830192016104f3565b3461023a57602036600319011261023a576040516305db2f4160e01b815260048035917f00000000000000000000000000000000000000000000000000000000000000006001600160a01b031691602090829081855afa908115610694575f9161069f575b50604051632474521560e21b815260048101919091523360248201529060209082908180604481015b03915afa908115610694575f91610665575b5015610652576127108111610640576103e881116106285760607f9e74d2175d1604ca094d3c60971771fb54aa1a0adbadcedcb69c48cfbd4feb999160075490806007556040519182526020820152336040820152a1005b63edff465960e01b5f526004526103e860245260445ffd5b630cbf8cb160e11b5f5260045260245ffd5b632518087360e11b5f523360045260245ffd5b610687915060203d60201161068d575b61067f8183611e94565b810190611eb6565b826105d0565b503d610675565b6040513d5f823e3d90fd5b90506020813d6020116106cb575b816106ba60209383611e94565b8101031261023a57516105be610595565b3d91506106ad565b3461023a57606036600319011261023a576004356106ef611d99565b906044356106fb61204d565b610703612068565b604051639cea078760e01b81527f00000000000000000000000000000000000000000000000000000000000000006001600160a01b031690602081600481855afa908115610694575f91610988575b50604051632474521560e21b815260048101919091523360248201529060209082908180604481015b03915afa908115610694575f91610969575b501561095657815f52600360205260405f206107a883612086565b60a06107b382611eda565b01805160078110156103055760031901610931575080546001600160a01b03858116959082168614929183158061091a575b6109075760a01c928385116108f0575f80868194829483146108d65760028701805460ff60a81b1916600360a91b1790555b5af1610821612001565b50156108c757818310610867575b505060407f28e163747c48f082e5598a7a9eb858867d8bfb390acd3814a60fbd74b9ffa816918151908152336020820152a360015f55005b5f80809361089886839560018060a01b03815416808c1486146108bf5750600101546001600160a01b031692612040565b905af16108a3612001565b50156108b057838061082f565b63e6a5e9c960e01b5f5260045ffd5b905092612040565b630d5afef560e21b5f5260045ffd5b60028701805460ff60a81b1916600360a81b179055610817565b83856331c3c07b60e01b5f5260045260245260445ffd5b86634a0bfec160e01b5f5260045260245ffd5b5060018301546001600160a01b03168714156107e5565b51600781101561030557600162e4463360e01b03195f90815260045261033490611d68565b634a0bfec160e01b5f523360045260245ffd5b610982915060203d60201161068d5761067f8183611e94565b8461078d565b90506020813d6020116109b4575b816109a360209383611e94565b8101031261023a575161077b610752565b3d9150610996565b3461023a57602036600319011261023a576001600160a01b036109dd611d83565b165f526008602052602060ff60405f2054166040519015158152f35b3461023a575f36600319011261023a5760405163e63ab1e960e01b81527f00000000000000000000000000000000000000000000000000000000000000006001600160a01b031690602081600481855afa908115610694575f91610b0b575b50604051632474521560e21b815260048101919091523360248201529060209082908180604481015b03915afa908115610694575f91610aec575b5015610ad957610aa161204d565b600160ff19815416176001557f62e78cea01bee320cd4e420270b5ea74000d11b0c9f74754ebdbfc544b05a2586020604051338152a1005b6310351a3760e11b5f523360045260245ffd5b610b05915060203d60201161068d5761067f8183611e94565b81610a93565b90506020813d602011610b37575b81610b2660209383611e94565b8101031261023a5751610a81610a58565b3d9150610b19565b3461023a57602036600319011261023a576004355f610180604051610b6381611e77565b8281528260208201528260408201528260608201528260808201528260a08201528260c08201528260e0820152826101008201528261012082015282610140820152826101608201520152610bb781612086565b5f5260036020526101a0610bcd60405f20611eda565b6101806040519160018060a01b0381511683526bffffffffffffffffffffffff602082015116602084015260018060a01b03604082015116604084015260018060a01b036060820151166060840152610c2e60808201516080850190611d5b565b610c4060a082015160a0850190611d76565b63ffffffff60c08201511660c084015263ffffffff60e08201511660e084015263ffffffff6101008201511661010084015263ffffffff61012082015116610120840152610140810151151561014084015261016081015115156101608401520151610180820152f35b3461023a57604036600319011261023a57610cc3611d83565b6001600160a01b03165f9081526005602052604090208054602435919082101561023a57602091610cf391611daf565b90549060031b1c604051908152f35b3461023a57602036600319011261023a576004355f52600460205260405f206040515f825492610d3184611e3f565b9081845260208401946001811690815f14610dca5750600114610d8a575b84604085610d5f81870382611e94565b8151928391602083525180918160208501528484015e5f828201840152601f01601f19168101030190f35b5f90815260208120939250905b808210610db057509091508101602001610d5f82610d4f565b919260018160209254838588010152019101909291610d97565b60ff191686525050151560051b82016020019050610d5f82610d4f565b60c036600319011261023a57610dfb611d83565b610e03611d99565b60443591600d83101561023a576064356084359260a43567ffffffffffffffff811161023a57610e37903690600401611e11565b929091610e4261204d565b610e4a612068565b6001600160a01b03908116941680851461142b578033141580611414575b6113fe5780156113ec5784156113d95734156113c65769d3c21bcecceda100000034116113c6576201518082106113ac576301e13380821161139157851561138357831561134f576101008411611336575f60ff8816600c81116113245750610305578615801561131a575b61130b57610ee287346121ce565b156112f4576002545f1981146112e0576001019586600255610f11610f078442612246565b9360011c42612246565b9062093a808401908185116112e05760405192610f2d84611e77565b848452838a60208201946bffffffffffffffffffffffff341686528d898d6040860190815260608601925f8452610f68608088019182611ece565b600160a08881018281524263ffffffff90811660c08c0190815296811660e08c019081529b81166101008c0190815298166101208b019081525f6101408c018181526101608d01828152610180909d019e8f529a81526003602052604090209e519d5190921b6001600160a01b03199081166001600160a01b039e8f16178f559451928e0180548616938e1693909317909255945160028d0180549094169b169a909a17825551919893969293909291600d81101561030557835460ff60a01b191660a09190911b60ff60a01b16178355519760078910156103055782549051915168ffffffffffffffffff60a81b1990911660a89990991b60ff60a81b169890981760b09190911b63ffffffff60b01b161760d09790971b63ffffffff60d01b1696909617909555915160038601805495519351925169ffffffffffffffffffff1990961663ffffffff9290921691909117602093841b67ffffffff000000001617911515604090811b60ff60401b169290921794151560481b69ff000000000000000000169490941790935590516004938401555f898152929052902067ffffffffffffffff85116112cc576111208154611e3f565b601f8111611287575b509186939160209893865f601f82116001146111f257926111c095927f08a26ab1c28e700f6254c1e7b408d2d2a34eb339968c3aa9d1eb4fd7aa4e90159795926111d8955f916111e7575b508a60011b905f198c60031b1c19161790555b5f5260058b5261119a8760405f20611fcd565b885f5260068b526111ae8760405f20611fcd565b6040519485943486528c860190611d5b565b60408401526080606084015233966080840191611fad565b0390a460015f55604051908152f35b90508401358e611174565b5f8381528c812092508990601f198216905b81811061126a5750926111d895926111c09895927f08a26ab1c28e700f6254c1e7b408d2d2a34eb339968c3aa9d1eb4fd7aa4e90159a989510611251575b505060018a811b019055611187565b8501355f1960038d901b60f8161c191690558d80611242565b8389013585558d9a50600190940193928e01928b92508e01611204565b815f5260205f20601f870160051c810191602088106112c2575b601f0160051c01905b8181106112b75750611129565b5f81556001016112aa565b90915081906112a1565b634e487b7160e01b5f52604160045260245ffd5b634e487b7160e01b5f52601160045260245ffd5b63b99e2ab760e01b5f52346004525f60245260445ffd5b63f03332ed60e01b5f5260045ffd5b5060018714610ed4565b6308a8fee960e31b5f5260045260245ffd5b8363c874dfa560e01b5f5260045261010060245260445ffd5b6040516318a996bb60e21b815260206004820152600b60248201526a6d6574616461746155524960a81b6044820152606490fd5b6257c03760e51b5f5260045ffd5b506308f08db360e11b5f526004526301e1338060245260445ffd5b50634086703360e11b5f526004526201518060245260445ffd5b633728b83d60e01b5f523460045260245ffd5b84630606500560e31b5f5260045260245ffd5b634d7cf57d60e01b5f5260045260245ffd5b637354816760e01b5f523360045260245260445ffd5b50335f52600860205260ff60405f20541615610e68565b63b12e242160e01b5f5260045ffd5b3461023a575f36600319011261023a57602060ff600154166040519015158152f35b3461023a575f36600319011261023a57604051631d6c8e3f60e21b81527f00000000000000000000000000000000000000000000000000000000000000006001600160a01b031690602081600481855afa908115610694575f9161157c575b50604051632474521560e21b815260048101919091523360248201529060209082908180604481015b03915afa908115610694575f9161155d575b501561154a5760015460ff81161561153b5760ff19166001557f5db9ee0a495bf2e6ff9c91a7834c1ba4fdd244a5e8aa4e537bd38aeae4b073aa6020604051338152a1005b638dfc202b60e01b5f5260045ffd5b630bd4212160e11b5f523360045260245ffd5b611576915060203d60201161068d5761067f8183611e94565b816114f6565b90506020813d6020116115a8575b8161159760209383611e94565b8101031261023a57516114e46114bb565b3d915061158a565b3461023a57604036600319011261023a5760043560243567ffffffffffffffff811161023a576115e4903690600401611e11565b91906115ee61204d565b6115f6612068565b815f52600360205260405f2061160b83612086565b80546001600160a01b03163314158061171e575b61095657600281019060ff825460a81c16906007821090811561030557600183141580611713575b6116f8576003015460201c63ffffffff1642116116e557611667826122e6565b156116c9575050805460ff60a81b1916600160aa1b17905560408051818152937f9ba592891920c93074eb53d5a05f624599949799402552946403a669e040dccc926116b69286019190611fad565b924260208201528033940390a360015f55005b636d345b2760e01b5f521561030557600452600460245260445ffd5b84632b410a7b60e01b5f5260045260245ffd5b600162e4463360e01b03195f52600486905261033483611d68565b506002831415611647565b5060018101546001600160a01b031633141561161f565b3461023a57602036600319011261023a5761174e611d83565b604051631d6c8e3f60e21b81527f00000000000000000000000000000000000000000000000000000000000000006001600160a01b031690602081600481855afa908115610694575f91611880575b50604051632474521560e21b815260048101919091523360248201529060209082908180604481015b03915afa908115610694575f91611861575b501561154a576001600160a01b0316801561185257805f52600860205260ff60405f20541661184057805f52600860205260405f20600160ff1982541617905533907fa7edd2d57e15743e3052f3fabf74106782d7b39dc527be4d16c0962b4d62dc8d5f80a3005b637103fd5f60e11b5f5260045260245ffd5b63d92e233d60e01b5f5260045ffd5b61187a915060203d60201161068d5761067f8183611e94565b826117d8565b90506020813d6020116118ac575b8161189b60209383611e94565b8101031261023a57516117c661179d565b3d915061188e565b3461023a57602036600319011261023a576001600160a01b036118d5611d83565b165f52600660205260405f206040519081602082549182815201915f5260205f20905f5b818110611910576105168561050a81870382611e94565b82548452602090930192600192830192016118f9565b3461023a57602036600319011261023a5760043561194261204d565b61194a612068565b805f52600360205260405f2061195f82612086565b60a061196a82611eda565b01805160078110156103055760011901610931575080546001600160a01b03163381900361022457506003019081549160ff8360481c1615611a095760ff8360401c166119f657600160401b6102da9360ff60401b1916179055604051428152817f4edd2eadd2ae127e44de9872978040e9d8d9dc8eb38452c501ee199602b684bf60203393a36120cb565b506374efe03760e01b5f5260045260245ffd5b50632e06634760e21b5f5260045260245ffd5b3461023a575f36600319011261023a576020600754604051908152f35b3461023a57604036600319011261023a57611a52611d83565b6001600160a01b03165f9081526006602052604090208054602435919082101561023a57602091610cf391611daf565b3461023a57602036600319011261023a57611a9b611d83565b604051631d6c8e3f60e21b81527f00000000000000000000000000000000000000000000000000000000000000006001600160a01b031690602081600481855afa908115610694575f91611bb7575b50604051632474521560e21b815260048101919091523360248201529060209082908180604481015b03915afa908115610694575f91611b98575b501561154a576001600160a01b03165f8181526008602052604090205460ff1615611b8657805f52600860205260405f2060ff19815416905533907f40c63f7bb38b4b1b3dae63056f6d1bec462cef44f120b615a4b958d3304f15415f80a3005b634a0bfec160e01b5f5260045260245ffd5b611bb1915060203d60201161068d5761067f8183611e94565b82611b25565b90506020813d602011611be3575b81611bd260209383611e94565b8101031261023a5751611b13611aea565b3d9150611bc5565b3461023a575f36600319011261023a576040517f00000000000000000000000000000000000000000000000000000000000000006001600160a01b03168152602090f35b3461023a57602036600319011261023a576004355f5260036020526101a060405f2080549060ff60018060a01b036001830154169163ffffffff600282015460046003840154930154946040519660018060a01b038116885260a01c6020880152604087015260018060a01b0381166060870152611cb560808701858360a01c16611d5b565b611cc760a08701858360a81c16611d76565b818160b01c1660c087015260d01c1660e085015263ffffffff811661010085015263ffffffff8160201c16610120850152818160401c16151561014085015260481c161515610160830152610180820152f35b3461023a575f36600319011261023a577f00000000000000000000000000000000000000000000000000000000000000006001600160a01b03168152602090f35b90600d8210156103055752565b600781101561030557602452565b9060078210156103055752565b600435906001600160a01b038216820361023a57565b602435906001600160a01b038216820361023a57565b8054821015611dc4575f5260205f2001905f90565b634e487b7160e01b5f52603260045260245ffd5b60206040818301928281528451809452019201905f5b818110611dfb5750505090565b8251845260209384019390920191600101611dee565b9181601f8401121561023a5782359167ffffffffffffffff831161023a576020838186019501011161023a57565b90600182811c92168015611e6d575b6020831014611e5957565b634e487b7160e01b5f52602260045260245ffd5b91607f1691611e4e565b6101a0810190811067ffffffffffffffff8211176112cc57604052565b90601f8019910116810190811067ffffffffffffffff8211176112cc57604052565b9081602091031261023a5751801515810361023a5790565b600d8210156103055752565b90604051611ee781611e77565b82546001600160a01b03808216835260a091821c602084015260018501548116604084015260028501549081166060840152919384929091611f329082901c60ff1660808501611ece565b60ff8160a81c169160078310156103055763ffffffff6004926101809460a0870152818160b01c1660c087015260d01c1660e085015260ff600382015463ffffffff811661010087015263ffffffff8160201c16610120870152818160401c16151561014087015260481c1615156101608501520154910152565b908060209392818452848401375f828201840152601f01601f1916010190565b8054600160401b8110156112cc57611fea91600182018155611daf565b819291549060031b91821b915f19901b1916179055565b3d1561203b573d9067ffffffffffffffff82116112cc5760405191612030601f8201601f191660200184611e94565b82523d5f602084013e565b606090565b919082039182116112e057565b60ff6001541661205957565b63d93c066560e01b5f5260045ffd5b60025f54146120775760025f55565b633ee5aeb560e01b5f5260045ffd5b801580156120a8575b6120965750565b630f6ceba360e21b5f5260045260245ffd5b50600254811161208f565b60a00180516007811015610305575f19016109315750565b805f52600360205260405f209060028201600360a81b60ff60a81b19825416179055815460a01c916120ff600754846122b2565b92600161210c8583612040565b9201905f8080808660018060a01b038754165af1612128612001565b50156121bf575f808080887f00000000000000000000000000000000000000000000000000000000000000006001600160a01b03165af1612167612001565b50156121b0577f7ae3a18a659243f01be952e398c3c88d44fe6e8baad213f1c51a69d55439dc7c9260609260018060a01b039054169560405192835260208301526040820152a3565b634033e4e360e01b5f5260045ffd5b635887b04b60e01b5f5260045ffd5b9066038d7ea4c68000821061224057600d8110158061030557600282101580612233575b61222157610305576008146122115769d3c21bcecceda1000000101590565b690a968163f0a57b400000101590565b505069021e19e0c9bab2400000101590565b50505f60078211156121f2565b50505f90565b919082018092116112e057565b919015612281576103e882028281046103e814831517156112e05761271061227d91048093612040565b9190565b5f90565b9190916122ab57816122a0575b5061229b575f90565b600190565b90504210155f612292565b5050600190565b908115908180156122de575b6122d7578083029283041417156112e057612710900490565b5050505f90565b5080156122be565b5f9060078110156103055780158061240a575b6122ab57600181148083816123fd575b506123b9578083816123f0575b506123b95782816123e2575b506122ab57600281148083816123c1575b506123b95782816123ab575b506122ab5760041480828161238a575b506122ab578181612369575b506123635790565b50600190565b9050612376575f8161235b565b634e487b7160e01b81526021600452602490fd5b9050612397575f8261234f565b634e487b7160e01b82526021600452602482fd5b90506123975760018261233f565b505050600190565b90506123ce575f83612333565b634e487b7160e01b83526021600452602483fd5b905061239757600182612322565b90506123ce575f83612316565b90506123ce575f83612309565b505f9150816122f956fea2646970667358221220d3a6ff98f7a9412def86cb8eeac810af1f26184936ae484a963a31dcb88388e164736f6c634300081c0033","linkReferences":{}},"methodIdentifiers":{"addAuthorizedMarketplace(address)":"35a94e5f","authorizedMarketplaces(address)":"8ec8eef5","buyerEscrows(address,uint256)":"70c951a5","cancelEscrow(uint256)":"e0182436","confirmAssetReceived(uint256)":"283ea6f4","createEscrow(address,address,uint8,uint256,bytes32,string)":"6305f68c","escrowCounter()":"c7ceafea","escrowMetadata(uint256)":"6864f449","escrows(uint256)":"012f52ee","feeDistributor()":"0d43e8ad","getBuyerEscrows(address)":"b3f197d7","getEscrow(uint256)":"7d19e596","getSellerEscrows(address)":"2ac08bd3","isAuthorizedMarketplace(address)":"9bcb46f9","markAssetDelivered(uint256)":"ff836e6d","openDispute(uint256,string)":"36f691c4","pause()":"8456cb59","paused()":"5c975abb","platformFeeBps()":"22dcd13e","releaseEscrow(uint256)":"ed653164","removeAuthorizedMarketplace(address)":"0ec30d74","resolveDispute(uint256,address,uint256)":"9c17e439","roleManager()":"00435da5","sellerEscrows(address,uint256)":"1b5924cf","unpause()":"3f4ba83a","updatePlatformFee(uint256)":"aa0b5988"},"id":82}