{"abi":[{"type":"constructor","inputs":[{"name":"_roleManager","type":"address","internalType":"address"},{"name":"_feeCollector","type":"address","internalType":"address"},{"name":"_platformFeeBps","type":"uint256","internalType":"uint256"}],"stateMutability":"nonpayable"},{"type":"receive","stateMutability":"payable"},{"type":"function","name":"accumulatedFees","inputs":[],"outputs":[{"name":"","type":"uint256","internalType":"uint256"}],"stateMutability":"view"},{"type":"function","name":"calculateDistribution","inputs":[{"name":"amount","type":"uint256","internalType":"uint256"},{"name":"nftContract","type":"address","internalType":"address"},{"name":"tokenId","type":"uint256","internalType":"uint256"}],"outputs":[{"name":"distribution","type":"tuple","internalType":"struct IFeeDistributor.PaymentDistribution","components":[{"name":"platformFee","type":"uint256","internalType":"uint256"},{"name":"royaltyFee","type":"uint256","internalType":"uint256"},{"name":"sellerNet","type":"uint256","internalType":"uint256"},{"name":"royaltyReceiver","type":"address","internalType":"address"}]}],"stateMutability":"view"},{"type":"function","name":"calculatePlatformFee","inputs":[{"name":"amount","type":"uint256","internalType":"uint256"}],"outputs":[{"name":"","type":"uint256","internalType":"uint256"}],"stateMutability":"view"},{"type":"function","name":"calculateSellerNet","inputs":[{"name":"amount","type":"uint256","internalType":"uint256"},{"name":"royaltyAmount","type":"uint256","internalType":"uint256"}],"outputs":[{"name":"","type":"uint256","internalType":"uint256"}],"stateMutability":"view"},{"type":"function","name":"distributeSaleProceeds","inputs":[{"name":"seller","type":"address","internalType":"address"},{"name":"amount","type":"uint256","internalType":"uint256"},{"name":"royaltyReceiver","type":"address","internalType":"address"},{"name":"royaltyAmount","type":"uint256","internalType":"uint256"}],"outputs":[],"stateMutability":"payable"},{"type":"function","name":"feeCollector","inputs":[],"outputs":[{"name":"","type":"address","internalType":"address"}],"stateMutability":"view"},{"type":"function","name":"pause","inputs":[],"outputs":[],"stateMutability":"nonpayable"},{"type":"function","name":"paused","inputs":[],"outputs":[{"name":"","type":"bool","internalType":"bool"}],"stateMutability":"view"},{"type":"function","name":"platformFeeBps","inputs":[],"outputs":[{"name":"","type":"uint256","internalType":"uint256"}],"stateMutability":"view"},{"type":"function","name":"roleManager","inputs":[],"outputs":[{"name":"","type":"address","internalType":"contract RoleManager"}],"stateMutability":"view"},{"type":"function","name":"supportsRoyalties","inputs":[{"name":"nftContract","type":"address","internalType":"address"}],"outputs":[{"name":"","type":"bool","internalType":"bool"}],"stateMutability":"view"},{"type":"function","name":"unpause","inputs":[],"outputs":[],"stateMutability":"nonpayable"},{"type":"function","name":"updateFeeCollector","inputs":[{"name":"newCollector","type":"address","internalType":"address"}],"outputs":[],"stateMutability":"nonpayable"},{"type":"function","name":"updatePlatformFee","inputs":[{"name":"newFeeBps","type":"uint256","internalType":"uint256"}],"outputs":[],"stateMutability":"nonpayable"},{"type":"function","name":"withdrawFees","inputs":[],"outputs":[],"stateMutability":"nonpayable"},{"type":"function","name":"withdrawFeesAmount","inputs":[{"name":"amount","type":"uint256","internalType":"uint256"}],"outputs":[],"stateMutability":"nonpayable"},{"type":"event","name":"FeeCollectorUpdated","inputs":[{"name":"oldCollector","type":"address","indexed":true,"internalType":"address"},{"name":"newCollector","type":"address","indexed":true,"internalType":"address"}],"anonymous":false},{"type":"event","name":"FeesReceived","inputs":[{"name":"from","type":"address","indexed":true,"internalType":"address"},{"name":"amount","type":"uint256","indexed":false,"internalType":"uint256"}],"anonymous":false},{"type":"event","name":"FeesWithdrawn","inputs":[{"name":"collector","type":"address","indexed":true,"internalType":"address"},{"name":"amount","type":"uint256","indexed":false,"internalType":"uint256"}],"anonymous":false},{"type":"event","name":"Paused","inputs":[{"name":"account","type":"address","indexed":false,"internalType":"address"}],"anonymous":false},{"type":"event","name":"PaymentDistributed","inputs":[{"name":"seller","type":"address","indexed":true,"internalType":"address"},{"name":"buyer","type":"address","indexed":true,"internalType":"address"},{"name":"totalAmount","type":"uint256","indexed":false,"internalType":"uint256"},{"name":"platformFee","type":"uint256","indexed":false,"internalType":"uint256"},{"name":"royaltyFee","type":"uint256","indexed":false,"internalType":"uint256"},{"name":"sellerNet","type":"uint256","indexed":false,"internalType":"uint256"}],"anonymous":false},{"type":"event","name":"PlatformFeeUpdated","inputs":[{"name":"oldFee","type":"uint256","indexed":false,"internalType":"uint256"},{"name":"newFee","type":"uint256","indexed":false,"internalType":"uint256"}],"anonymous":false},{"type":"event","name":"Unpaused","inputs":[{"name":"account","type":"address","indexed":false,"internalType":"address"}],"anonymous":false},{"type":"error","name":"DistributionFailed","inputs":[{"name":"recipient","type":"address","internalType":"address"},{"name":"amount","type":"uint256","internalType":"uint256"}]},{"type":"error","name":"EnforcedPause","inputs":[]},{"type":"error","name":"ExpectedPause","inputs":[]},{"type":"error","name":"IncorrectPayment","inputs":[]},{"type":"error","name":"InsufficientFees","inputs":[]},{"type":"error","name":"InvalidBasisPoints","inputs":[{"name":"bps","type":"uint256","internalType":"uint256"}]},{"type":"error","name":"InvalidFeeBps","inputs":[{"name":"bps","type":"uint256","internalType":"uint256"}]},{"type":"error","name":"InvalidFeeCollector","inputs":[]},{"type":"error","name":"InvalidFeeDistributor","inputs":[]},{"type":"error","name":"InvalidRoleManager","inputs":[]},{"type":"error","name":"InvalidRoyaltyReceiver","inputs":[]},{"type":"error","name":"InvalidSeller","inputs":[]},{"type":"error","name":"NoFeesToWithdraw","inputs":[]},{"type":"error","name":"NotAdmin","inputs":[{"name":"caller","type":"address","internalType":"address"}]},{"type":"error","name":"NotFeeCollector","inputs":[]},{"type":"error","name":"NotFeeManager","inputs":[{"name":"caller","type":"address","internalType":"address"}]},{"type":"error","name":"NotPauser","inputs":[{"name":"caller","type":"address","internalType":"address"}]},{"type":"error","name":"PercentageTooHigh","inputs":[{"name":"provided","type":"uint256","internalType":"uint256"},{"name":"maximum","type":"uint256","internalType":"uint256"}]},{"type":"error","name":"ReentrancyGuardReentrantCall","inputs":[]},{"type":"error","name":"RoyaltyTooHigh","inputs":[]},{"type":"error","name":"TransferFailed","inputs":[{"name":"recipient","type":"address","internalType":"address"},{"name":"amount","type":"uint256","internalType":"uint256"}]}],"bytecode":{"object":"0x60a03461017d57601f610fe138819003918201601f19168301916001600160401b038311848410176101815780849260609460405283398101031261017d5761004781610195565b90604061005660208301610195565b91015160015f55916001600160a01b0316801561016e576080526001600160a01b031690811561015f57612710811161014d576103e8811161013557600380546001600160a01b031916831790556002819055604080515f815260208101929092527fd347e206f25a89b917fc9482f1a2d294d749baa4dc9bde7fb495ee11fe49164391a1604051905f7f5d16ad41baeb009cd23eb8f6c7cde5c2e0cd5acf4a33926ab488875c37c37f388180a3610e3790816101aa8239608051818181610146015281816103fc015281816106430152818161098d0152610b3f0152f35b63edff465960e01b5f526004526103e860245260445ffd5b630cbf8cb160e11b5f5260045260245ffd5b635ebbf94b60e01b5f5260045ffd5b6309a53a6560e31b5f5260045ffd5b5f80fd5b634e487b7160e01b5f52604160045260245ffd5b51906001600160a01b038216820361017d5756fe6080806040526004361015610063575b50361561001a575f80fd5b610022610cbb565b61002e34600454610bbe565b6004556040513481527f2ccfc58c2cef4ee590b5f16be0548cc54afc12e1c66a67b362b7d640fd16bb2d60203392a260015f55005b5f3560e01c908162435da514610b2d575080630b75e33b14610b005780630cbab4f714610adf57806322dcd13e14610ac25780633f4ba83a1461096e578063476343ee1461092a578063564b984f146107ba578063587f5ed71461079d5780635c975abb1461077b5780638456cb591461062457806387389bc114610545578063aa0b5988146103d7578063aa5ab54b14610398578063c415b95c14610370578063c6c5d49e146102ad5763d2c35ce81461011e575f61000f565b346102a15760203660031901126102a157610137610b6e565b6040516305db2f4160e01b81527f00000000000000000000000000000000000000000000000000000000000000006001600160a01b031690602081600481855afa90811561026a575f91610275575b50604051632474521560e21b815260048101919091523360248201529060209082908180604481015b03915afa90811561026a575f9161023b575b5015610228576001600160a01b0316801561021957600380546001600160a01b0319811683179091556001600160a01b03167f5d16ad41baeb009cd23eb8f6c7cde5c2e0cd5acf4a33926ab488875c37c37f385f80a3005b63bb0bac9960e01b5f5260045ffd5b632518087360e11b5f523360045260245ffd5b61025d915060203d602011610263575b6102558183610b84565b810190610ba6565b5f6101c1565b503d61024b565b6040513d5f823e3d90fd5b90506020813d6020116102a5575b8161029060209383610b84565b810103126102a157516101af610186565b5f80fd5b3d9150610283565b346102a15760203660031901126102a1576004356102c9610cbb565b6003546001600160a01b0316338190036103615781156103525760045480831161034357610304916102fc848093610bdf565b600455610cd9565b6003546040519182526001600160a01b0316907fc0819c13be868895eb93e40eaceb96de976442fa1d404e5c55f14bb65a8c489a90602090a260015f55005b638d53e55360e01b5f5260045ffd5b630d00db4d60e31b5f5260045ffd5b6339fe69ff60e11b5f5260045ffd5b346102a1575f3660031901126102a1576003546040516001600160a01b039091168152602090f35b346102a15760403660031901126102a15760206103cf6004356103ca602435916103c460025482610c87565b90610bdf565b610bdf565b604051908152f35b346102a15760203660031901126102a1576040516305db2f4160e01b815260048035917f00000000000000000000000000000000000000000000000000000000000000006001600160a01b031691602090829081855afa90811561026a575f91610511575b50604051632474521560e21b815260048101919091523360248201529060209082908180604481015b03915afa90811561026a575f916104f2575b50156102285761271081116104e0576103e881116104c85760407fd347e206f25a89b917fc9482f1a2d294d749baa4dc9bde7fb495ee11fe49164391600254908060025582519182526020820152a1005b63edff465960e01b5f526004526103e860245260445ffd5b630cbf8cb160e11b5f5260045260245ffd5b61050b915060203d602011610263576102558183610b84565b82610477565b90506020813d60201161053d575b8161052c60209383610b84565b810103126102a1575161046561043c565b3d915061051f565b346102a15760603660031901126102a1576004356024356001600160a01b03811681036102a15760405190608082019282841067ffffffffffffffff851117610610576080936040525f8352602083015f81526105e86105e060408601935f85526105c98160608901975f89526105be60025483610c87565b8a5260443590610d4e565b6001600160a01b0390911687528452865190610bdf565b825190610bdf565b8252604080519451855290516020850152905190830152516001600160a01b03166060820152f35b634e487b7160e01b5f52604160045260245ffd5b346102a1575f3660031901126102a15760405163e63ab1e960e01b81527f00000000000000000000000000000000000000000000000000000000000000006001600160a01b031690602081600481855afa90811561026a575f91610747575b50604051632474521560e21b815260048101919091523360248201529060209082908180604481015b03915afa90811561026a575f91610728575b50156107155760015460ff81166107065760019060ff1916176001557f62e78cea01bee320cd4e420270b5ea74000d11b0c9f74754ebdbfc544b05a2586020604051338152a1005b63d93c066560e01b5f5260045ffd5b6310351a3760e11b5f523360045260245ffd5b610741915060203d602011610263576102558183610b84565b816106be565b90506020813d602011610773575b8161076260209383610b84565b810103126102a157516106ac610683565b3d9150610755565b346102a1575f3660031901126102a157602060ff600154166040519015158152f35b346102a1575f3660031901126102a1576020600454604051908152f35b60803660031901126102a1576107ce610b6e565b602435906044356001600160a01b038116908181036102a157606435916107f3610cbb565b84340361091b576001600160a01b03841693841561090c5761081760025487610c87565b9284151592836108d4575b508661082e8686610bbe565b116108b85791610867918493610849876103ca81988c610bdf565b96879361085887600454610bbe565b6004556108a8575b5050610cd9565b6040519485526020850152604084015260608301527f953d62465b0f42620319adfaea83f8537cb58ee0f0a32f2ed21c8eba964056ae60803393a360015f55005b6108b191610cd9565b8885610860565b6108c28585610bbe565b631994fc9960e11b5f5260045260245ffd5b156108fd576108e287610c52565b85116108ee5787610822565b63c2b03beb60e01b5f5260045ffd5b63029529cb60e61b5f5260045ffd5b63bab7ca3560e01b5f5260045ffd5b63569e8c1160e01b5f5260045ffd5b346102a1575f3660031901126102a157610942610cbb565b6003546001600160a01b031633819003610361576004549081156103525781610304915f600455610cd9565b346102a1575f3660031901126102a157604051631d6c8e3f60e21b81527f00000000000000000000000000000000000000000000000000000000000000006001600160a01b031690602081600481855afa90811561026a575f91610a8e575b50604051632474521560e21b815260048101919091523360248201529060209082908180604481015b03915afa90811561026a575f91610a6f575b5015610a5c5760015460ff811615610a4d5760ff19166001557f5db9ee0a495bf2e6ff9c91a7834c1ba4fdd244a5e8aa4e537bd38aeae4b073aa6020604051338152a1005b638dfc202b60e01b5f5260045ffd5b630bd4212160e11b5f523360045260245ffd5b610a88915060203d602011610263576102558183610b84565b81610a08565b90506020813d602011610aba575b81610aa960209383610b84565b810103126102a157516109f66109cd565b3d9150610a9c565b346102a1575f3660031901126102a1576020600254604051908152f35b346102a15760203660031901126102a15760206103cf600254600435610c87565b346102a15760203660031901126102a1576020610b23610b1e610b6e565b610bec565b6040519015158152f35b346102a1575f3660031901126102a1577f00000000000000000000000000000000000000000000000000000000000000006001600160a01b03168152602090f35b600435906001600160a01b03821682036102a157565b90601f8019910116810190811067ffffffffffffffff82111761061057604052565b908160209103126102a1575180151581036102a15790565b91908201809211610bcb57565b634e487b7160e01b5f52601160045260245ffd5b91908203918211610bcb57565b6040516301ffc9a760e01b815263152a902d60e11b600482015290602090829060249082906001600160a01b03165afa5f9181610c31575b50610c2e57505f90565b90565b610c4b91925060203d602011610263576102558183610b84565b905f610c24565b8015808015610c80575b610c7a576103e882029182046103e8141715610bcb57612710900490565b50505f90565b505f610c5c565b90811590818015610cb3575b610cac57808302928304141715610bcb57612710900490565b5050505f90565b508015610c93565b60025f5414610cca5760025f55565b633ee5aeb560e01b5f5260045ffd5b8115610d4a575f80808085855af13d15610d45573d67ffffffffffffffff81116106105760405190610d15601f8201601f191660200183610b84565b81525f60203d92013e5b15610d28575050565b630e21dcbb60e11b5f5260018060a01b031660045260245260445ffd5b610d1f565b5050565b6040805163152a902d60e11b815260048101939093526024830184905292939290829060449082906001600160a01b03165afa805f925f92610db6575b50610d9a57505090505f905f90565b610da48194610c52565b809111610db057509190565b90925090565b925090506040823d604011610df9575b81610dd360409383610b84565b810103126102a1578151916001600160a01b03831683036102a15760200151905f610d8b565b3d9150610dc656fea2646970667358221220d3a5651c7d2591c06e3572b41ed7e97df4feb5305f0c1f8a49ebbbc327afad9364736f6c634300081c0033","linkReferences":{}},"methodIdentifiers":{"accumulatedFees()":"587f5ed7","calculateDistribution(uint256,address,uint256)":"87389bc1","calculatePlatformFee(uint256)":"0cbab4f7","calculateSellerNet(uint256,uint256)":"aa5ab54b","distributeSaleProceeds(address,uint256,address,uint256)":"564b984f","feeCollector()":"c415b95c","pause()":"8456cb59","paused()":"5c975abb","platformFeeBps()":"22dcd13e","roleManager()":"00435da5","supportsRoyalties(address)":"0b75e33b","unpause()":"3f4ba83a","updateFeeCollector(address)":"d2c35ce8","updatePlatformFee(uint256)":"aa0b5988","withdrawFees()":"476343ee","withdrawFeesAmount(uint256)":"c6c5d49e"},"id":79}