{"abi":[{"type":"constructor","inputs":[{"name":"_roleManager","type":"address","internalType":"address"}],"stateMutability":"nonpayable"},{"type":"function","name":"allCollections","inputs":[{"name":"","type":"uint256","internalType":"uint256"}],"outputs":[{"name":"","type":"address","internalType":"address"}],"stateMutability":"view"},{"type":"function","name":"createCollection1155","inputs":[{"name":"name","type":"string","internalType":"string"},{"name":"symbol","type":"string","internalType":"string"},{"name":"uri","type":"string","internalType":"string"},{"name":"royaltyReceiver","type":"address","internalType":"address"},{"name":"royaltyFeeBps","type":"uint96","internalType":"uint96"}],"outputs":[{"name":"collection","type":"address","internalType":"address"}],"stateMutability":"payable"},{"type":"function","name":"createCollection721","inputs":[{"name":"name","type":"string","internalType":"string"},{"name":"symbol","type":"string","internalType":"string"},{"name":"royaltyReceiver","type":"address","internalType":"address"},{"name":"royaltyFeeBps","type":"uint96","internalType":"uint96"},{"name":"maxSupply","type":"uint256","internalType":"uint256"},{"name":"baseURI","type":"string","internalType":"string"}],"outputs":[{"name":"collection","type":"address","internalType":"address"}],"stateMutability":"payable"},{"type":"function","name":"creationFee","inputs":[],"outputs":[{"name":"","type":"uint256","internalType":"uint256"}],"stateMutability":"view"},{"type":"function","name":"creatorCollections","inputs":[{"name":"","type":"address","internalType":"address"},{"name":"","type":"uint256","internalType":"uint256"}],"outputs":[{"name":"","type":"address","internalType":"address"}],"stateMutability":"view"},{"type":"function","name":"isVertixCollection","inputs":[{"name":"","type":"address","internalType":"address"}],"outputs":[{"name":"","type":"bool","internalType":"bool"}],"stateMutability":"view"},{"type":"function","name":"nft1155Implementation","inputs":[],"outputs":[{"name":"","type":"address","internalType":"address"}],"stateMutability":"view"},{"type":"function","name":"nft721Implementation","inputs":[],"outputs":[{"name":"","type":"address","internalType":"address"}],"stateMutability":"view"},{"type":"function","name":"roleManager","inputs":[],"outputs":[{"name":"","type":"address","internalType":"contract RoleManager"}],"stateMutability":"view"},{"type":"function","name":"setCreationFee","inputs":[{"name":"newFee","type":"uint256","internalType":"uint256"}],"outputs":[],"stateMutability":"nonpayable"},{"type":"function","name":"withdrawFees","inputs":[],"outputs":[],"stateMutability":"nonpayable"},{"type":"event","name":"Collection1155Created","inputs":[{"name":"collection","type":"address","indexed":true,"internalType":"address"},{"name":"creator","type":"address","indexed":true,"internalType":"address"},{"name":"name","type":"string","indexed":false,"internalType":"string"},{"name":"symbol","type":"string","indexed":false,"internalType":"string"}],"anonymous":false},{"type":"event","name":"Collection721Created","inputs":[{"name":"collection","type":"address","indexed":true,"internalType":"address"},{"name":"creator","type":"address","indexed":true,"internalType":"address"},{"name":"name","type":"string","indexed":false,"internalType":"string"},{"name":"symbol","type":"string","indexed":false,"internalType":"string"}],"anonymous":false},{"type":"event","name":"CreationFeeUpdated","inputs":[{"name":"oldFee","type":"uint256","indexed":false,"internalType":"uint256"},{"name":"newFee","type":"uint256","indexed":false,"internalType":"uint256"}],"anonymous":false},{"type":"error","name":"EmptyString","inputs":[{"name":"fieldName","type":"string","internalType":"string"}]},{"type":"error","name":"FailedDeployment","inputs":[]},{"type":"error","name":"InsufficientBalance","inputs":[{"name":"balance","type":"uint256","internalType":"uint256"},{"name":"needed","type":"uint256","internalType":"uint256"}]},{"type":"error","name":"InsufficientPayment","inputs":[{"name":"provided","type":"uint256","internalType":"uint256"},{"name":"required","type":"uint256","internalType":"uint256"}]},{"type":"error","name":"InvalidRoleManager","inputs":[]},{"type":"error","name":"NoFeesToWithdraw","inputs":[]},{"type":"error","name":"NotAdmin","inputs":[{"name":"caller","type":"address","internalType":"address"}]},{"type":"error","name":"NotFeeManager","inputs":[{"name":"caller","type":"address","internalType":"address"}]},{"type":"error","name":"ReentrancyGuardReentrantCall","inputs":[]},{"type":"error","name":"TransferFailed","inputs":[{"name":"recipient","type":"address","internalType":"address"},{"name":"amount","type":"uint256","internalType":"uint256"}]}],"bytecode":{"object":"0x60e03461014157601f61607438819003918201601f19168301916001600160401b0383118484101761011e5780849260209460405283398101031261014157516001600160a01b038116908190036101415760015f5580156101325760c05260405161297e8082016001600160401b0381118382101761011e578291610d84833903905ff08015610113576001600160a01b03166080526040516129728082016001600160401b0381118382101761011e578291613702833903905ff08015610113576001600160a01b031660a052604051610c3e9081610146823960805181818160cc0152610461015260a05181818161011101526101fd015260c051818181610608015281816107b901526109cf0152f35b6040513d5f823e3d90fd5b634e487b7160e01b5f52604160045260245ffd5b6309a53a6560e31b5f5260045ffd5b5f80fdfe6080806040526004361015610012575f80fd5b5f905f3560e01c908162435da5146109bd575080630521b86614610980578063167ef49514610908578063476343ee1461079a5780635cf7987c14610738578063b7d86225146105e3578063d070d6931461039b578063d659afc014610140578063d9eba5a2146100fb578063db8d8e3d146100b65763dce0b4e414610096575f80fd5b346100b357806003193601126100b3576020600154604051908152f35b80fd5b50346100b357806003193601126100b3576040517f00000000000000000000000000000000000000000000000000000000000000006001600160a01b03168152602090f35b50346100b357806003193601126100b3576040517f00000000000000000000000000000000000000000000000000000000000000006001600160a01b03168152602090f35b5060a03660031901126100b35760043567ffffffffffffffff81116103975761016d903690600401610a7b565b60243567ffffffffffffffff81116103465761018d903690600401610a7b565b9060443567ffffffffffffffff8111610393576101ae903690600401610a7b565b916064356001600160a01b03811690819003610337576084356bffffffffffffffffffffffff811680910361038f576101e5610b87565b600154803410610379575083511561034a57856102217f0000000000000000000000000000000000000000000000000000000000000000610ba5565b6001600160a01b03811696909390873b156103465761028791604051948593849363715351bf60e11b855260c0600486015261027561026360c487018d610ad9565b8681036003190160248801528b610ad9565b85810360031901604487015290610ad9565b91336064850152608484015260a4830152038183895af1801561033b57610322575b5091837fdfd17885e10474f731c371f967e81b7c6742c646a7c6f946d7254f170fae770c610316602097946102f3876102e3600199610afd565b33885260038b5260408820610b42565b83865260048952604086208760ff19825416179055604051918291339683610b5f565b0390a355604051908152f35b61032d868092610a29565b610337575f6102a9565b8480fd5b6040513d88823e3d90fd5b8280fd5b6040516318a996bb60e21b815260206004808301919091526024820152636e616d6560e01b6044820152606490fd5b63b99e2ab760e01b875234600452602452604486fd5b8580fd5b8380fd5b5080fd5b5060c036600319011261059a5760043567ffffffffffffffff811161059a576103c8903690600401610a7b565b9060243567ffffffffffffffff811161059a576103e9903690600401610a7b565b906044356001600160a01b038116919082900361059a57606435936bffffffffffffffffffffffff851680950361059a5760a43567ffffffffffffffff811161059a5761043a903690600401610a7b565b93610443610b87565b6001548034106105cd575081511561034a5780511561059e576104857f0000000000000000000000000000000000000000000000000000000000000000610ba5565b956001600160a01b03871695863b1561059a575f91610502604051978893849363b454e9b160e01b855260e060048601526104d86104c660e487018b610ad9565b86810360031901602488015289610ad9565b923360448701526064860152608485015260843560a48501526003198483030160c4850152610ad9565b038183895af190811561058f57602096600195879361054f575b507f44aba5063500a889e6601b91f4448f439afaea39ffc806187a81c3eb57041eb1916102f3826102e361031694610afd565b610316919550916105815f7f44aba5063500a889e6601b91f4448f439afaea39ffc806187a81c3eb57041eb194610a29565b6102f35f969250509161051c565b6040513d5f823e3d90fd5b5f80fd5b6040516318a996bb60e21b81526020600482015260066024820152651cde5b589bdb60d21b6044820152606490fd5b63b99e2ab760e01b5f523460045260245260445ffd5b3461059a57602036600319011261059a576040516305db2f4160e01b815260048035917f00000000000000000000000000000000000000000000000000000000000000006001600160a01b031691602090829081855afa90811561058f575f91610704575b50604051632474521560e21b815260048101919091523360248201529060209082908180604481015b03915afa90811561058f575f916106d5575b50156106c25760407f5de302eeb1c80d4fb0c0953b692353f09ddf431411b8eb2034d5e8576956191291600154908060015582519182526020820152a1005b632518087360e11b5f523360045260245ffd5b6106f7915060203d6020116106fd575b6106ef8183610a29565b810190610ac1565b82610683565b503d6106e5565b90506020813d602011610730575b8161071f60209383610a29565b8101031261059a5751610671610648565b3d9150610712565b3461059a57604036600319011261059a576107516109fe565b6001600160a01b03165f9081526003602052604090208054602435919082101561059a5760209161078191610a14565b905460405160039290921b1c6001600160a01b03168152f35b3461059a575f36600319011261059a57604051631d6c8e3f60e21b81527f00000000000000000000000000000000000000000000000000000000000000006001600160a01b031690602081600481855afa90811561058f575f916108d4575b50604051632474521560e21b815260048101919091523360248201529060209082908180604481015b03915afa90811561058f575f916108b5575b50156108a257478015610893575f80808084335af13d1561088e573d61085981610a5f565b906108676040519283610a29565b81525f60203d92013e5b1561087857005b630e21dcbb60e11b5f523360045260245260445ffd5b610871565b630d00db4d60e31b5f5260045ffd5b630bd4212160e11b5f523360045260245ffd5b6108ce915060203d6020116106fd576106ef8183610a29565b81610834565b90506020813d602011610900575b816108ef60209383610a29565b8101031261059a57516108226107f9565b3d91506108e2565b3461059a57602036600319011261059a5760043560025481101561059a5760025481101561096c5760025f527f405787fa12a823e0f2b7631cc41b3ba8828b3321ca811111fa75cd3aa3bb5ace01546040516001600160a01b039091168152602090f35b634e487b7160e01b5f52603260045260245ffd5b3461059a57602036600319011261059a576001600160a01b036109a16109fe565b165f526004602052602060ff60405f2054166040519015158152f35b3461059a575f36600319011261059a577f00000000000000000000000000000000000000000000000000000000000000006001600160a01b03168152602090f35b600435906001600160a01b038216820361059a57565b805482101561096c575f5260205f2001905f90565b90601f8019910116810190811067ffffffffffffffff821117610a4b57604052565b634e487b7160e01b5f52604160045260245ffd5b67ffffffffffffffff8111610a4b57601f01601f191660200190565b81601f8201121561059a57803590610a9282610a5f565b92610aa06040519485610a29565b8284526020838301011161059a57815f926020809301838601378301015290565b9081602091031261059a5751801515810361059a5790565b805180835260209291819084018484015e5f828201840152601f01601f1916010190565b600254600160401b811015610a4b57806001610b1e92016002556002610a14565b81546001600160a01b0393841660039290921b91821b9390911b1916919091179055565b8054600160401b811015610a4b57610b1e91600182018155610a14565b9091610b76610b8493604084526040840190610ad9565b916020818403910152610ad9565b90565b60025f5414610b965760025f55565b633ee5aeb560e01b5f5260045ffd5b6e5af43d82803e903d91602b57fd5bf390763d602d80600a3d3981f3363d3d373d3d3d363d7300000062ffffff8260881c16175f5260781b17602052603760095ff0906001600160a01b03821615610bf957565b63b06ebf3d60e01b5f5260045ffdfea2646970667358221220726aee96504bc5ba7dca94c01468854365b4637ba70495871967b12907bb96eb64736f6c634300081c00336080806040523460aa575f51602061295e5f395f51905f525460ff8160401c16609b576002600160401b03196001600160401b038216016049575b6040516128af90816100af8239f35b6001600160401b0319166001600160401b039081175f51602061295e5f395f51905f525581527fc7f505b2f371ae2175ee4913f4499e1f2633a7b5936321eed1cdaeb6115181d290602090a15f80603a565b63f92ee8a960e01b5f5260045ffd5b5f80fdfe6080806040526004361015610012575f80fd5b5f3560e01c90816301ffc9a7146117545750806302d05d3f1461172c57806304634d8d146116ab57806306fdde0314611601578063081812fc146115d9578063095ea7b3146114da57806323b872dd146114c35780632a55205a146113fa5780633f4ba83a1461137c57806342842e0e1461134d57806342966c681461133057806355f804b3146111665780635944c753146110735780635c975abb146110455780636352211e146110155780636f8b44b014610fae57806370a0823114610f5f578063715018a614610ef85780638456cb5914610e875780638a616bc014610e3c5780638da5cb5b14610e0857806395d89b4114610d26578063a22cb46514610c8e578063a2309ff814610c71578063aa1b103f14610c34578063b454e9b11461059c578063b88d4fde14610531578063c87b56dd146104fa578063d0def5211461044a578063d5abeb011461042d578063e4c9adf614610412578063e985e9c5146103c6578063f2f18baa146101c15763f2fde38b14610192575f80fd5b346101bd5760203660031901126101bd576101bb6101ae6117f3565b6101b6611c93565b611c22565b005b5f80fd5b346101bd5760403660031901126101bd576101da6117f3565b6024356001600160401b0381116101bd57366023820112156101bd578060040135906001600160401b0382116103b2578160051b90604051926102206020840185611898565b835260246020840192820101903682116101bd5760248101925b82841061038357858561024b611c93565b61025361234d565b80518015610374576064811161035e5760015480610334575b505f54915f5b8281106102e3575050600254928184018094116102cf5760407f59f9fb6d992d2aee0ed338bb4c504a17fd3f67ae91a3135bc2ef947e308c41b2916020956002558151938585528685015260018060a01b031692a2604051908152f35b634e487b7160e01b5f52601160045260245ffd5b6102ed5f54611c14565b90815f556102fb8287612374565b82518110156103205761031a60019260208360051b8601015190612567565b01610272565b634e487b7160e01b5f52603260045260245ffd5b60025481039081116102cf578082111561026c579063adc3cee560e01b5f5260045260245260445ffd5b62ef8cfb60e11b5f52600452606460245260445ffd5b63c2e5347d60e01b5f5260045ffd5b83356001600160401b0381116101bd576020916103a783926024369187010161190a565b81520193019261023a565b634e487b7160e01b5f52604160045260245ffd5b346101bd5760403660031901126101bd576103df6117f3565b6103f06103ea611809565b91611bdc565b9060018060a01b03165f52602052602060ff60405f2054166040519015158152f35b346101bd575f3660031901126101bd57602060405160648152f35b346101bd575f3660031901126101bd576020600154604051908152f35b346101bd5760403660031901126101bd576104636117f3565b6024356001600160401b0381116101bd5761048290369060040161190a565b9061048b611c93565b61049361234d565b60015480151590816104ed575b506104de576104d66020926104d06104b85f54611c14565b8094815f556104c8600254611c14565b600255612374565b82612567565b604051908152f35b63d05cb60960e01b5f5260045ffd5b90506002541015836104a0565b346101bd5760203660031901126101bd5761052d6105196004356120aa565b60405191829160208352602083019061181f565b0390f35b346101bd5760803660031901126101bd5761054a6117f3565b610552611809565b90604435606435926001600160401b0384116101bd57366023850112156101bd5761058a6101bb9436906024816004013591016118d4565b92610596838383611a04565b33611f36565b346101bd5760e03660031901126101bd576004356001600160401b0381116101bd576105cc90369060040161190a565b6024356001600160401b0381116101bd576105eb90369060040161190a565b6044356001600160a01b038116908181036101bd57606435906001600160a01b0382168083036101bd57608435916001600160601b038316958684036101bd5760c4356001600160401b0381116101bd5761064a90369060040161190a565b975f51602061281a5f395f51905f52549760ff8960401c1615986001600160401b03811680159081610c2c575b6001149081610c22575b159081610c19575b50610c0a5767ffffffffffffffff1981166001175f51602061281a5f395f51905f525589610bde575b508715610bcf576106c286611cc6565b151580948195610bc6575b50610bb7576106da61274e565b6106e261274e565b8051906001600160401b0382116103b257819061070c5f51602061279a5f395f51905f5254611928565b601f8111610b39575b50602090601f8311600114610ab0575f92610aa5575b50508160011b915f199060031b1c1916175f51602061279a5f395f51905f52555b8051906001600160401b0382116103b2576107745f51602061283a5f395f51905f5254611928565b601f8111610a36575b50602090601f83116001146109b5576107e39392915f91836109aa575b50508160011b915f199060031b1c1916175f51602061283a5f395f51905f52555b6107c361274e565b6107cb61274e565b6107d361274e565b6107db61274e565b6101b661274e565b6107eb61274e565b61099a575b50506001600160601b0360a01b600454161760045560a43560015581516001600160401b0381116103b257610826600354611928565b601f8111610932575b50602092601f82116001146108c657928192935f926108bb575b50508160011b915f199060031b1c1916176003555b61086457005b68ff0000000000000000195f51602061281a5f395f51905f5254165f51602061281a5f395f51905f52557fc7f505b2f371ae2175ee4913f4499e1f2633a7b5936321eed1cdaeb6115181d2602060405160018152a1005b015190508380610849565b601f1982169360035f525f51602061277a5f395f51905f52915f5b86811061091a5750836001959610610902575b505050811b0160035561085e565b01515f1960f88460031b161c191690558380806108f4565b919260206001819286850151815501940192016108e1565b60035f52601f820160051c5f51602061277a5f395f51905f52019060208310610985575b601f0160051c5f51602061277a5f395f51905f5201905b81811061097a575061082f565b5f815560010161096d565b5f51602061277a5f395f51905f529150610956565b6109a391611cf3565b83806107f0565b015190508a8061079a565b90601f198316915f51602061283a5f395f51905f525f52815f20925f5b818110610a1e57509160019391856107e397969410610a06575b505050811b015f51602061283a5f395f51905f52556107bb565b01515f1960f88460031b161c191690558a80806109ec565b929360206001819287860151815501950193016109d2565b5f51602061283a5f395f51905f525f527ff4bad0a69248f59680a4f2b3000328cec71a413447c96781cfe5996daa8c456e601f840160051c81019160208510610a9b575b601f0160051c01905b818110610a90575061077d565b5f8155600101610a83565b9091508190610a7a565b015190508a8061072b565b5f51602061279a5f395f51905f525f9081525f51602061285a5f395f51905f529350601f198516905b818110610b215750908460019594939210610b09575b505050811b015f51602061279a5f395f51905f525561074c565b01515f1960f88460031b161c191690558a8080610aef565b92936020600181928786015181550195019301610ad9565b9091505f51602061279a5f395f51905f525f52601f830160051c5f51602061285a5f395f51905f52019060208410610ba2575b90601f8493920160051c5f51602061285a5f395f51905f5201905b818110610b945750610715565b5f8155849350600101610b87565b5f51602061285a5f395f51905f529150610b6c565b63029529cb60e61b5f5260045ffd5b9050158a6106cd565b6332db94d160e21b5f5260045ffd5b68ffffffffffffffffff191668010000000000000001175f51602061281a5f395f51905f52558a6106b2565b63f92ee8a960e01b5f5260045ffd5b9050158c610689565b303b159150610681565b8b9150610677565b346101bd575f3660031901126101bd57610c4c611c93565b5f7fdaedc9ab023613a7caf35e703657e986ccfad7e3eb0af93a2853f8d65dd86b0055005b346101bd575f3660031901126101bd576020600254604051908152f35b346101bd5760403660031901126101bd57610ca76117f3565b602435908115158092036101bd576001600160a01b0316908115610d1357610cce33611bdc565b825f5260205260405f2060ff1981541660ff83161790556040519081527f17307eab39ab6107e8899845ad3d59bd9653f200f220920489ca2b5937696c3160203392a3005b50630b61174360e31b5f5260045260245ffd5b346101bd575f3660031901126101bd576040515f5f51602061283a5f395f51905f5254610d5281611928565b8084529060018116908115610de45750600114610d7a575b61052d8361051981850382611898565b5f51602061283a5f395f51905f525f9081527ff4bad0a69248f59680a4f2b3000328cec71a413447c96781cfe5996daa8c456e939250905b808210610dca57509091508101602001610519610d6a565b919260018160209254838588010152019101909291610db2565b60ff191660208086019190915291151560051b840190910191506105199050610d6a565b346101bd575f3660031901126101bd575f5160206127ba5f395f51905f52546040516001600160a01b039091168152602090f35b346101bd5760203660031901126101bd57610e55611c93565b6004355f9081527fdaedc9ab023613a7caf35e703657e986ccfad7e3eb0af93a2853f8d65dd86b016020526040812055005b346101bd575f3660031901126101bd57610e9f611c93565b610ea761234d565b600160ff195f5160206127da5f395f51905f525416175f5160206127da5f395f51905f52557f62e78cea01bee320cd4e420270b5ea74000d11b0c9f74754ebdbfc544b05a2586020604051338152a1005b346101bd575f3660031901126101bd57610f10611c93565b5f5160206127ba5f395f51905f5280546001600160a01b031981169091555f906001600160a01b03167f8be0079c531659141344cd1fd0a4f28419497f9722a3daafe3b4186f6b6457e08280a3005b346101bd5760203660031901126101bd57610f786117f3565b6001600160a01b03811615610f9b57610f92602091611ba4565b54604051908152f35b6322718ad960e21b5f525f60045260245ffd5b346101bd5760203660031901126101bd57600435610fca611c93565b6002548110611004576020817f7810bd47de260c3e9ee10061cf438099dd12256c79485f12f94dbccc981e806c92600155604051908152a1005b62f538ed60e21b5f5260045260245ffd5b346101bd5760203660031901126101bd576020611033600435611d94565b6040516001600160a01b039091168152f35b346101bd575f3660031901126101bd57602060ff5f5160206127da5f395f51905f5254166040519015158152f35b346101bd5760603660031901126101bd5760043561108f611809565b604435906001600160601b038216918281036101bd576110b6906110b1611c93565b611cc6565b6127108211611149576001600160a01b031691821561113357604051926110dc8461187d565b835260208084019283525f9182527fdaedc9ab023613a7caf35e703657e986ccfad7e3eb0af93a2853f8d65dd86b019052604090209151905160a01b6001600160a01b0319166001600160a01b0391909116179055005b634b4f842960e11b5f526004525f60245260445ffd5b509063dfd1fc1b60e01b5f5260045260245261271060445260645ffd5b346101bd5760203660031901126101bd576004356001600160401b0381116101bd5761119690369060040161190a565b61119e611c93565b80516001600160401b0381116103b2576111b9600354611928565b601f81116112c8575b506020601f8211600114611236579181611226927f6741b2fc379fad678116fe3d4d4b9a1a184ab53ba36b86ad0fa66340b1ab41ad945f9161122b575b508160011b915f199060031b1c19161760035560405191829160208352602083019061181f565b0390a1005b9050820151856111ff565b601f1982169060035f525f51602061277a5f395f51905f52915f5b8181106112b05750927f6741b2fc379fad678116fe3d4d4b9a1a184ab53ba36b86ad0fa66340b1ab41ad9492600192826112269610611298575b5050811b01600355610519565b8401515f1960f88460031b161c19169055858061128b565b91926020600181928689015181550194019201611251565b60035f52601f820160051c5f51602061277a5f395f51905f5201906020831061131b575b601f0160051c5f51602061277a5f395f51905f5201905b81811061131057506111c2565b5f8155600101611303565b5f51602061277a5f395f51905f5291506112ec565b346101bd5760203660031901126101bd576101bb33600435611dfc565b346101bd576101bb61135e36611843565b906040519261136e602085611898565b5f8452610596838383611a04565b346101bd575f3660031901126101bd57611394611c93565b5f5160206127da5f395f51905f525460ff8116156113eb5760ff19165f5160206127da5f395f51905f52557f5db9ee0a495bf2e6ff9c91a7834c1ba4fdd244a5e8aa4e537bd38aeae4b073aa6020604051338152a1005b638dfc202b60e01b5f5260045ffd5b346101bd5760403660031901126101bd576004355f9081527fdaedc9ab023613a7caf35e703657e986ccfad7e3eb0af93a2853f8d65dd86b016020526040902054602435906001600160a01b0381169060a01c811561148c575b6001600160601b0316918281029281840414901517156102cf57604080516001600160a01b0390921682526127109092046020820152f35b50507fdaedc9ab023613a7caf35e703657e986ccfad7e3eb0af93a2853f8d65dd86b00546001600160a01b0381169060a01c611454565b346101bd576101bb6114d436611843565b91611a04565b346101bd5760403660031901126101bd576114f36117f3565b6024356114ff81611d94565b331515806115c6575b806115a3575b6115905781906001600160a01b0384811691167f8c5be1e5ebec7d5bd14f71427d1e84f3dd0314c0f7b2291e5b200ac8c7c3b9255f80a45f9081527f80bb2b638cc20bc4d0a60d66940f3ab4a00c1d7b313497ca82fb0b4ab00793046020526040902080546001600160a01b0319166001600160a01b03909216919091179055005b63a9fbf51f60e01b5f523360045260245ffd5b506115ad81611bdc565b335f908152602091909152604090205460ff161561150e565b506001600160a01b038116331415611508565b346101bd5760203660031901126101bd5760206110336004356115fb81611d94565b50611dc3565b346101bd575f3660031901126101bd576040515f5f51602061279a5f395f51905f525461162d81611928565b8084529060018116908115610de457506001146116545761052d8361051981850382611898565b5f51602061279a5f395f51905f525f9081525f51602061285a5f395f51905f52939250905b80821061169157509091508101602001610519610d6a565b919260018160209254838588010152019101909291611679565b346101bd5760403660031901126101bd576116c46117f3565b602435906001600160601b038216918281036101bd577f8039bd6e4e7dba001c8840eb2e118d9d131246faa7d0d04335f7305127ec0b109161171960209261170a611c93565b61171381611cc6565b82611cf3565b6040519384526001600160a01b031692a2005b346101bd575f3660031901126101bd576004546040516001600160a01b039091168152602090f35b346101bd5760203660031901126101bd576004359063ffffffff60e01b82168092036101bd5760209163152a902d60e11b8114908115611796575b5015158152f35b632483248360e11b8114915081156117b0575b508361178f565b6380ac58cd60e01b8114915081156117e2575b81156117d1575b50836117a9565b6301ffc9a760e01b149050836117ca565b635b5e139f60e01b811491506117c3565b600435906001600160a01b03821682036101bd57565b602435906001600160a01b03821682036101bd57565b805180835260209291819084018484015e5f828201840152601f01601f1916010190565b60609060031901126101bd576004356001600160a01b03811681036101bd57906024356001600160a01b03811681036101bd579060443590565b604081019081106001600160401b038211176103b257604052565b90601f801991011681019081106001600160401b038211176103b257604052565b6001600160401b0381116103b257601f01601f191660200190565b9291926118e0826118b9565b916118ee6040519384611898565b8294818452818301116101bd578281602093845f960137010152565b9080601f830112156101bd57816020611925933591016118d4565b90565b90600182811c92168015611956575b602083101461194257565b634e487b7160e01b5f52602260045260245ffd5b91607f1691611937565b604051905f826003549161197383611928565b80835292600181169081156119e55750600114611999575b61199792500383611898565b565b5060035f90815290915f51602061277a5f395f51905f525b8183106119c95750509060206119979282010161198b565b60209193508060019154838589010152019101909184926119b1565b6020925061199794915060ff191682840152151560051b82010161198b565b9091906001600160a01b0383168015611b9157611a1f61234d565b82611a29816126ec565b9133151580611aef575b506001600160a01b03831695611a4d9087611ad157611ba4565b60018154019055815f525f5160206127fa5f395f51905f5260205260405f20816001600160601b0360a01b825416179055857fddf252ad1be2c89b69c2b068fc378daa952ba7f163c4a11628f55a4df523b3ef5f80a4506001600160a01b0316808303611ab957505050565b6364283d7b60e01b5f5260045260245260445260645ffd5b611ada84612712565b611ae385611ba4565b80545f19019055611ba4565b90915080611b3c575b15611b055783905f611a33565b836001600160a01b038316611b2657637e27328960e01b5f5260045260245ffd5b63177e802f60e01b5f523360045260245260445ffd5b506001600160a01b03821633148015611b6f575b80611af85750336001600160a01b03611b6886611dc3565b1614611af8565b50611b7982611bdc565b335f908152602091909152604090205460ff16611b50565b633250574960e11b5f525f60045260245ffd5b6001600160a01b03165f9081527f80bb2b638cc20bc4d0a60d66940f3ab4a00c1d7b313497ca82fb0b4ab00793036020526040902090565b6001600160a01b03165f9081527f80bb2b638cc20bc4d0a60d66940f3ab4a00c1d7b313497ca82fb0b4ab00793056020526040902090565b5f1981146102cf5760010190565b6001600160a01b03168015611c80575f5160206127ba5f395f51905f5280546001600160a01b0319811683179091556001600160a01b03167f8be0079c531659141344cd1fd0a4f28419497f9722a3daafe3b4186f6b6457e05f80a3565b631e4fbdf760e01b5f525f60045260245ffd5b5f5160206127ba5f395f51905f52546001600160a01b03163303611cb357565b63118cdaa760e01b5f523360045260245ffd5b6001600160601b03166103e88111611cdb5750565b63086b5d3b60e21b5f526004526103e860245260445ffd5b6001600160601b038216906127108211611d7b576001600160a01b0316908115611d68576020604051611d258161187d565b83815201526001600160a01b031660a09190911b6001600160a01b031916177fdaedc9ab023613a7caf35e703657e986ccfad7e3eb0af93a2853f8d65dd86b0055565b635b6cc80560e11b5f525f60045260245ffd5b50636f483d0960e01b5f5260045261271060245260445ffd5b611d9d816126ec565b906001600160a01b03821615611db1575090565b637e27328960e01b5f5260045260245ffd5b5f9081527f80bb2b638cc20bc4d0a60d66940f3ab4a00c1d7b313497ca82fb0b4ab007930460205260409020546001600160a01b031690565b611e0461234d565b611e0d816126ec565b916001600160a01b031680151580611e9f575b505f90506001600160a01b03831680611e81575b8282525f5160206127fa5f395f51905f526020526040822080546001600160a01b03191690557fddf252ad1be2c89b69c2b068fc378daa952ba7f163c4a11628f55a4df523b3ef8280a490565b611e8a83612712565b611e9384611ba4565b82198154019055611e34565b80611ee6575b15611eb05780611e20565b6001600160a01b038316611ed15750637e27328960e01b5f5260045260245ffd5b63177e802f60e01b5f5260045260245260445ffd5b506001600160a01b03831681148015611f19575b80611ea55750806001600160a01b03611f1284611dc3565b1614611ea5565b50611f2383611bdc565b815f5260205260ff60405f205416611efa565b823b611f44575b5050505050565b604051630a85bd0160e11b81526001600160a01b039182166004820152918116602483015260448201939093526080606482015291169160209082908190611f9090608483019061181f565b03815f865af15f9181612027575b50611ff357503d15611fec573d611fb4816118b9565b90611fc26040519283611898565b81523d5f602083013e5b80519081611fe75782633250574960e11b5f5260045260245ffd5b602001fd5b6060611fcc565b6001600160e01b03191663757a42ff60e11b0161201557505f80808080611f3d565b633250574960e11b5f5260045260245ffd5b9091506020813d602011612064575b8161204360209383611898565b810103126101bd57516001600160e01b0319811681036101bd57905f611f9e565b3d9150612036565b611997906020808095946040519684889551918291018487015e8401908282015f8152815193849201905e01015f815203601f198101845283611898565b6120b381611d94565b50805f527f0542a41881ee128a365a727b282c86fa859579490b9bb45aab8503648c8e790060205260405f2060405190815f8254926120f184611928565b808452936001811690811561232b57506001146122e7575b5061211692500382611898565b61211e611960565b8051156122e15781516122d757505061213681611d94565b5061213f611960565b8051909190156122c15780815f9272184f03e93ff9f4daa797ed6e38ed64bf6a1f0160401b81101561229b575b50806d04ee2d6d415b85acef8100000000600a921015612280575b662386f26fc1000081101561226c575b6305f5e10081101561225b575b61271081101561224c575b606481101561223e575b1015612233575b600a602160018401936121d2856118b9565b946121e06040519687611898565b8086526121ef601f19916118b9565b013660208701378401015b5f1901916f181899199a1a9b1b9c1cb0b131b232b360811b8282061a83530490811561222857600a906121fa565b50506119259161206c565b6001909101906121c0565b6064600291049301926121b9565b612710600491049301926121af565b6305f5e100600891049301926121a4565b662386f26fc1000060109104930192612197565b6d04ee2d6d415b85acef810000000060209104930192612187565b6040935072184f03e93ff9f4daa797ed6e38ed64bf6a1f0160401b90049050600a61216c565b50506040516122d1602082611898565b5f815290565b611925925061206c565b50905090565b90505f9291925260205f20905f915b81831061230f575050906020612116928201015f612109565b60209193508060019154838588010152019101909183926122f6565b90506020925061211694915060ff191682840152151560051b8201015f612109565b60ff5f5160206127da5f395f51905f52541661236557565b63d93c066560e01b5f5260045ffd5b90602090604051906123868383611898565b5f82526001600160a01b038416938415611b91576123a261234d565b6123ab826126ec565b6001600160a01b03811680151591908490889084612549575b6123cd86611ba4565b805460010190555f8381525f5160206127fa5f395f51905f528a526040812080546001600160a01b031916841790557fddf252ad1be2c89b69c2b068fc378daa952ba7f163c4a11628f55a4df523b3ef9080a450612536573b612431575b50505050565b9161246e91819495936040519384928392630a85bd0160e11b84523360048501525f6024850152604484015260806064840152608483019061181f565b03815f885af15f91816124f6575b506124d15750503d156124c9573d90612494826118b9565b916124a26040519384611898565b82523d5f8284013e5b815191826124c65783633250574960e11b5f5260045260245ffd5b01fd5b6060906124ab565b909291506001600160e01b03191663757a42ff60e11b0161201557505f80808061242b565b9091508381813d831161252f575b61250e8183611898565b810103126101bd57516001600160e01b0319811681036101bd57905f61247c565b503d612504565b6339e3563760e11b5f525f60045260245ffd5b61255283612712565b61255b84611ba4565b80545f190190556123c4565b919091805f527f0542a41881ee128a365a727b282c86fa859579490b9bb45aab8503648c8e790060205260405f2083516001600160401b0381116103b2576125af8254611928565b601f81116126a7575b506020601f821160011461261f57908060209493927ff8e1a15aba9398e019f0b49df1a4fde98ee17ae345cb5f6b5e2c27f5033e8ce796975f92612614575b50508160011b915f199060031b1c19161790555b604051908152a1565b015190505f806125f7565b601f19821695835f52815f20965f5b81811061268f575096600192849260209796957ff8e1a15aba9398e019f0b49df1a4fde98ee17ae345cb5f6b5e2c27f5033e8ce7999a10612677575b505050811b01905561260b565b01515f1960f88460031b161c191690555f808061266a565b8383015189556001909801976020938401930161262e565b825f5260205f20601f830160051c810191602084106126e2575b601f0160051c01905b8181106126d757506125b8565b5f81556001016126ca565b90915081906126c1565b5f9081525f5160206127fa5f395f51905f5260205260409020546001600160a01b031690565b5f527f80bb2b638cc20bc4d0a60d66940f3ab4a00c1d7b313497ca82fb0b4ab007930460205260405f206001600160601b0360a01b8154169055565b60ff5f51602061281a5f395f51905f525460401c161561276a57565b631afcd79f60e31b5f5260045ffdfec2575a0e9e593c00f959f8c92f12db2869c3395a3b0502d05e2516446f71f85b80bb2b638cc20bc4d0a60d66940f3ab4a00c1d7b313497ca82fb0b4ab00793009016d09d72d40fdae2fd8ceac6b6234c7706214fd39c1cd1e609a0528c199300cd5ed15c6e187e77e9aee88184c21f4f2182ab5827cb3b7e07fbedcd63f0330080bb2b638cc20bc4d0a60d66940f3ab4a00c1d7b313497ca82fb0b4ab0079302f0c57e16840df040f15088dc2f81fe391c3923bec73e23a9662efc9c229c6a0080bb2b638cc20bc4d0a60d66940f3ab4a00c1d7b313497ca82fb0b4ab007930137c58c799b6609234b945e882912ee9ad34948a1dfaa20a97485e1a7752bbf81a264697066735822122006706b76028d18409b1a206d2545161b1b468c4603bfcb70dbcdee0d729eece164736f6c634300081c0033f0c57e16840df040f15088dc2f81fe391c3923bec73e23a9662efc9c229c6a006080806040523460aa575f5160206129525f395f51905f525460ff8160401c16609b576002600160401b03196001600160401b038216016049575b6040516128a390816100af8239f35b6001600160401b0319166001600160401b039081175f5160206129525f395f51905f525581527fc7f505b2f371ae2175ee4913f4499e1f2633a7b5936321eed1cdaeb6115181d290602090a15f80603a565b63f92ee8a960e01b5f5260045ffd5b5f80fdfe60806040526004361015610011575f80fd5b5f3560e01c80624221f0146101fd578062fdd58e146101f857806301ffc9a7146101f357806304634d8d146101ee57806306fdde03146101e95780630e89341c146101b2578063156e29f6146101e457806318160ddd146101df5780632a55205a146101da5780632eb2c2d6146101d55780633f4ba83a146101d05780634e1273f4146101cb5780634f558e79146101c65780635944c753146101c15780635c975abb146101bc5780636b20c454146101b75780636c8b703f146101b2578063715018a6146101ad5780638456cb59146101a8578063862440e2146101a35780638da5cb5b1461019e57806395d89b4114610199578063a22cb46514610194578063bd85b0391461018f578063bfe835471461018a578063d81d0a1514610185578063e2a6a37e14610180578063e985e9c51461017b578063f242432a14610176578063f2fde38b146101715763f5298aca1461016c575f80fd5b6114c1565b611498565b6113df565b6113a2565b61130f565b6112b4565b611198565b611162565b6110d1565b611007565b610fd3565b610e3a565b610dc9565b610d62565b6105d1565b610cc4565b610c39565b610b09565b610ad1565b610a12565b610950565b6108c6565b61070a565b6106e1565b610625565b61059d565b6103d2565b61031d565b6102b6565b61021c565b5f525f5160206127ee5f395f51905f5260205260405f2090565b34610246576020366003190112610246576004355f526004602052602060405f2054604051908152f35b5f80fd5b600435906001600160a01b038216820361024657565b602435906001600160a01b038216820361024657565b606435906001600160a01b038216820361024657565b608435906001600160a01b038216820361024657565b35906001600160a01b038216820361024657565b346102465760403660031901126102465760206103026102d461024a565b6024355f525f5160206127ae5f395f51905f52835260405f209060018060a01b03165f5260205260405f2090565b54604051908152f35b6001600160e01b031981160361024657565b346102465760203660031901126102465760043561033a8161030b565b63ffffffff60e01b1663152a902d60e11b8114908115610363575b506040519015158152602090f35b636cdb3d1360e11b811491508115610395575b8115610384575b505f610355565b6301ffc9a760e01b1490505f61037d565b6303a24d0760e21b81149150610376565b604435906001600160601b038216820361024657565b60a435906001600160601b038216820361024657565b34610246576040366003190112610246576103eb61024a565b602435906001600160601b03821691828103610246577f8039bd6e4e7dba001c8840eb2e118d9d131246faa7d0d04335f7305127ec0b1091610440602092610431611e08565b61043a81611e3b565b82611e50565b6040519384526001600160a01b031692a2005b90600182811c92168015610481575b602083101461046d57565b634e487b7160e01b5f52602260045260245ffd5b91607f1691610462565b634e487b7160e01b5f52604160045260245ffd5b90601f801991011681019081106001600160401b038211176104c057604052565b61048b565b9060405191825f8254926104d884610453565b808452936001811690811561054357506001146104ff575b506104fd9250038361049f565b565b90505f9291925260205f20905f915b8183106105275750509060206104fd928201015f6104f0565b602091935080600191548385890101520191019091849261050e565b9050602092506104fd94915060ff191682840152151560051b8201015f6104f0565b805180835260209291819084018484015e5f828201840152601f01601f1916010190565b90602061059a928181520190610565565b90565b34610246575f366003190112610246576105cd6105b95f6104c5565b604051918291602083526020830190610565565b0390f35b34610246576020366003190112610246576004355f5260036020526105cd6105b960405f206104c5565b6060906003190112610246576004356001600160a01b038116810361024657906024359060443590565b3461024657610633366105fb565b61063e929192611e08565b610646611efd565b821580156106d6575b6106c357825f52600460205260405f2054928361067c575b61067a93506106746115ce565b92611f24565b005b805f525f5160206127ee5f395f51905f5260205260405f205493806106a184876115c1565b116106ac5750610667565b635e4e36a960e11b5f52600485905260245260445ffd5b8263c927e5bf60e01b5f5260045260245ffd5b50600254831161064f565b34610246575f3660031901126102465760205f51602061280e5f395f51905f5254604051908152f35b34610246576040366003190112610246576004355f9081527fdaedc9ab023613a7caf35e703657e986ccfad7e3eb0af93a2853f8d65dd86b0160205260409020546001600160a01b038116906024359060a01c82156107ad575b6001600160601b0316908181029181830414901517156107a85761078b90612710906115e2565b604080516001600160a01b03939093168352602083019190915290f35b6115ad565b507fdaedc9ab023613a7caf35e703657e986ccfad7e3eb0af93a2853f8d65dd86b00546001600160a01b038116925060a01c610764565b604051906104fd60408361049f565b6001600160401b0381116104c05760051b60200190565b9080601f83011215610246578135610821816107f3565b9261082f604051948561049f565b81845260208085019260051b82010192831161024657602001905b8282106108575750505090565b813581526020918201910161084a565b6001600160401b0381116104c057601f01601f191660200190565b81601f820112156102465760208135910161089c82610867565b926108aa604051948561049f565b8284528282011161024657815f92602092838601378301015290565b346102465760a0366003190112610246576108df61024a565b6108e7610260565b906044356001600160401b0381116102465761090790369060040161080a565b6064356001600160401b0381116102465761092690369060040161080a565b90608435936001600160401b0385116102465761094a61067a953690600401610882565b93611600565b34610246575f36600319011261024657610968611e08565b5f5160206127ce5f395f51905f525460ff8116156109bf5760ff19165f5160206127ce5f395f51905f52557f5db9ee0a495bf2e6ff9c91a7834c1ba4fdd244a5e8aa4e537bd38aeae4b073aa6020604051338152a1005b638dfc202b60e01b5f5260045ffd5b90602080835192838152019201905f5b8181106109eb5750505090565b82518452602093840193909201916001016109de565b90602061059a9281815201906109ce565b34610246576040366003190112610246576004356001600160401b038111610246573660238201121561024657806004013590610a4e826107f3565b91610a5c604051938461049f565b8083526024602084019160051b8301019136831161024657602401905b828210610ab957836024356001600160401b038111610246576105cd91610aa7610aad92369060040161080a565b90611679565b60405191829182610a01565b60208091610ac6846102a2565b815201910190610a79565b34610246576020366003190112610246576004355f525f5160206127ee5f395f51905f52602052602060405f20541515604051908152f35b3461024657606036600319011261024657600435610b25610260565b610b2d6103a6565b610b35611e08565b6001600160601b0381166103e88111610c21576127108111610c0557506001600160a01b03821615610bec5761067a92610b96610bc392610b86610b776107e4565b6001600160a01b039096168652565b6001600160601b03166020850152565b5f527fdaedc9ab023613a7caf35e703657e986ccfad7e3eb0af93a2853f8d65dd86b0160205260405f2090565b815160209092015160a01b6001600160a01b0319166001600160a01b0392909216919091179055565b634b4f842960e11b5f908152600484905260245260445ffd5b8363dfd1fc1b60e01b5f5260045260245261271060445260645ffd5b63086b5d3b60e21b5f526004526103e860245260445ffd5b34610246575f36600319011261024657602060ff5f5160206127ce5f395f51905f5254166040519015158152f35b6060600319820112610246576004356001600160a01b038116810361024657916024356001600160401b0381116102465782610ca59160040161080a565b91604435906001600160401b0382116102465761059a9160040161080a565b3461024657610cd236610c67565b9091906001600160a01b0382163381141580610d35575b610d1f5715610d0d5761067a9260405192610d0560208561049f565b5f8452611f7c565b626a0d4560e21b5f525f60045260245ffd5b63711bec9160e11b5f523360045260245260445ffd5b5060ff610d5a33610d4586611541565b9060018060a01b03165f5260205260405f2090565b541615610ce9565b34610246575f36600319011261024657610d7a611e08565b5f51602061278e5f395f51905f5280546001600160a01b031981169091555f906001600160a01b03167f8be0079c531659141344cd1fd0a4f28419497f9722a3daafe3b4186f6b6457e08280a3005b34610246575f36600319011261024657610de1611e08565b610de9611efd565b600160ff195f5160206127ce5f395f51905f525416175f5160206127ce5f395f51905f52557f62e78cea01bee320cd4e420270b5ea74000d11b0c9f74754ebdbfc544b05a2586020604051338152a1005b34610246576040366003190112610246576004356024356001600160401b03811161024657610e6d903690600401610882565b90610e76611e08565b80158015610fc8575b610fb657805f52600360205260405f20918051926001600160401b0384116104c057610eb584610eaf8354610453565b8361176a565b602093601f8111600114610f295790610f0a82610f1994937f931f495b9a8e5d8e61946ea5d61e021f636cfe213a801f97589c18c152e408bd96975f91610f1e575b508160011b915f199060031b1c19161790565b90555b60405191829182610589565b0390a2005b90508401515f610ef7565b601f198116610f3b835f5260205f2090565b905f5b818110610f9e5750916001917f931f495b9a8e5d8e61946ea5d61e021f636cfe213a801f97589c18c152e408bd969782610f1997969510610f86575b5050811b019055610f0d565b8501515f1960f88460031b161c191690555f80610f7a565b85880151835560209788019760019093019201610f3e565b63c927e5bf60e01b5f5260045260245ffd5b506002548111610e7f565b34610246575f366003190112610246575f51602061278e5f395f51905f52546040516001600160a01b039091168152602090f35b34610246575f366003190112610246576040515f60015461102781610453565b80845290600181169081156110ad575060011461104f575b6105cd83610f0d8185038261049f565b60015f9081527fb10e2d527612073b26eecdfd717e6a320cf44b4afac2b0732d9fcbe2b7fa0cf6939250905b80821061109357509091508101602001610f0d61103f565b91926001816020925483858801015201910190929161107b565b60ff191660208086019190915291151560051b84019091019150610f0d905061103f565b34610246576040366003190112610246576110ea61024a565b602435801515809103610246576001600160a01b0382169182156111505761111590610d4533611541565b60ff1981541660ff83161790556040519081527f17307eab39ab6107e8899845ad3d59bd9653f200f220920489ca2b5937696c3160203392a3005b62ced3e160e81b5f525f60045260245ffd5b34610246576020366003190112610246576004355f525f5160206127ee5f395f51905f52602052602060405f2054604051908152f35b34610246576060366003190112610246576004356024356001600160401b038111610246576111cb903690600401610882565b90604435916111d8611e08565b821515806112ab575b611295576002545f1981146107a8576105cd9361126a9360017ff329a7e3dd52d546799620351d1e35c98d33f0761697faaad6ecd142aa57b5e6930194859461122986600255565b6112448161123f885f52600360205260405f2090565b61196e565b83611257875f52600460205260405f2090565b558261127d575b60405193849384611a2d565b0390a26040519081529081906020820190565b6112906112886115ce565b848833611f24565b61125e565b50635e4e36a960e11b5f5260045260245260445ffd5b508282116111e1565b34610246576112c236610c67565b6112ca611e08565b6112d2611efd565b604051916112e160208461049f565b5f83526001600160a01b038416156112fc5761067a9361207f565b632bfa23e760e11b5f525f60045260245ffd5b346102465760c0366003190112610246576004356001600160401b0381116102465761133f903690600401610882565b6024356001600160401b0381116102465761135e903690600401610882565b90604435916001600160401b0383116102465761138261067a933690600401610882565b61138a610276565b9061139361028c565b9261139c6103bc565b94611a49565b3461024657604036600319011261024657602060ff6113d36113c261024a565b610d456113cd610260565b91611541565b54166040519015158152f35b346102465760a0366003190112610246576113f861024a565b611400610260565b60443590606435926084356001600160401b03811161024657611427903690600401610882565b926001600160a01b0382163381141580611487575b610d1f576001600160a01b038416156112fc5715610d0d5761067a9461147f60405192600184526020840152604083019160018352606084015260808301604052565b9290916121b0565b506114923384611d83565b1561143c565b346102465760203660031901126102465761067a6114b461024a565b6114bc611e08565b611d97565b34610246576114cf366105fb565b91906001600160a01b0382163381141580611529575b610d1f5715610d0d5761067a9261151960405192600184526020840152604083019160018352606084015260808301604052565b9060405192610d0560208561049f565b5060ff61153933610d4586611541565b5416156114e5565b6001600160a01b03165f9081527f88be536d5240c274a3b1d3a1be54482fd9caa294f08c62a7cde569f49a3c45016020526040902090565b6115a9915f525f5160206127ae5f395f51905f5260205260405f209060018060a01b03165f5260205260405f2090565b5490565b634e487b7160e01b5f52601160045260245ffd5b919082018092116107a857565b604051906115dd60208361049f565b5f8252565b81156115ec570490565b634e487b7160e01b5f52601260045260245ffd5b939291906001600160a01b0385163381141580611639575b610d1f576001600160a01b038216156112fc5715610d0d576104fd946121b0565b5060ff61164933610d4589611541565b541615611618565b80518210156116655760209160051b010190565b634e487b7160e01b5f52603260045260245ffd5b919091805183518082036116f9575050805190611695826107f3565b916116a3604051938461049f565b8083526116b2601f19916107f3565b013660208401375f5b81518110156116f257806116e160019260051b6020808287010151918901015190611579565b6116eb8286611651565b52016116bb565b5090925050565b635b05999160e01b5f5260045260245260445ffd5b601f811161171a575050565b5f51602061284e5f395f51905f525f5260205f20906020601f840160051c83019310611760575b601f0160051c01905b818110611755575050565b5f815560010161174a565b9091508190611741565b601f821161177757505050565b5f5260205f20906020601f840160051c830193106117af575b601f0160051c01905b8181106117a4575050565b5f8155600101611799565b9091508190611790565b9081516001600160401b0381116104c0576117de816117d85f54610453565b5f61176a565b602092601f821160011461181d5761180e929382915f92611812575b50508160011b915f199060031b1c19161790565b5f55565b015190505f806117fa565b5f8052601f198216937f290decd9548b62a8d60345a988386fc84ba6bc95484008f6362f93160ef3e563915f5b86811061187f5750836001959610611867575b505050811b015f55565b01515f1960f88460031b161c191690555f808061185d565b9192602060018192868501518155019401920161184a565b9081516001600160401b0381116104c0576118be816118b7600154610453565b600161176a565b602092601f82116001146118f2576118ed929382915f926118125750508160011b915f199060031b1c19161790565b600155565b60015f52601f198216937fb10e2d527612073b26eecdfd717e6a320cf44b4afac2b0732d9fcbe2b7fa0cf6915f5b868110611956575083600195961061193e575b505050811b01600155565b01515f1960f88460031b161c191690555f8080611933565b91926020600181928685015181550194019201611920565b91909182516001600160401b0381116104c0576119958161198f8454610453565b8461176a565b6020601f82116001146119c85781906119c49394955f926118125750508160011b915f199060031b1c19161790565b9055565b601f198216906119db845f5260205f2090565b915f5b818110611a15575095836001959697106119fd575b505050811b019055565b01515f1960f88460031b161c191690555f80806119f3565b9192602060018192868b0151815501940192016119de565b61059a9392606092825260208201528160408201520190610565565b9391949290945f51602061282e5f395f51905f5254956001600160401b03611a87611a7a60ff8a60401c1615151590565b986001600160401b031690565b1680159081611ba1575b6001149081611b97575b159081611b8e575b50611b7f57611ae69587611add60016001600160401b03195f51602061282e5f395f51905f525416175f51602061282e5f395f51905f5255565b611b4557611ba9565b611aec57565b611b1660ff60401b195f51602061282e5f395f51905f5254165f51602061282e5f395f51905f5255565b604051600181527fc7f505b2f371ae2175ee4913f4499e1f2633a7b5936321eed1cdaeb6115181d290602090a1565b611b7a6801000000000000000060ff60401b195f51602061282e5f395f51905f525416175f51602061282e5f395f51905f5255565b611ba9565b63f92ee8a960e01b5f5260045ffd5b9050155f611aa3565b303b159150611a9b565b889150611a91565b93949391929091906001600160a01b03811615611d7457611bc985611e3b565b6001600160601b0385161515938480611d63575b611d5457611be96122f8565b611bf16122f8565b8051906001600160401b0382116104c057611c2282611c1d5f51602061284e5f395f51905f5254610453565b61170e565b602090601f8311600114611cad5792611c5d83611c9c979694611c8a94611c97975f926118125750508160011b915f199060031b1c19161790565b5f51602061284e5f395f51905f52555b611c756122f8565b611c7d6122f8565b611c856122f8565b611f68565b611c926122f8565b6117b9565b611897565b611ca4575050565b6104fd91611e50565b5f51602061284e5f395f51905f525f52601f19831691907ff429cb5e2ec84cbb765e76b31964a56ccde03e7a6122d6cc4afb19edc55edeed925f5b818110611d3c575093611c8a93611c97969360019383611c9c9b9a9810611d24575b505050811b015f51602061284e5f395f51905f5255611c6d565b01515f1960f88460031b161c191690555f8080611d0a565b92936020600181928786015181550195019301611ce8565b63029529cb60e61b5f5260045ffd5b506001600160a01b03871615611bdd565b6332db94d160e21b5f5260045ffd5b60ff91610d45611d9292611541565b541690565b6001600160a01b03168015611df5575f51602061278e5f395f51905f5280546001600160a01b0319811683179091556001600160a01b03167f8be0079c531659141344cd1fd0a4f28419497f9722a3daafe3b4186f6b6457e05f80a3565b631e4fbdf760e01b5f525f60045260245ffd5b5f51602061278e5f395f51905f52546001600160a01b03163303611e2857565b63118cdaa760e01b5f523360045260245ffd5b6001600160601b03166103e88111610c215750565b906001600160601b0316906127108211611ee4576001600160a01b03811615611ed15760209160405191611e8560408461049f565b6001600160a01b039081168352928201819052905160a09190911b6001600160a01b0319169116177fdaedc9ab023613a7caf35e703657e986ccfad7e3eb0af93a2853f8d65dd86b0055565b635b6cc80560e11b5f525f60045260245ffd5b50636f483d0960e01b5f5260045261271060245260445ffd5b60ff5f5160206127ce5f395f51905f525416611f1557565b63d93c066560e01b5f5260045ffd5b919291906001600160a01b038216156112fc576104fd93611f6260405192600184526020840152604083019160018352606084015260808301604052565b9161207f565b6104fd90611f746122f8565b6114bc6122f8565b9091939250611f89611efd565b611f9584835f846125ac565b6001600160a01b031615612006575b5f805b8251821015611fdc576001908260051b90611fcd602080848a0101519387010151610202565b82815403905501910190611fa7565b9150506104fd9192505f51602061280e5f395f51905f5254035f51602061280e5f395f51905f5255565b5f805b825182101561204c576120446001918360051b90612032602080848b0101519388010151610202565b61203d8382546115c1565b90556115c1565b910190612009565b61207a9150612069905f51602061280e5f395f51905f52546115c1565b5f51602061280e5f395f51905f5255565b611fa4565b9391909161208b611efd565b6120978284875f6125ac565b5f94855b84518710156120cc576120c46001918860051b90612032602080848a010151938a010151610202565b96019561209b565b6120ed919594929650612069905f51602061280e5f395f51905f52546115c1565b6001600160a01b0384161580612142575b1561210a575b50505050565b8051600103612132579060208061212995930151910151915f336124e9565b5f808080612104565b61213d935f336123ba565b612129565b935f9591935f965b855188101561217f576001908860051b90612170602080848a010151938a010151610202565b8281540390550197019661214a565b6121ab91959397509591955f51602061280e5f395f51905f5254035f51602061280e5f395f51905f5255565b6120fe565b919392906121bc611efd565b6121c8828683866125ac565b6001600160a01b0383161561229a575b6001600160a01b038116158061222d575b156121f6575b5050505050565b845160010361221c5760208061221296015192015192336124e9565b5f808080806121ef565b612228949192336123ba565b612212565b94935f939091845b865186101561226a576001908660051b9061225b602080848a010151938b010151610202565b82815403905501950194612235565b612295919396979295505f51602061280e5f395f51905f5254035f51602061280e5f395f51905f5255565b6121e9565b93925f92835b85518510156122d1576122c96001918660051b90612032602080848a010151938b010151610202565b9401936122a0565b6122f391945061206990969295965f51602061280e5f395f51905f52546115c1565b6121d8565b60ff5f51602061282e5f395f51905f525460401c161561231457565b631afcd79f60e31b5f5260045ffd5b90816020910312610246575161059a8161030b565b6001600160a01b0391821681529116602082015260a06040820181905261059a949193919261237d929161236f91908601906109ce565b9084820360608601526109ce565b916080818403910152610565565b3d156123b5573d9061239c82610867565b916123aa604051938461049f565b82523d5f602084013e565b606090565b9091949293853b6123ce575b505050505050565b6020936123f091604051968795869563bc197c8160e01b875260048701612338565b03815f6001600160a01b0387165af15f918161247f575b50612441575061241561238b565b805191908261243a57632bfa23e760e11b5f526001600160a01b03821660045260245ffd5b6020915001fd5b6001600160e01b0319166343e6837f60e01b0161246457505f80808080806123c6565b632bfa23e760e11b5f526001600160a01b031660045260245ffd5b6124a291925060203d6020116124a9575b61249a818361049f565b810190612323565b905f612407565b503d612490565b6001600160a01b039182168152911660208201526040810191909152606081019190915260a06080820181905261059a92910190610565565b9091949293853b6124fc57505050505050565b60209361251e91604051968795869563f23a6e6160e01b8752600487016124b0565b03815f6001600160a01b0387165af15f9181612566575b50612543575061241561238b565b6001600160e01b031916630dc5919f60e01b0161246457505f80808080806123c6565b61258091925060203d6020116124a95761249a818361049f565b905f612535565b909161259e61059a936040845260408401906109ce565b9160208184039101526109ce565b93929180518351908181036127785750505f5b81518110156126d2578060051b90602080838501015192860101518460018060a01b03891661263b575b6001936001600160a01b038216612604575b505050016125bf565b61263191610d45612629925f525f5160206127ae5f395f51905f5260205260405f2090565b9182546115c1565b90555f84816125fb565b50909161266088610d45835f525f5160206127ae5f395f51905f5260205260405f2090565b5482811061269b578291600194938792036126938b610d45845f525f5160206127ae5f395f51905f5260205260405f2090565b5593506125e9565b6040516303dee4c560e01b81526001600160a01b038a16600482015260248101919091526044810183905260648101829052608490fd5b508051939493919291600103612735576020908101519181015160408051938452918301526001600160a01b03928316939092169133917fc3d58168c5ae7397731d063d5bbf3d657854427343f4c083240f7aacaa2d0f6291819081015b0390a4565b6040516001600160a01b03938416949093169233927f4a39dc06d4c0dbc64b70af90fd698a233a518aa5d07e595d983b8c0526c8f7fb9282916127309183612587565b635b05999160e01b5f5260045260245260445ffdfe9016d09d72d40fdae2fd8ceac6b6234c7706214fd39c1cd1e609a0528c19930088be536d5240c274a3b1d3a1be54482fd9caa294f08c62a7cde569f49a3c4500cd5ed15c6e187e77e9aee88184c21f4f2182ab5827cb3b7e07fbedcd63f033004a593662ee04d27b6a00ebb31be7fe0c102c2ade82a7c5d764f2df05dc4e28004a593662ee04d27b6a00ebb31be7fe0c102c2ade82a7c5d764f2df05dc4e2801f0c57e16840df040f15088dc2f81fe391c3923bec73e23a9662efc9c229c6a0088be536d5240c274a3b1d3a1be54482fd9caa294f08c62a7cde569f49a3c4502a26469706673582212207d6f55ea3ad8bbb07b77c4812e74a5b25d8be2965f4b76474eecd8871c8e0a5d64736f6c634300081c0033f0c57e16840df040f15088dc2f81fe391c3923bec73e23a9662efc9c229c6a00","linkReferences":{}},"methodIdentifiers":{"allCollections(uint256)":"167ef495","createCollection1155(string,string,string,address,uint96)":"d659afc0","createCollection721(string,string,address,uint96,uint256,string)":"d070d693","creationFee()":"dce0b4e4","creatorCollections(address,uint256)":"5cf7987c","isVertixCollection(address)":"0521b866","nft1155Implementation()":"d9eba5a2","nft721Implementation()":"db8d8e3d","roleManager()":"00435da5","setCreationFee(uint256)":"b7d86225","withdrawFees()":"476343ee"},"id":99}