{"abi":[{"type":"constructor","inputs":[{"name":"_marketplaceCore","type":"address","internalType":"address"},{"name":"_feeDistributor","type":"address","internalType":"address"},{"name":"_platformFeeBps","type":"uint256","internalType":"uint256"}],"stateMutability":"nonpayable"},{"type":"function","name":"calculatePaymentDistribution","inputs":[{"name":"nftContract","type":"address","internalType":"address"},{"name":"tokenId","type":"uint256","internalType":"uint256"},{"name":"salePrice","type":"uint256","internalType":"uint256"}],"outputs":[{"name":"platformFee","type":"uint256","internalType":"uint256"},{"name":"royaltyFee","type":"uint256","internalType":"uint256"},{"name":"sellerNet","type":"uint256","internalType":"uint256"},{"name":"royaltyReceiver","type":"address","internalType":"address"}],"stateMutability":"view"},{"type":"function","name":"executePurchase","inputs":[{"name":"buyer","type":"address","internalType":"address"},{"name":"seller","type":"address","internalType":"address"},{"name":"nftContract","type":"address","internalType":"address"},{"name":"tokenId","type":"uint256","internalType":"uint256"},{"name":"quantity","type":"uint256","internalType":"uint256"},{"name":"standard","type":"uint8","internalType":"enum AssetTypes.TokenStandard"}],"outputs":[],"stateMutability":"payable"},{"type":"function","name":"feeDistributor","inputs":[],"outputs":[{"name":"","type":"address","internalType":"contract FeeDistributor"}],"stateMutability":"view"},{"type":"function","name":"marketplaceCore","inputs":[],"outputs":[{"name":"","type":"address","internalType":"address"}],"stateMutability":"view"},{"type":"function","name":"platformFeeBps","inputs":[],"outputs":[{"name":"","type":"uint256","internalType":"uint256"}],"stateMutability":"view"},{"type":"event","name":"NFTTransferred","inputs":[{"name":"nftContract","type":"address","indexed":true,"internalType":"address"},{"name":"tokenId","type":"uint256","indexed":true,"internalType":"uint256"},{"name":"from","type":"address","indexed":true,"internalType":"address"},{"name":"to","type":"address","indexed":false,"internalType":"address"},{"name":"quantity","type":"uint256","indexed":false,"internalType":"uint256"}],"anonymous":false},{"type":"event","name":"PaymentDistributed","inputs":[{"name":"seller","type":"address","indexed":true,"internalType":"address"},{"name":"sellerNet","type":"uint256","indexed":false,"internalType":"uint256"},{"name":"platformFee","type":"uint256","indexed":false,"internalType":"uint256"},{"name":"royaltyReceiver","type":"address","indexed":false,"internalType":"address"},{"name":"royaltyAmount","type":"uint256","indexed":false,"internalType":"uint256"}],"anonymous":false},{"type":"error","name":"InsufficientOwnership","inputs":[]},{"type":"error","name":"InvalidBasisPoints","inputs":[{"name":"bps","type":"uint256","internalType":"uint256"}]},{"type":"error","name":"InvalidFeeDistributor","inputs":[]},{"type":"error","name":"InvalidMarketplaceCore","inputs":[]},{"type":"error","name":"InvalidNFTContract","inputs":[]},{"type":"error","name":"InvalidNFTOwner","inputs":[{"name":"nftContract","type":"address","internalType":"address"},{"name":"tokenId","type":"uint256","internalType":"uint256"},{"name":"expected","type":"address","internalType":"address"},{"name":"actual","type":"address","internalType":"address"}]},{"type":"error","name":"NFTNotApproved","inputs":[{"name":"nftContract","type":"address","internalType":"address"},{"name":"owner","type":"address","internalType":"address"},{"name":"operator","type":"address","internalType":"address"}]},{"type":"error","name":"NFTTransferFailed","inputs":[{"name":"nftContract","type":"address","internalType":"address"},{"name":"from","type":"address","internalType":"address"},{"name":"to","type":"address","internalType":"address"},{"name":"tokenId","type":"uint256","internalType":"uint256"}]},{"type":"error","name":"NotApproved","inputs":[]},{"type":"error","name":"OnlyMarketplaceCore","inputs":[]},{"type":"error","name":"PercentageTooHigh","inputs":[{"name":"provided","type":"uint256","internalType":"uint256"},{"name":"maximum","type":"uint256","internalType":"uint256"}]},{"type":"error","name":"ReentrancyGuardReentrantCall","inputs":[]},{"type":"error","name":"TransferFailed","inputs":[{"name":"recipient","type":"address","internalType":"address"},{"name":"amount","type":"uint256","internalType":"uint256"}]},{"type":"error","name":"TransferFailed","inputs":[{"name":"recipient","type":"address","internalType":"address"},{"name":"amount","type":"uint256","internalType":"uint256"}]}],"bytecode":{"object":"0x60e03461012657601f610b4f38819003918201601f19168301916001600160401b0383118484101761012a57808492606094604052833981010312610126576100478161013e565b60406100556020840161013e565b92015160015f55916001600160a01b03821615610117576001600160a01b03169081156101085761271083116100f5576103e883116100dc5760805260a05260c0526040516109fc9081610153823960805181818161014101526106fb015260a0518181816103400152610776015260c05181818160830152818161021901526107410152f35b8263edff465960e01b5f526004526103e860245260445ffd5b82630cbf8cb160e11b5f5260045260245ffd5b635ebbf94b60e01b5f5260045ffd5b63ee51c59f60e01b5f5260045ffd5b5f80fd5b634e487b7160e01b5f52604160045260245ffd5b51906001600160a01b03821682036101265756fe6080806040526004361015610012575f80fd5b5f905f3560e01c9081630d43e8ad146107645750806322dcd13e1461072a578063287b19ed146106e657806342d25a65146100e95763a043e75114610055575f80fd5b346100e65760603660031901126100e65760806100706107a5565b60443580916100c36100be6100b46100a87f000000000000000000000000000000000000000000000000000000000000000086610873565b958694602435906108a7565b93849291956107bb565b6107bb565b604080519485526020850192909252908301526001600160a01b03166060820152f35b80fd5b5060c0366003190112610487576100fe6107a5565b60243591906001600160a01b0383169081840361048757604435926001600160a01b0384169283850361048757606435936084359060a4356002811015610487577f00000000000000000000000000000000000000000000000000000000000000006001600160a01b031633036106d75760025f54146106c85760025f5581156106b95715918215610619576040516331a9108f60e11b815260048101889052602081602481865afa90811561051d575f916105df575b506001600160a01b03168481036105b557505b82156105575760405163e985e9c560e01b81526001600160a01b038a166004820152306024820152602081604481865afa90811561051d575f91610528575b5080156104a6575b1561048b5761023e7f000000000000000000000000000000000000000000000000000000000000000034610873565b61024934898b6108a7565b93909261025a856100be85346107bb565b95156103df57813b156103db57604051632142170760e11b8152600481018890526001600160a01b038a166024820152604481018b905288808260648183885af191826103c2575b50506102e057604051635296d7a560e01b81526001600160a01b038c811660048301528d811660248301528a166044820152606481018b9052608490fd5b869a507fcc80e2e91dd859b5992b9528238740de3934adfdaeeb140b349d66bbaed222e29060809961033a887fcfbc11b4278742e3aa9fda64af9e01cd01f3892704baaadd1763b303397178359d96989a97999b9f610951565b61036d877f00000000000000000000000000000000000000000000000000000000000000006001600160a01b0316610951565b886103b3575b604080516001600160a01b039290921682526020820192909252a4604051938452602084015260018060a01b031660408301526060820152a26001815580f35b6103bd8989610951565b610373565b816103cc916107dc565b6103d757885f6102a2565b8880fd5b8780fd5b813b1561048757604051637921219560e11b8152600481018890526001600160a01b038a166024820152604481018b90526064810182905260a060848201525f60a482018190528160c48183875af19081610472575b506102e057604051635296d7a560e01b81526001600160a01b038c811660048301528d811660248301528a166044820152606481018b9052608490fd5b61047f9199505f906107dc565b5f975f610435565b5f80fd5b8382632dbe67c560e01b5f526004526024523060445260645ffd5b5060405163020604bf60e21b815260048101889052602081602481865afa90811561051d575f916104e3575b506001600160a01b0316301461020f565b90506020813d602011610515575b816104fe602093836107dc565b810103126104875761050f90610812565b5f6104d2565b3d91506104f1565b6040513d5f823e3d90fd5b61054a915060203d602011610550575b61054281836107dc565b810190610826565b5f610207565b503d610538565b60405163e985e9c560e01b81526001600160a01b038a166004820152306024820152602081604481865afa90811561051d575f91610596575b5061020f565b6105af915060203d6020116105505761054281836107dc565b5f610590565b82608491868a6040519363d001e0d560e01b85526004850152602484015260448301526064820152fd5b90506020813d602011610611575b816105fa602093836107dc565b810103126104875761060b90610812565b5f6101b5565b3d91506105ed565b604051627eeac760e11b81526001600160a01b038a16600482015260248101889052602081604481865afa801561051d5782915f91610684575b5010156101c85760848285896040519263d001e0d560e01b84526004840152602483015260448201525f6064820152fd5b9150506020813d6020116106b1575b816106a0602093836107dc565b81010312610487578190515f610653565b3d9150610693565b63f8af67e560e01b5f5260045ffd5b633ee5aeb560e01b5f5260045ffd5b633e40bbed60e01b5f5260045ffd5b34610487575f366003190112610487576040517f00000000000000000000000000000000000000000000000000000000000000006001600160a01b03168152602090f35b34610487575f3660031901126104875760206040517f00000000000000000000000000000000000000000000000000000000000000008152f35b34610487575f366003190112610487577f00000000000000000000000000000000000000000000000000000000000000006001600160a01b03168152602090f35b600435906001600160a01b038216820361048757565b919082039182116107c857565b634e487b7160e01b5f52601160045260245ffd5b90601f8019910116810190811067ffffffffffffffff8211176107fe57604052565b634e487b7160e01b5f52604160045260245ffd5b51906001600160a01b038216820361048757565b90816020910312610487575180151581036104875790565b801580801561086c575b610866576103e882029182046103e81417156107c857612710900490565b50505f90565b505f610848565b9081159081801561089f575b610898578083029283041417156107c857612710900490565b5050505f90565b50801561087f565b6040805163152a902d60e11b815260048101939093526024830184905292939290829060449082906001600160a01b03165afa805f925f9261090f575b506108f357505090505f905f90565b6108fd819461083e565b80911161090957509190565b90925090565b925090506040823d604011610949575b8161092c604093836107dc565b8101031261048757602061093f83610812565b920151905f6108e4565b3d915061091f565b81156109c2575f80808085855af13d156109bd573d67ffffffffffffffff81116107fe576040519061098d601f8201601f1916602001836107dc565b81525f60203d92013e5b156109a0575050565b630e21dcbb60e11b5f5260018060a01b031660045260245260445ffd5b610997565b505056fea2646970667358221220be9f1c6d80d2503a47b2fe82a0203582cbbba9ddb925a7a31f54f014acf6fd6264736f6c634300081c0033","linkReferences":{}},"methodIdentifiers":{"calculatePaymentDistribution(address,uint256,uint256)":"a043e751","executePurchase(address,address,address,uint256,uint256,uint8)":"42d25a65","feeDistributor()":"0d43e8ad","marketplaceCore()":"287b19ed","platformFeeBps()":"22dcd13e"},"id":100}