{"abi":[{"type":"constructor","inputs":[{"name":"_roleManager","type":"address","internalType":"address"},{"name":"_feeDistributor","type":"address","internalType":"address"},{"name":"_marketplace","type":"address","internalType":"address"},{"name":"_escrowManager","type":"address","internalType":"address"},{"name":"_platformFeeBps","type":"uint256","internalType":"uint256"}],"stateMutability":"nonpayable"},{"type":"function","name":"MAX_BATCH_CANCEL_SIZE","inputs":[],"outputs":[{"name":"","type":"uint256","internalType":"uint256"}],"stateMutability":"view"},{"type":"function","name":"MIN_OFFER_AMOUNT","inputs":[],"outputs":[{"name":"","type":"uint256","internalType":"uint256"}],"stateMutability":"view"},{"type":"function","name":"acceptOffer","inputs":[{"name":"offerId","type":"uint256","internalType":"uint256"}],"outputs":[],"stateMutability":"nonpayable"},{"type":"function","name":"batchCancelOffers","inputs":[{"name":"offerIds","type":"uint256[]","internalType":"uint256[]"}],"outputs":[],"stateMutability":"nonpayable"},{"type":"function","name":"buyerOffers","inputs":[{"name":"","type":"address","internalType":"address"},{"name":"","type":"uint256","internalType":"uint256"}],"outputs":[{"name":"","type":"uint256","internalType":"uint256"}],"stateMutability":"view"},{"type":"function","name":"cancelOffer","inputs":[{"name":"offerId","type":"uint256","internalType":"uint256"}],"outputs":[],"stateMutability":"nonpayable"},{"type":"function","name":"claimExpiredOffer","inputs":[{"name":"offerId","type":"uint256","internalType":"uint256"}],"outputs":[],"stateMutability":"nonpayable"},{"type":"function","name":"claimFailedRefund","inputs":[{"name":"offerId","type":"uint256","internalType":"uint256"}],"outputs":[],"stateMutability":"nonpayable"},{"type":"function","name":"claimRefundForInvalidOffer","inputs":[{"name":"offerId","type":"uint256","internalType":"uint256"}],"outputs":[],"stateMutability":"nonpayable"},{"type":"function","name":"escrowManager","inputs":[],"outputs":[{"name":"","type":"address","internalType":"contract IEscrowManager"}],"stateMutability":"view"},{"type":"function","name":"feeDistributor","inputs":[],"outputs":[{"name":"","type":"address","internalType":"contract FeeDistributor"}],"stateMutability":"view"},{"type":"function","name":"getActiveListingOffers","inputs":[{"name":"listingId","type":"uint256","internalType":"uint256"}],"outputs":[{"name":"","type":"uint256[]","internalType":"uint256[]"}],"stateMutability":"view"},{"type":"function","name":"getBuyerOffers","inputs":[{"name":"buyer","type":"address","internalType":"address"}],"outputs":[{"name":"","type":"uint256[]","internalType":"uint256[]"}],"stateMutability":"view"},{"type":"function","name":"getListingOffers","inputs":[{"name":"listingId","type":"uint256","internalType":"uint256"}],"outputs":[{"name":"","type":"uint256[]","internalType":"uint256[]"}],"stateMutability":"view"},{"type":"function","name":"getOffer","inputs":[{"name":"offerId","type":"uint256","internalType":"uint256"}],"outputs":[{"name":"","type":"tuple","internalType":"struct IOfferManager.Offer","components":[{"name":"buyer","type":"address","internalType":"address"},{"name":"amount","type":"uint96","internalType":"uint96"},{"name":"seller","type":"address","internalType":"address"},{"name":"createdAt","type":"uint32","internalType":"uint32"},{"name":"expiresAt","type":"uint32","internalType":"uint32"},{"name":"active","type":"bool","internalType":"bool"},{"name":"accepted","type":"bool","internalType":"bool"},{"name":"listingId","type":"uint256","internalType":"uint256"},{"name":"assetType","type":"uint8","internalType":"enum AssetTypes.AssetType"}]}],"stateMutability":"view"},{"type":"function","name":"getSellerOffers","inputs":[{"name":"seller","type":"address","internalType":"address"}],"outputs":[{"name":"","type":"uint256[]","internalType":"uint256[]"}],"stateMutability":"view"},{"type":"function","name":"hasOfferExpired","inputs":[{"name":"offerId","type":"uint256","internalType":"uint256"}],"outputs":[{"name":"","type":"bool","internalType":"bool"}],"stateMutability":"view"},{"type":"function","name":"isOfferActive","inputs":[{"name":"offerId","type":"uint256","internalType":"uint256"}],"outputs":[{"name":"","type":"bool","internalType":"bool"}],"stateMutability":"view"},{"type":"function","name":"listingOffers","inputs":[{"name":"","type":"uint256","internalType":"uint256"},{"name":"","type":"uint256","internalType":"uint256"}],"outputs":[{"name":"","type":"uint256","internalType":"uint256"}],"stateMutability":"view"},{"type":"function","name":"makeOffer","inputs":[{"name":"listingId","type":"uint256","internalType":"uint256"},{"name":"duration","type":"uint256","internalType":"uint256"}],"outputs":[{"name":"offerId","type":"uint256","internalType":"uint256"}],"stateMutability":"payable"},{"type":"function","name":"marketplace","inputs":[],"outputs":[{"name":"","type":"address","internalType":"contract IMarketplace"}],"stateMutability":"view"},{"type":"function","name":"offerCounter","inputs":[],"outputs":[{"name":"","type":"uint256","internalType":"uint256"}],"stateMutability":"view"},{"type":"function","name":"offerRefundAvailable","inputs":[{"name":"","type":"uint256","internalType":"uint256"}],"outputs":[{"name":"","type":"bool","internalType":"bool"}],"stateMutability":"view"},{"type":"function","name":"offers","inputs":[{"name":"","type":"uint256","internalType":"uint256"}],"outputs":[{"name":"buyer","type":"address","internalType":"address"},{"name":"amount","type":"uint96","internalType":"uint96"},{"name":"seller","type":"address","internalType":"address"},{"name":"createdAt","type":"uint32","internalType":"uint32"},{"name":"expiresAt","type":"uint32","internalType":"uint32"},{"name":"active","type":"bool","internalType":"bool"},{"name":"accepted","type":"bool","internalType":"bool"},{"name":"listingId","type":"uint256","internalType":"uint256"},{"name":"assetType","type":"uint8","internalType":"enum AssetTypes.AssetType"}],"stateMutability":"view"},{"type":"function","name":"pause","inputs":[],"outputs":[],"stateMutability":"nonpayable"},{"type":"function","name":"paused","inputs":[],"outputs":[{"name":"","type":"bool","internalType":"bool"}],"stateMutability":"view"},{"type":"function","name":"platformFeeBps","inputs":[],"outputs":[{"name":"","type":"uint256","internalType":"uint256"}],"stateMutability":"view"},{"type":"function","name":"rejectOffer","inputs":[{"name":"offerId","type":"uint256","internalType":"uint256"},{"name":"reason","type":"string","internalType":"string"}],"outputs":[],"stateMutability":"nonpayable"},{"type":"function","name":"roleManager","inputs":[],"outputs":[{"name":"","type":"address","internalType":"contract RoleManager"}],"stateMutability":"view"},{"type":"function","name":"sellerOffers","inputs":[{"name":"","type":"address","internalType":"address"},{"name":"","type":"uint256","internalType":"uint256"}],"outputs":[{"name":"","type":"uint256","internalType":"uint256"}],"stateMutability":"view"},{"type":"function","name":"unpause","inputs":[],"outputs":[],"stateMutability":"nonpayable"},{"type":"function","name":"updatePlatformFee","inputs":[{"name":"newFeeBps","type":"uint256","internalType":"uint256"}],"outputs":[],"stateMutability":"nonpayable"},{"type":"event","name":"OfferAccepted","inputs":[{"name":"offerId","type":"uint256","indexed":true,"internalType":"uint256"},{"name":"listingId","type":"uint256","indexed":true,"internalType":"uint256"},{"name":"seller","type":"address","indexed":true,"internalType":"address"},{"name":"buyer","type":"address","indexed":false,"internalType":"address"},{"name":"amount","type":"uint256","indexed":false,"internalType":"uint256"}],"anonymous":false},{"type":"event","name":"OfferCancelled","inputs":[{"name":"offerId","type":"uint256","indexed":true,"internalType":"uint256"},{"name":"listingId","type":"uint256","indexed":true,"internalType":"uint256"},{"name":"buyer","type":"address","indexed":true,"internalType":"address"},{"name":"refundAmount","type":"uint256","indexed":false,"internalType":"uint256"}],"anonymous":false},{"type":"event","name":"OfferExpired","inputs":[{"name":"offerId","type":"uint256","indexed":true,"internalType":"uint256"},{"name":"listingId","type":"uint256","indexed":true,"internalType":"uint256"},{"name":"buyer","type":"address","indexed":true,"internalType":"address"}],"anonymous":false},{"type":"event","name":"OfferInvalidated","inputs":[{"name":"offerId","type":"uint256","indexed":true,"internalType":"uint256"},{"name":"listingId","type":"uint256","indexed":true,"internalType":"uint256"},{"name":"buyer","type":"address","indexed":true,"internalType":"address"},{"name":"amount","type":"uint256","indexed":false,"internalType":"uint256"}],"anonymous":false},{"type":"event","name":"OfferMade","inputs":[{"name":"offerId","type":"uint256","indexed":true,"internalType":"uint256"},{"name":"listingId","type":"uint256","indexed":true,"internalType":"uint256"},{"name":"buyer","type":"address","indexed":true,"internalType":"address"},{"name":"seller","type":"address","indexed":false,"internalType":"address"},{"name":"amount","type":"uint256","indexed":false,"internalType":"uint256"},{"name":"expiresAt","type":"uint256","indexed":false,"internalType":"uint256"},{"name":"assetType","type":"uint8","indexed":false,"internalType":"enum AssetTypes.AssetType"}],"anonymous":false},{"type":"event","name":"OfferRefunded","inputs":[{"name":"offerId","type":"uint256","indexed":true,"internalType":"uint256"},{"name":"buyer","type":"address","indexed":true,"internalType":"address"},{"name":"amount","type":"uint256","indexed":false,"internalType":"uint256"}],"anonymous":false},{"type":"event","name":"OfferRejected","inputs":[{"name":"offerId","type":"uint256","indexed":true,"internalType":"uint256"},{"name":"listingId","type":"uint256","indexed":true,"internalType":"uint256"},{"name":"seller","type":"address","indexed":true,"internalType":"address"},{"name":"buyer","type":"address","indexed":false,"internalType":"address"},{"name":"reason","type":"string","indexed":false,"internalType":"string"}],"anonymous":false},{"type":"event","name":"Paused","inputs":[{"name":"account","type":"address","indexed":false,"internalType":"address"}],"anonymous":false},{"type":"event","name":"PlatformFeeUpdated","inputs":[{"name":"oldFee","type":"uint256","indexed":false,"internalType":"uint256"},{"name":"newFee","type":"uint256","indexed":false,"internalType":"uint256"}],"anonymous":false},{"type":"event","name":"Unpaused","inputs":[{"name":"account","type":"address","indexed":false,"internalType":"address"}],"anonymous":false},{"type":"error","name":"BatchSizeTooLarge","inputs":[{"name":"provided","type":"uint256","internalType":"uint256"},{"name":"maximum","type":"uint256","internalType":"uint256"}]},{"type":"error","name":"CannotOfferOwnListing","inputs":[{"name":"buyer","type":"address","internalType":"address"}]},{"type":"error","name":"EnforcedPause","inputs":[]},{"type":"error","name":"ExpectedPause","inputs":[]},{"type":"error","name":"InsufficientOfferAmount","inputs":[]},{"type":"error","name":"InvalidBasisPoints","inputs":[{"name":"bps","type":"uint256","internalType":"uint256"}]},{"type":"error","name":"InvalidEscrowManager","inputs":[]},{"type":"error","name":"InvalidFeeDistributor","inputs":[]},{"type":"error","name":"InvalidListingId","inputs":[{"name":"listingId","type":"uint256","internalType":"uint256"}]},{"type":"error","name":"InvalidMarketplace","inputs":[]},{"type":"error","name":"InvalidOfferAmount","inputs":[{"name":"amount","type":"uint256","internalType":"uint256"}]},{"type":"error","name":"InvalidOfferDuration","inputs":[{"name":"duration","type":"uint256","internalType":"uint256"}]},{"type":"error","name":"InvalidOfferId","inputs":[{"name":"offerId","type":"uint256","internalType":"uint256"}]},{"type":"error","name":"InvalidRoleManager","inputs":[]},{"type":"error","name":"ListingAlreadySold","inputs":[{"name":"listingId","type":"uint256","internalType":"uint256"}]},{"type":"error","name":"ListingNotActive","inputs":[{"name":"listingId","type":"uint256","internalType":"uint256"}]},{"type":"error","name":"NFTNotApproved","inputs":[{"name":"nftContract","type":"address","internalType":"address"},{"name":"tokenId","type":"uint256","internalType":"uint256"}]},{"type":"error","name":"NoRefundAvailable","inputs":[{"name":"offerId","type":"uint256","internalType":"uint256"}]},{"type":"error","name":"NotAdmin","inputs":[{"name":"caller","type":"address","internalType":"address"}]},{"type":"error","name":"NotFeeManager","inputs":[{"name":"caller","type":"address","internalType":"address"}]},{"type":"error","name":"NotPauser","inputs":[{"name":"caller","type":"address","internalType":"address"}]},{"type":"error","name":"OfferAlreadyAccepted","inputs":[{"name":"offerId","type":"uint256","internalType":"uint256"}]},{"type":"error","name":"OfferExpiredError","inputs":[{"name":"offerId","type":"uint256","internalType":"uint256"},{"name":"expiresAt","type":"uint256","internalType":"uint256"}]},{"type":"error","name":"OfferNotActive","inputs":[{"name":"offerId","type":"uint256","internalType":"uint256"}]},{"type":"error","name":"PercentageTooHigh","inputs":[{"name":"provided","type":"uint256","internalType":"uint256"},{"name":"maximum","type":"uint256","internalType":"uint256"}]},{"type":"error","name":"ReentrancyGuardReentrantCall","inputs":[]},{"type":"error","name":"TransferFailed","inputs":[{"name":"recipient","type":"address","internalType":"address"},{"name":"amount","type":"uint256","internalType":"uint256"}]},{"type":"error","name":"TransferFailed","inputs":[{"name":"recipient","type":"address","internalType":"address"},{"name":"amount","type":"uint256","internalType":"uint256"}]},{"type":"error","name":"UnauthorizedBuyer","inputs":[{"name":"caller","type":"address","internalType":"address"},{"name":"buyer","type":"address","internalType":"address"}]},{"type":"error","name":"UnauthorizedSeller","inputs":[{"name":"caller","type":"address","internalType":"address"},{"name":"seller","type":"address","internalType":"address"}]}],"bytecode":{"object":"0x610100346101e057601f61295938819003918201601f19168301916001600160401b038311848410176101e45780849260a0946040528339810103126101e057610048816101f8565b90610055602082016101f8565b90610062604082016101f8565b916080610071606084016101f8565b92015160015f55936001600160a01b031680156101d1576080526001600160a01b03169182156101c2576001600160a01b03169081156101b3576001600160a01b03169182156101a4576127108411610191576103e8841161017857917fd347e206f25a89b917fc9482f1a2d294d749baa4dc9bde7fb495ee11fe491643939160409360a05260c05260e052806003558151905f82526020820152a160405161274c908161020d823960805181818161101e0152818161140101528181611aa801526120de015260a05181818161070c0152611cb0015260c05181818161059601528181610fca015281816115a70152611dac015260e051818181610b410152610f690152f35b8363edff465960e01b5f526004526103e860245260445ffd5b83630cbf8cb160e11b5f5260045260245ffd5b63bbd7b26560e01b5f5260045ffd5b63361e1c7760e01b5f5260045ffd5b635ebbf94b60e01b5f5260045ffd5b6309a53a6560e31b5f5260045ffd5b5f80fd5b634e487b7160e01b5f52604160045260245ffd5b51906001600160a01b03821682036101e05756fe6080806040526004361015610012575f80fd5b5f905f3560e01c908162435da5146120cc5750806305b7cdd314611d515780630ce89b0414611cdf5780630d43e8ad14611c9b57806320e33db814611c6c57806322dcd13e14611c4f5780632bce352a14611bdd5780633f4ba83a14611a895780634579268a1461198d5780634701deb2146118b55780634f42db5c146118975780635c975abb1461187557806369bd7dbb146117065780637e930a5c146116bd57806382f9e8e6146115285780638456cb59146113e25780638a72ea6a146113385780638b577c24146113095780638ec5c944146112e857806394b3814a14611195578063987257601461117a578063aa0b598814610ff9578063abc8c7af14610fb5578063b7a3c1da14610f98578063c12255c414610f54578063c35649af14610e7c578063c815729d146104f9578063e6b5f314146104a2578063ef706adf1461039a578063f74c5d921461021c578063fbb1e497146101a85763ff1080df1461017d575f80fd5b346101a55760203660031901126101a557602061019b6004356124c4565b6040519015158152f35b80fd5b50346101a55760203660031901126101a5576004358152600560205260408120604051918260208354918281520192825260208220915b81811061020657610202856101f6818703826121d8565b60405191829182612139565b0390f35b82548452602090930192600192830192016101df565b50346101a55760403660031901126101a5576024356004356001600160401b03821161039657366023830112156103965781600401356001600160401b03811161039257366024828501011161039257610274612504565b61027c61251f565b818452600460205260408420906102928361253d565b60018201805460ff8160e01c161561037e576001600160a01b03811633819003610368575060ff60e01b1916905581545f5160206126f75f395f51905f529260209260a083901c929091906102f19084906001600160a01b0316612599565b857fdfa2b77d8318ad77427aabc34c7219a3c18821989c4b8c38be00217af820a94f60028301549260018060a01b0390541698846024604051928c845260408a8501528260408501520160608301378a606086830101526060813396601f80199101168101030190a4604051908152a36001815580f35b637afa44f560e01b885233600452602452604487fd5b630e3dde1b60e11b87526004859052602487fd5b8380fd5b8280fd5b50346101a55760203660031901126101a5576004356103b7612504565b6103bf61251f565b808252600460205260408220906103d58161253d565b600182019182549260ff8460e01c161561048e5781546001600160a01b03811694909190338690036104765760ff60e01b1916905560a01c925f5160206126f75f395f51905f529160209161042b908690612599565b600281015460405190868252857fe5a41c9bbf0552d9febcf8a0a46adbcc3054254b7b89e8633e42f0a22c283d21853394a4546040519485526001600160a01b031693a36001815580f35b630545542560e01b8752336004526024869052604487fd5b630e3dde1b60e11b85526004839052602485fd5b50346101a55760403660031901126101a5576104bc612123565b6001600160a01b03168152600660205260408120805460243592908310156101a55760206104ea8484612172565b90549060031b1c604051908152f35b5034610a2c576020366003190112610a2c57600435610516612504565b61051e61251f565b805f52600460205260405f20916105348261253d565b6001830191825460ff8160e01c1615610e695760ff8160e81c16610e56576001600160a01b03811633819003610e40575063ffffffff8160c01c1680421015610e2a575060028501805460405163083d13a560e11b81526004810182905291957f00000000000000000000000000000000000000000000000000000000000000006001600160a01b0316935f84602481885afa938415610a21575f94610e06575b5060808401516005811015610a30575f1901610df35760ff60038a015416926105fd84612627565b610ba7575b5061ffff60e01b1916600160e81b17905561061c90612627565b15610a73575061062b85612392565b60e08101908151604051906382260f3560e01b82526004820152608081602481875afa908115610a21575f91610a44575b5060608101516002811015610a3057610981578051604083015183516020909301516001600160401b0316926001600160a01b03908116929181169116803b1561097d57889291836064926040519687958694632142170760e11b86526004860152602485015260448401525af1801561097257908691610959575b50505b6001600160601b03602082015116906106f6600354836126c2565b8083039283116109455761074b929190610739907f00000000000000000000000000000000000000000000000000000000000000006001600160a01b0316612599565b604001516001600160a01b0316612599565b51813b1561039257839160248392604051948593849263230b89eb60e11b845260048401525af1801561093a57908391610921575b50505b8254808352600560205260408320946040518087602082995493848152019087526020872092875b8181106109085750506107c0925003876121d8565b835b86518110156108b957806107d860019289612420565b518581146108b35780875260046020526040872090838201805460ff8160e01c16156108aa5760ff60e01b1916905581549186898080808760a01c80988b8060a01b0316620186a0f161082961256a565b5015610859575060205f5160206126f75f395f51905f5291868060a01b0390541693604051908152a35b016107c2565b919060207ff984101b4a16789b0d66b533dc67afcd9469de549454a925378b0c6cbe95f81491838c526008825260408c208860ff19825416179055878060a01b0390541694604051908152a4610853565b50505050610853565b50610853565b5084549054604080516001600160a01b038316815260a09290921c602083015233949293507f537afea1137614386dde2e3f3f603a09e8ba6fbcd0a9d59b286a6f7e5fc9384891a46001815580f35b845483526001948501948b9450602090930192016107ab565b8161092b916121d8565b61093657815f610780565b5080fd5b6040513d85823e3d90fd5b634e487b7160e01b87526011600452602487fd5b81610963916121d8565b61096e57845f6106d8565b8480fd5b6040513d88823e3d90fd5b8880fd5b80516040838101518451602085015192909401516001600160401b039092169361ffff909216926001600160a01b03928316929081169116813b15610a2c575f60c49281956040519788968795637921219560e11b8752600487015260248601526044850152606484015260a060848401528160a48401525af18015610a2157610a0c575b506106db565b610a199195505f906121d8565b5f935f610a06565b6040513d5f823e3d90fd5b5f80fd5b634e487b7160e01b5f52602160045260245ffd5b610a66915060803d608011610a6c575b610a5e81836121d8565b81019061244b565b5f61065c565b503d610a54565b9050610a7e85612392565b9061010082018051600d811015610a3057610a9890612645565b6020840151845160409095015192516001600160a01b039586169590936001600160601b0390921692911690600d841015610a3057610b0b95602060e4928760e060c0849a0151910151916040519a8b998a9889976318c17da360e21b895260048901526024880152604487019061219b565b6064850152608484015260c060a484015280519182918260c4860152018484015e5f828201840152601f01601f191681010301917f00000000000000000000000000000000000000000000000000000000000000006001600160a01b03165af18015610a2157610b7c575b50610783565b602090813d8311610ba0575b610b9281836121d8565b81010312610a2c575f610b76565b503d610b88565b604051906382260f3560e01b82526004820152608081602481895afa908115610a21575f91610dd4575b5060608101516002811015610a3057610d365760018060a01b0381511690602081019160206001600160401b0384511660246040518094819363020604bf60e21b835260048301525afa908115610a21575f91610cfc575b50815160405163e985e9c560e01b81523360048201523060248201529190602090839060449082906001600160a01b03165afa918215610a21575f92610ccb575b506001600160a01b03163014159081610cc2575b50610c945750509061061c92915b909192610602565b51905163be7b5be560e01b5f9081526001600160a01b039092166004526001600160401b0316602452604490fd5b9050155f610c7e565b610cee91925060203d602011610cf5575b610ce681836121d8565b81019061237a565b905f610c6a565b503d610cdc565b90506020813d602011610d2e575b81610d17602093836121d8565b81010312610a2c57610d28906121f9565b5f610c29565b3d9150610d0a565b805160405163e985e9c560e01b815233600482015230602482015290602090829060449082906001600160a01b03165afa908115610a21575f91610db5575b5015610d8757509061061c9291610c8c565b6001600160401b03602060018060a01b03835116920151169063be7b5be560e01b5f5260045260245260445ffd5b610dce915060203d602011610cf557610ce681836121d8565b5f610d75565b610ded915060803d608011610a6c57610a5e81836121d8565b5f610bd1565b8263887a477d60e01b5f5260045260245ffd5b610e239194503d805f833e610e1b81836121d8565b810190612228565b925f6105d5565b826301fe44d560e01b5f5260045260245260445ffd5b637afa44f560e01b5f523360045260245260445ffd5b506301103cd360e41b5f5260045260245ffd5b50630e3dde1b60e11b5f5260045260245ffd5b34610a2c576020366003190112610a2c57600435610e9861251f565b805f52600460205260405f2090610eae8161253d565b81546001600160a01b031633819003610f3e5750805f52600860205260ff60405f20541615610f2c57805f52600860205260405f2060ff1981541690555f5160206126f75f395f51905f526020835493610f148560a01c809660018060a01b0316612599565b546040519485526001600160a01b031693a360015f55005b6327c4560160e11b5f5260045260245ffd5b630545542560e01b5f523360045260245260445ffd5b34610a2c575f366003190112610a2c576040517f00000000000000000000000000000000000000000000000000000000000000006001600160a01b03168152602090f35b34610a2c575f366003190112610a2c576020600254604051908152f35b34610a2c575f366003190112610a2c576040517f00000000000000000000000000000000000000000000000000000000000000006001600160a01b03168152602090f35b34610a2c576020366003190112610a2c576040516305db2f4160e01b815260048035917f00000000000000000000000000000000000000000000000000000000000000006001600160a01b031691602090829081855afa908115610a21575f91611146575b50604051632474521560e21b815260048101919091523360248201529060209082908180604481015b03915afa908115610a21575f91611127575b5015611114576127108111611102576103e881116110ea5760407fd347e206f25a89b917fc9482f1a2d294d749baa4dc9bde7fb495ee11fe49164391600354908060035582519182526020820152a1005b63edff465960e01b5f526004526103e860245260445ffd5b630cbf8cb160e11b5f5260045260245ffd5b632518087360e11b5f523360045260245ffd5b611140915060203d602011610cf557610ce681836121d8565b82611099565b90506020813d602011611172575b81611161602093836121d8565b81010312610a2c575161108761105e565b3d9150611154565b34610a2c575f366003190112610a2c57602060405160328152f35b34610a2c576020366003190112610a2c576004355f52600560205260405f20604051808260208294549384815201905f5260205f20925f5b8181106112cf5750506111e2925003826121d8565b5f905f5b8151811015611230576111f98183612420565b515f52600460205260ff600160405f20015460e01c1661121c575b6001016111e6565b91611228600191612327565b929050611214565b5061123a82612434565b9161124860405193846121d8565b808352611257601f1991612434565b013660208401375f5f5b82518110156112c1576112748184612420565b515f52600460205260ff600160405f20015460e01c16611297575b600101611261565b906112b96001916112a88486612420565b516112b38288612420565b52612327565b91905061128f565b604051806102028682612139565b84548352600194850194869450602090930192016111cd565b34610a2c575f366003190112610a2c57602060405166038d7ea4c680008152f35b34610a2c576020366003190112610a2c576004355f526008602052602060ff60405f2054166040519015158152f35b34610a2c576020366003190112610a2c576004355f52600460205261012060405f206113e081549160018101549060ff806003600284015493015416926040519560018060a01b038116875260a01c602087015260018060a01b038116604087015263ffffffff8160a01c16606087015263ffffffff8160c01c166080870152818160e01c16151560a087015260e81c16151560c085015260e084015261010083019061219b565bf35b34610a2c575f366003190112610a2c5760405163e63ab1e960e01b81527f00000000000000000000000000000000000000000000000000000000000000006001600160a01b031690602081600481855afa908115610a21575f916114f4575b50604051632474521560e21b815260048101919091523360248201529060209082908180604481015b03915afa908115610a21575f916114d5575b50156114c25761148a612504565b600160ff19815416176001557f62e78cea01bee320cd4e420270b5ea74000d11b0c9f74754ebdbfc544b05a2586020604051338152a1005b6310351a3760e11b5f523360045260245ffd5b6114ee915060203d602011610cf557610ce681836121d8565b8161147c565b90506020813d602011611520575b8161150f602093836121d8565b81010312610a2c575161146a611441565b3d9150611502565b34610a2c576020366003190112610a2c5760043561154461251f565b805f52600460205260405f209061155a8161253d565b6001820191825460ff8160e01c16156116aa5781546001600160a01b03811694338690036116935760028401805460405163083d13a560e11b815260048101919091529093905f816024817f00000000000000000000000000000000000000000000000000000000000000006001600160a01b03165afa8015610a21576080915f91611679575b5001516005811015610a30576001146116665760ff60e01b1916905560a01c935f5160206126f75f395f51905f52926020929091611620908790612599565b5460405190868252857fe5a41c9bbf0552d9febcf8a0a46adbcc3054254b7b89e8633e42f0a22c283d21853394a4546040519485526001600160a01b031693a360015f55005b85630e3dde1b60e11b5f5260045260245ffd5b61168d91503d805f833e610e1b81836121d8565b896115e1565b85630545542560e01b5f523360045260245260445ffd5b82630e3dde1b60e11b5f5260045260245ffd5b34610a2c576040366003190112610a2c576116d6612123565b6001600160a01b03165f90815260076020526040902080546024359190821015610a2c576020916104ea91612172565b34610a2c576020366003190112610a2c576004356001600160401b038111610a2c5736602382011215610a2c5780600401356001600160401b038111610a2c573660248260051b84010111610a2c5761175d61251f565b6032811161185f575f5b818110156118595760019060248160051b85010135805f52600460205260405f20908015801561184e575b801561183d575b801561182b575b6118245783820160ff60e01b1981541690555f5160206126f75f395f51905f5260208354936117da8560a01c8096898060a01b0316612599565b600281015460405190868252857fe5a41c9bbf0552d9febcf8a0a46adbcc3054254b7b89e8633e42f0a22c283d21853394a4868060a01b0390541693604051908152a35b01611767565b505061181e565b50838060a01b038254163314156117a0565b5060ff8483015460e01c1615611799565b506002548111611792565b60015f55005b62ef8cfb60e11b5f52600452603260245260445ffd5b34610a2c575f366003190112610a2c57602060ff600154166040519015158152f35b34610a2c576020366003190112610a2c57602061019b6004356125da565b34610a2c576020366003190112610a2c576004356118d1612504565b6118d961251f565b805f52600460205260405f20906118ef8161253d565b60018201805460ff8160e01c16156116aa5763ffffffff8160c01c1642106116aa5760ff60e01b19169055815460a081901c925f5160206126f75f395f51905f5291602091906119499086906001600160a01b0316612599565b60028101549060018060a01b03905416948560405192867fcb074ee4f688798088a6c2513bf6a70c9fc4fe3802824d69b073f245842800755f80a48152a360015f55005b34610a2c576020366003190112610a2c576004355f6101006040516119b1816121a8565b8281528260208201528260408201528260608201528260808201528260a08201528260c08201528260e082015201526119e98161253d565b5f5260046020526101206119ff60405f20612392565b6113e06101006040519260018060a01b0381511684526001600160601b03602082015116602085015260018060a01b03604082015116604085015263ffffffff606082015116606085015263ffffffff608082015116608085015260a0810151151560a085015260c0810151151560c085015260e081015160e0850152015161010083019061219b565b34610a2c575f366003190112610a2c57604051631d6c8e3f60e21b81527f00000000000000000000000000000000000000000000000000000000000000006001600160a01b031690602081600481855afa908115610a21575f91611ba9575b50604051632474521560e21b815260048101919091523360248201529060209082908180604481015b03915afa908115610a21575f91611b8a575b5015611b775760015460ff811615611b685760ff19166001557f5db9ee0a495bf2e6ff9c91a7834c1ba4fdd244a5e8aa4e537bd38aeae4b073aa6020604051338152a1005b638dfc202b60e01b5f5260045ffd5b630bd4212160e11b5f523360045260245ffd5b611ba3915060203d602011610cf557610ce681836121d8565b81611b23565b90506020813d602011611bd5575b81611bc4602093836121d8565b81010312610a2c5751611b11611ae8565b3d9150611bb7565b34610a2c576020366003190112610a2c576001600160a01b03611bfe612123565b165f52600760205260405f206040519081602082549182815201915f5260205f20905f5b818110611c3957610202856101f6818703826121d8565b8254845260209093019260019283019201611c22565b34610a2c575f366003190112610a2c576020600354604051908152f35b34610a2c57611c7a3661210d565b905f52600560205260405f208054821015610a2c576020916104ea91612172565b34610a2c575f366003190112610a2c576040517f00000000000000000000000000000000000000000000000000000000000000006001600160a01b03168152602090f35b34610a2c576020366003190112610a2c576001600160a01b03611d00612123565b165f52600660205260405f206040519081602082549182815201915f5260205f20905f5b818110611d3b57610202856101f6818703826121d8565b8254845260209093019260019283019201611d24565b611d5a3661210d565b611d62612504565b611d6a61251f565b66038d7ea4c68000341080156120b9575b6120a6576201518081101580612099575b156120875760405163083d13a560e11b8152600481018390525f816024817f00000000000000000000000000000000000000000000000000000000000000006001600160a01b03165afa908115610a21575f9161206d575b5080511561205a5760808101516005811015610a30575f190161204857602081019260018060a01b03845116331461203557611e21600254612327565b9283600255420193844211612021578051604093909301805190936001600160a01b0316600d821015610a3057604051600391611e5d826121a8565b33825260208201906001600160601b0334168252604083019081526060830163ffffffff421681526080840163ffffffff8c16815260a08501906001825260c08601925f845260e08701958b8752611eba61010089019a8b612335565b5f8e81526004602052604090209751905160a090811b6001600160a01b0319166001600160a01b03928316178955955160018901805493519451955196516001600160f01b031990941691909216179290951b63ffffffff60a01b169190911760c09290921b63ffffffff60c01b169190911791151560e01b60ff60e01b169190911790151560e81b60ff60e81b161790555160028201559151910190600d811015610a305760ff80198354169116179055815f526005602052611f818460405f20612341565b335f526006602052611f968460405f20612341565b60018060a01b038151165f526007602052611fb48460405f20612341565b519151936001600160a01b0390921691600d851015610a3057602094611fee9160405194855234878601526040850152606084019061219b565b827f8afbd8530920c3547632f5331614216233a23961c20bf3ddd5fdd612dea777f960803394a460015f55604051908152f35b634e487b7160e01b5f52601160045260245ffd5b63256503cd60e01b5f523360045260245ffd5b8262de2a4f60e61b5f5260045260245ffd5b82630c2005bf60e11b5f5260045260245ffd5b61208191503d805f833e610e1b81836121d8565b83611de4565b637ba8c89160e11b5f5260045260245ffd5b506276a700811115611d8c565b630298824560e41b5f523460045260245ffd5b5069d3c21bcecceda10000003411611d7b565b34610a2c575f366003190112610a2c577f00000000000000000000000000000000000000000000000000000000000000006001600160a01b03168152602090f35b6040906003190112610a2c576004359060243590565b600435906001600160a01b0382168203610a2c57565b60206040818301928281528451809452019201905f5b81811061215c5750505090565b825184526020938401939092019160010161214f565b8054821015612187575f5260205f2001905f90565b634e487b7160e01b5f52603260045260245ffd5b90600d821015610a305752565b61012081019081106001600160401b038211176121c457604052565b634e487b7160e01b5f52604160045260245ffd5b90601f801991011681019081106001600160401b038211176121c457604052565b51906001600160a01b0382168203610a2c57565b6001600160401b0381116121c457601f01601f191660200190565b602081830312610a2c578051906001600160401b038211610a2c57019061010082820312610a2c576040519161010083018381106001600160401b038211176121c4576040528051835261227e602082016121f9565b60208401526040810151600d811015610a2c5760408401526060810151606084015260808101516005811015610a2c57608084015260a081015160a084015260c081015160c084015260e0810151906001600160401b038211610a2c570181601f82011215610a2c578051906122f38261220d565b9261230160405194856121d8565b82845260208383010111610a2c57815f9260208093018386015e8301015260e082015290565b5f1981146120215760010190565b600d821015610a305752565b8054680100000000000000008110156121c45761236391600182018155612172565b819291549060031b91821b915f19901b1916179055565b90816020910312610a2c57518015158103610a2c5790565b9061241e6040516123a2816121a8565b61010060ff60038396805460018060a01b038116865260a01c602086015282600182015460018060a01b038116604088015263ffffffff8160a01c16606088015263ffffffff8160c01c166080880152818160e01c16151560a088015260e81c16151560c0860152600281015460e08601520154169101612335565b565b80518210156121875760209160051b010190565b6001600160401b0381116121c45760051b60200190565b90816080910312610a2c5760405190608082018281106001600160401b038211176121c45760405261247c816121f9565b825260208101516001600160401b0381168103610a2c57602083015260408101519061ffff82168203610a2c57606091604084015201516002811015610a2c57606082015290565b801580156124f9575b6124f4575f52600460205263ffffffff60806124eb60405f20612392565b01511642101590565b505f90565b5060025481116124cd565b60ff6001541661251057565b63d93c066560e01b5f5260045ffd5b60025f541461252e5760025f55565b633ee5aeb560e01b5f5260045ffd5b8015801561255f575b61254d5750565b63c1ce508760e01b5f5260045260245ffd5b506002548111612546565b3d15612594573d9061257b8261220d565b9161258960405193846121d8565b82523d5f602084013e565b606090565b81156125d6575f80808085855af16125af61256a565b50156125b9575050565b630e21dcbb60e11b5f5260018060a01b031660045260245260445ffd5b5050565b8015801561261c575b6124f4575f5260046020526125fa60405f20612392565b60a08101511515908161260b575090565b63ffffffff91506080015116421090565b5060025481116125e3565b600d811015610a3057801590811561263d575090565b600191501490565b61264e81612627565b6124f457600d81101580610a30576002821015806126b5575b6126ac57610a3057600981146126a4576008811461269c57600a811461269c57600b146126955762278d0090565b62278d0090565b506276a70090565b5062093a8090565b505062278d0090565b50505f6007821115612667565b908115908180156126ee575b6126e75780830292830414171561202157612710900490565b5050505f90565b5080156126ce56fe0ff19d650f33b91267d83d6212cc3626e5486ee3f5ae85d7759385cb0853ac2ba26469706673582212201fb1e793e23010ed7d13eff3be114f71222ea97ab817314cd6b37668a887b72464736f6c634300081c0033","linkReferences":{}},"methodIdentifiers":{"MAX_BATCH_CANCEL_SIZE()":"98725760","MIN_OFFER_AMOUNT()":"8ec5c944","acceptOffer(uint256)":"c815729d","batchCancelOffers(uint256[])":"69bd7dbb","buyerOffers(address,uint256)":"e6b5f314","cancelOffer(uint256)":"ef706adf","claimExpiredOffer(uint256)":"4701deb2","claimFailedRefund(uint256)":"c35649af","claimRefundForInvalidOffer(uint256)":"82f9e8e6","escrowManager()":"c12255c4","feeDistributor()":"0d43e8ad","getActiveListingOffers(uint256)":"94b3814a","getBuyerOffers(address)":"0ce89b04","getListingOffers(uint256)":"fbb1e497","getOffer(uint256)":"4579268a","getSellerOffers(address)":"2bce352a","hasOfferExpired(uint256)":"ff1080df","isOfferActive(uint256)":"4f42db5c","listingOffers(uint256,uint256)":"20e33db8","makeOffer(uint256,uint256)":"05b7cdd3","marketplace()":"abc8c7af","offerCounter()":"b7a3c1da","offerRefundAvailable(uint256)":"8b577c24","offers(uint256)":"8a72ea6a","pause()":"8456cb59","paused()":"5c975abb","platformFeeBps()":"22dcd13e","rejectOffer(uint256,string)":"f74c5d92","roleManager()":"00435da5","sellerOffers(address,uint256)":"7e930a5c","unpause()":"3f4ba83a","updatePlatformFee(uint256)":"aa0b5988"},"id":81}