{"abi":[{"type":"constructor","inputs":[{"name":"_roleManager","type":"address","internalType":"address"}],"stateMutability":"nonpayable"},{"type":"function","name":"BAN_THRESHOLD","inputs":[],"outputs":[{"name":"","type":"int256","internalType":"int256"}],"stateMutability":"view"},{"type":"function","name":"INACTIVITY_PERIOD","inputs":[],"outputs":[{"name":"","type":"uint256","internalType":"uint256"}],"stateMutability":"view"},{"type":"function","name":"POINTS_DISPUTE_LOST","inputs":[],"outputs":[{"name":"","type":"int256","internalType":"int256"}],"stateMutability":"view"},{"type":"function","name":"POINTS_DISPUTE_WON","inputs":[],"outputs":[{"name":"","type":"int256","internalType":"int256"}],"stateMutability":"view"},{"type":"function","name":"POINTS_FRAUD","inputs":[],"outputs":[{"name":"","type":"int256","internalType":"int256"}],"stateMutability":"view"},{"type":"function","name":"POINTS_INACTIVITY_DECAY","inputs":[],"outputs":[{"name":"","type":"int256","internalType":"int256"}],"stateMutability":"view"},{"type":"function","name":"POINTS_SUCCESSFUL_PURCHASE","inputs":[],"outputs":[{"name":"","type":"int256","internalType":"int256"}],"stateMutability":"view"},{"type":"function","name":"POINTS_SUCCESSFUL_SALE","inputs":[],"outputs":[{"name":"","type":"int256","internalType":"int256"}],"stateMutability":"view"},{"type":"function","name":"POINTS_VERIFIED_ASSET","inputs":[],"outputs":[{"name":"","type":"int256","internalType":"int256"}],"stateMutability":"view"},{"type":"function","name":"addAuthorizedContract","inputs":[{"name":"contractAddress","type":"address","internalType":"address"}],"outputs":[],"stateMutability":"nonpayable"},{"type":"function","name":"authorizedContracts","inputs":[{"name":"","type":"address","internalType":"address"}],"outputs":[{"name":"","type":"bool","internalType":"bool"}],"stateMutability":"view"},{"type":"function","name":"banUser","inputs":[{"name":"user","type":"address","internalType":"address"},{"name":"reason","type":"string","internalType":"string"}],"outputs":[],"stateMutability":"nonpayable"},{"type":"function","name":"getReputation","inputs":[{"name":"user","type":"address","internalType":"address"}],"outputs":[{"name":"","type":"tuple","internalType":"struct IReputationManager.Reputation","components":[{"name":"score","type":"int256","internalType":"int256"},{"name":"successfulSales","type":"uint32","internalType":"uint32"},{"name":"successfulPurchases","type":"uint32","internalType":"uint32"},{"name":"disputesLost","type":"uint32","internalType":"uint32"},{"name":"disputesWon","type":"uint32","internalType":"uint32"},{"name":"verifiedAssets","type":"uint32","internalType":"uint32"},{"name":"lastActivityTime","type":"uint32","internalType":"uint32"},{"name":"isBanned","type":"bool","internalType":"bool"}]}],"stateMutability":"view"},{"type":"function","name":"getReputationScore","inputs":[{"name":"user","type":"address","internalType":"address"}],"outputs":[{"name":"","type":"int256","internalType":"int256"}],"stateMutability":"view"},{"type":"function","name":"isAuthorizedContract","inputs":[{"name":"contractAddress","type":"address","internalType":"address"}],"outputs":[{"name":"","type":"bool","internalType":"bool"}],"stateMutability":"view"},{"type":"function","name":"isBanned","inputs":[{"name":"user","type":"address","internalType":"address"}],"outputs":[{"name":"","type":"bool","internalType":"bool"}],"stateMutability":"view"},{"type":"function","name":"isGoodStanding","inputs":[{"name":"user","type":"address","internalType":"address"}],"outputs":[{"name":"","type":"bool","internalType":"bool"}],"stateMutability":"view"},{"type":"function","name":"pause","inputs":[],"outputs":[],"stateMutability":"nonpayable"},{"type":"function","name":"paused","inputs":[],"outputs":[{"name":"","type":"bool","internalType":"bool"}],"stateMutability":"view"},{"type":"function","name":"removeAuthorizedContract","inputs":[{"name":"contractAddress","type":"address","internalType":"address"}],"outputs":[],"stateMutability":"nonpayable"},{"type":"function","name":"reputations","inputs":[{"name":"","type":"address","internalType":"address"}],"outputs":[{"name":"score","type":"int256","internalType":"int256"},{"name":"successfulSales","type":"uint32","internalType":"uint32"},{"name":"successfulPurchases","type":"uint32","internalType":"uint32"},{"name":"disputesLost","type":"uint32","internalType":"uint32"},{"name":"disputesWon","type":"uint32","internalType":"uint32"},{"name":"verifiedAssets","type":"uint32","internalType":"uint32"},{"name":"lastActivityTime","type":"uint32","internalType":"uint32"},{"name":"isBanned","type":"bool","internalType":"bool"}],"stateMutability":"view"},{"type":"function","name":"roleManager","inputs":[],"outputs":[{"name":"","type":"address","internalType":"contract RoleManager"}],"stateMutability":"view"},{"type":"function","name":"unbanUser","inputs":[{"name":"user","type":"address","internalType":"address"}],"outputs":[],"stateMutability":"nonpayable"},{"type":"function","name":"unpause","inputs":[],"outputs":[],"stateMutability":"nonpayable"},{"type":"function","name":"updateReputation","inputs":[{"name":"user","type":"address","internalType":"address"},{"name":"action","type":"uint8","internalType":"enum IReputationManager.ReputationAction"}],"outputs":[],"stateMutability":"nonpayable"},{"type":"event","name":"AuthorizedContractAdded","inputs":[{"name":"contractAddress","type":"address","indexed":true,"internalType":"address"},{"name":"addedBy","type":"address","indexed":true,"internalType":"address"}],"anonymous":false},{"type":"event","name":"AuthorizedContractRemoved","inputs":[{"name":"contractAddress","type":"address","indexed":true,"internalType":"address"},{"name":"removedBy","type":"address","indexed":true,"internalType":"address"}],"anonymous":false},{"type":"event","name":"Paused","inputs":[{"name":"account","type":"address","indexed":false,"internalType":"address"}],"anonymous":false},{"type":"event","name":"ReputationUpdated","inputs":[{"name":"user","type":"address","indexed":true,"internalType":"address"},{"name":"action","type":"uint8","indexed":false,"internalType":"enum IReputationManager.ReputationAction"},{"name":"pointsChange","type":"int256","indexed":false,"internalType":"int256"},{"name":"newScore","type":"int256","indexed":false,"internalType":"int256"}],"anonymous":false},{"type":"event","name":"Unpaused","inputs":[{"name":"account","type":"address","indexed":false,"internalType":"address"}],"anonymous":false},{"type":"event","name":"UserBanned","inputs":[{"name":"user","type":"address","indexed":true,"internalType":"address"},{"name":"reason","type":"string","indexed":false,"internalType":"string"},{"name":"bannedBy","type":"address","indexed":false,"internalType":"address"}],"anonymous":false},{"type":"event","name":"UserUnbanned","inputs":[{"name":"user","type":"address","indexed":true,"internalType":"address"},{"name":"unbannedBy","type":"address","indexed":false,"internalType":"address"}],"anonymous":false},{"type":"error","name":"AlreadyAuthorized","inputs":[{"name":"addr","type":"address","internalType":"address"}]},{"type":"error","name":"AlreadyBanned","inputs":[{"name":"user","type":"address","internalType":"address"}]},{"type":"error","name":"EnforcedPause","inputs":[]},{"type":"error","name":"ExpectedPause","inputs":[]},{"type":"error","name":"InvalidReputationAction","inputs":[]},{"type":"error","name":"InvalidRoleManager","inputs":[]},{"type":"error","name":"InvalidUser","inputs":[]},{"type":"error","name":"NotAdmin","inputs":[{"name":"caller","type":"address","internalType":"address"}]},{"type":"error","name":"NotAuthorized","inputs":[{"name":"caller","type":"address","internalType":"address"}]},{"type":"error","name":"NotBanned","inputs":[{"name":"user","type":"address","internalType":"address"}]},{"type":"error","name":"NotPauser","inputs":[{"name":"caller","type":"address","internalType":"address"}]},{"type":"error","name":"ReentrancyGuardReentrantCall","inputs":[]},{"type":"error","name":"UnauthorizedUpdater","inputs":[{"name":"caller","type":"address","internalType":"address"}]},{"type":"error","name":"UserIsBanned","inputs":[{"name":"user","type":"address","internalType":"address"}]},{"type":"error","name":"ZeroAddress","inputs":[]}],"bytecode":{"object":"0x60a0346100af57601f61157938819003918201601f19168301916001600160401b038311848410176100b3578084926020946040528339810103126100af57516001600160a01b038116908190036100af5760015f5580156100a0576080526040516114b190816100c8823960805181818161046f0152818161064a0152818161099c01528181610b5501528181610d6501528181610ec901526110a00152f35b6309a53a6560e31b5f5260045ffd5b5f80fd5b634e487b7160e01b5f52604160045260245ffdfe6080806040526004361015610012575f80fd5b5f3560e01c908162435da51461108e5750806306fa15a714610feb5780633de1eeb2146107c25780633f4ba83a14610eaa5780634d12b69514610d3d57806359a71a8414610d225780635a5e259414610d075780635c975abb14610ce557806366d0ead3146107c757806375a67d5c14610cba5780637782cec614610c8d5780637bd7782a146105de5780638456cb5914610b3657806397f735d514610af357806398eaa4a7146109745780639c89a0e214610858578063aab09ade1461083c578063b18ada671461081f578063d25a8bdc14610804578063d5b9221b146107c7578063db285438146107c2578063de8be6fd146105e3578063df230361146105de578063e6b165ed146104475763ecb134ad1461012e575f80fd5b34610443576040366003190112610443576101476110cf565b602435906007821015610443576001600160a01b03811691821561043457335f52600360205260ff60405f2054161561042157825f52600260205260405f206101a3600182019363ffffffff855460a01c16156103fc576113ac565b6101ac82611409565b925f91836102dd57815463ffffffff6101c6818316611395565b169063ffffffff19161782555b6101de8582546111bd565b8155815463ffffffff60a01b19164260a01b63ffffffff60a01b161782555490606319821315806102ce575b610260575b506040519161024c577f977a646ee771ecc5de7b2d128a6eb5452201c5deb8252446374364031ee9f1f093606093835260208301526040820152a2005b634e487b7160e01b5f52602160045260245ffd5b600160c01b60ff60c01b19825416179055847f6e4ef51cc33f3fd1bf8122b95763610c781091c183ce23d3070ec034ee095fb4608060405160408152601560408201527414d8dbdc994818995b1bddc81d1a1c995cda1bdb19605a1b6060820152306020820152a25f61020f565b5060ff815460c01c161561020a565b5f92506001840361031e57815467ffffffff0000000061030563ffffffff8360201c16611395565b60201b169067ffffffff0000000019161782555b6101d3565b5f92506002840361035c57815463ffffffff60401b61034563ffffffff8360401c16611395565b60401b169063ffffffff60401b19161782556101d3565b5f92506003840361039b57815463ffffffff60601b610384606083901c63ffffffff16611395565b60601b169063ffffffff60601b19161782556101d3565b5f9250600484036103da57815463ffffffff60801b6103c3608083901c63ffffffff16611395565b60801b169063ffffffff60801b19161782556101d3565b5f9250600419840161031957815460ff60c01b1916600160c01b1782556101d3565b60648355845463ffffffff60a01b19164260a01b63ffffffff60a01b161785556113ac565b634a0bfec160e01b5f523360045260245ffd5b63fd684c3b60e01b5f5260045ffd5b5f80fd5b34610443576020366003190112610443576104606110cf565b604051631d6c8e3f60e21b81527f00000000000000000000000000000000000000000000000000000000000000006001600160a01b031690602081600481855afa90811561059f575f916105aa575b50604051632474521560e21b815260048101919091523360248201529060209082908180604481015b03915afa90811561059f575f91610570575b501561055d576001600160a01b03165f8181526003602052604090205460ff161561054b57805f52600360205260405f2060ff19815416905533907ff06321695c86a1fbc00e739847170ccd4e7a383985e5636c16f079a2280384b95f80a3005b634a0bfec160e01b5f5260045260245ffd5b630bd4212160e11b5f523360045260245ffd5b610592915060203d602011610598575b61058a818361114d565b81019061116f565b826104ea565b503d610580565b6040513d5f823e3d90fd5b90506020813d6020116105d6575b816105c56020938361114d565b8101031261044357516104d86104af565b3d91506105b8565b611100565b34610443576040366003190112610443576105fc6110cf565b6024359067ffffffffffffffff821161044357366023830112156104435781600401359067ffffffffffffffff821161044357366024838501011161044357604051631d6c8e3f60e21b81527f00000000000000000000000000000000000000000000000000000000000000006001600160a01b031690602081600481855afa90811561059f575f9161078e575b50604051632474521560e21b815260048101919091523360248201529060209082908180604481015b03915afa90811561059f575f9161076f575b501561055d5760018060a01b031691825f526002602052600160405f20019081549060ff8260c01c1661075c577f6e4ef51cc33f3fd1bf8122b95763610c781091c183ce23d3070ec034ee095fb493602493606093600160c01b9060ff60c01b1916179055806040519485936040855282604086015201848401375f828201840152336020830152601f01601f19168101030190a2005b8463ff250c2360e01b5f5260045260245ffd5b610788915060203d6020116105985761058a818361114d565b846106c5565b90506020813d6020116107ba575b816107a96020938361114d565b8101031261044357516106b361068a565b3d915061079c565b6110e5565b34610443576020366003190112610443576001600160a01b036107e86110cf565b165f526003602052602060ff60405f2054166040519015158152f35b34610443575f3660031901126104435760206040515f198152f35b34610443575f36600319011261044357602060405162278d008152f35b34610443575f3660031901126104435760206040516031198152f35b34610443576020366003190112610443576108716110cf565b5f60e06040516108808161111c565b8281528260208201528260408201528260608201528260808201528260a08201528260c0820152015260018060a01b03165f52600260205261010060405f2063ffffffff8080806040516108d38161111c565b60018654968783520154948181602088940181851681528160408401818760201c168152816060860193818960401c16855260ff60e06080890198848c60601c168a5260a081019b858160801c168d5260c082019e8f9160a01c169052019d60c01c1615158d526040519d8e52511660208d0152511660408b01525116606089015251166080870152511660a0850152511660c083015251151560e0820152f35b346104435760203660031901126104435761098d6110cf565b604051631d6c8e3f60e21b81527f00000000000000000000000000000000000000000000000000000000000000006001600160a01b031690602081600481855afa90811561059f575f91610abf575b50604051632474521560e21b815260048101919091523360248201529060209082908180604481015b03915afa90811561059f575f91610aa0575b501561055d576001600160a01b03168015610a9157805f52600360205260ff60405f205416610a7f57805f52600360205260405f20600160ff1982541617905533907ff8b6e5731f94977c9f6aca99256be7afb84b3fcf9efee0cddd9822f1cbfe2a445f80a3005b637103fd5f60e11b5f5260045260245ffd5b63d92e233d60e01b5f5260045ffd5b610ab9915060203d6020116105985761058a818361114d565b82610a17565b90506020813d602011610aeb575b81610ada6020938361114d565b810103126104435751610a056109dc565b3d9150610acd565b34610443576020366003190112610443576001600160a01b03610b146110cf565b165f526002602052602060ff600160405f20015460c01c166040519015158152f35b34610443575f3660031901126104435760405163e63ab1e960e01b81527f00000000000000000000000000000000000000000000000000000000000000006001600160a01b031690602081600481855afa90811561059f575f91610c59575b50604051632474521560e21b815260048101919091523360248201529060209082908180604481015b03915afa90811561059f575f91610c3a575b5015610c275760015460ff8116610c185760019060ff1916176001557f62e78cea01bee320cd4e420270b5ea74000d11b0c9f74754ebdbfc544b05a2586020604051338152a1005b63d93c066560e01b5f5260045ffd5b6310351a3760e11b5f523360045260245ffd5b610c53915060203d6020116105985761058a818361114d565b81610bd0565b90506020813d602011610c85575b81610c746020938361114d565b810103126104435751610bbe610b95565b3d9150610c67565b34610443576020366003190112610443576020610cb0610cab6110cf565b611298565b6040519015158152f35b34610443576020366003190112610443576020610cdd610cd86110cf565b6111d8565b604051908152f35b34610443575f36600319011261044357602060ff600154166040519015158152f35b34610443575f36600319011261044357602060405160058152f35b34610443575f36600319011261044357602060405160148152f35b3461044357602036600319011261044357610d566110cf565b604051631d6c8e3f60e21b81527f00000000000000000000000000000000000000000000000000000000000000006001600160a01b031690602081600481855afa90811561059f575f91610e76575b50604051632474521560e21b815260048101919091523360248201529060209082908180604481015b03915afa90811561059f575f91610e57575b501561055d576001600160a01b03165f818152600260205260409020600101805460c081901c60ff1615610e455760ff60c01b191690556040513381527ff11fd0be5eda892011eed5ccf21f149a3e3533001e220f8aef844d83842ac61990602090a2005b82622a69fb60e11b5f5260045260245ffd5b610e70915060203d6020116105985761058a818361114d565b82610de0565b90506020813d602011610ea2575b81610e916020938361114d565b810103126104435751610dce610da5565b3d9150610e84565b34610443575f36600319011261044357604051631d6c8e3f60e21b81527f00000000000000000000000000000000000000000000000000000000000000006001600160a01b031690602081600481855afa90811561059f575f91610fb7575b50604051632474521560e21b815260048101919091523360248201529060209082908180604481015b03915afa90811561059f575f91610f98575b501561055d5760015460ff811615610f895760ff19166001557f5db9ee0a495bf2e6ff9c91a7834c1ba4fdd244a5e8aa4e537bd38aeae4b073aa6020604051338152a1005b638dfc202b60e01b5f5260045ffd5b610fb1915060203d6020116105985761058a818361114d565b81610f44565b90506020813d602011610fe3575b81610fd26020938361114d565b810103126104435751610f32610f09565b3d9150610fc5565b34610443576020366003190112610443576001600160a01b0361100c6110cf565b165f52600260205261010060405f2060ff6001825492015460405192835263ffffffff8116602084015263ffffffff8160201c16604084015263ffffffff8160401c16606084015263ffffffff8160601c16608084015263ffffffff8160801c1660a084015263ffffffff8160a01c1660c084015260c01c16151560e0820152f35b34610443575f366003190112610443577f00000000000000000000000000000000000000000000000000000000000000006001600160a01b03168152602090f35b600435906001600160a01b038216820361044357565b34610443575f366003190112610443576020604051600a8152f35b34610443575f3660031901126104435760206040516063198152f35b610100810190811067ffffffffffffffff82111761113957604052565b634e487b7160e01b5f52604160045260245ffd5b90601f8019910116810190811067ffffffffffffffff82111761113957604052565b90816020910312610443575180151581036104435790565b9190820391821161119457565b634e487b7160e01b5f52601160045260245ffd5b90815f03918083055f19149015171561119457565b9190915f838201938412911290801582169115161761119457565b60018060a01b03165f52600260205260405f206001604051916111fa8361111c565b8054835201549063ffffffff8216602082015263ffffffff8260201c16604082015263ffffffff8260401c16606082015263ffffffff8260601c16608082015263ffffffff8260801c1660a082015260ff63ffffffff8360a01c16928360c084015260c01c16151560e082015281156112915761128762278d0061128161128e9442611187565b046111a8565b90516111bd565b90565b5050606490565b60018060a01b0316805f52600260205260e060405f2060ff6001604051926112bf8461111c565b80548452015463ffffffff8116602084015263ffffffff8160201c16604084015263ffffffff8160401c16606084015263ffffffff8160601c16608084015263ffffffff8160801c1660a084015263ffffffff8160a01c1660c084015260c01c16151591829101526113905760405190631d699f5760e21b82526004820152602081602481305afa801561059f575f9061135d575b60329150121590565b506020813d602011611388575b816113776020938361114d565b810103126104435760329051611354565b3d915061136a565b505f90565b63ffffffff1663ffffffff81146111945760010190565b6001600160a01b03165f908152600260205260409020600181015460a01c63ffffffff168015611405576113e462278d009142611187565b04806113ee575050565b6113fa611401916111a8565b82546111bd565b9055565b5050565b600781101561024c5780156114695760018114611475576004811461146f57600381146114695760028114611462576005811461145b576006146114565763a2a121a760e01b5f5260045ffd5b5f1990565b5060631990565b5060311990565b50600a90565b50601490565b5060059056fea26469706673582212208420c0da806782176656f7b947f103f3891ab2c1e94f7543b56eaee799a87a4764736f6c634300081c0033","linkReferences":{}},"methodIdentifiers":{"BAN_THRESHOLD()":"df230361","INACTIVITY_PERIOD()":"b18ada67","POINTS_DISPUTE_LOST()":"aab09ade","POINTS_DISPUTE_WON()":"db285438","POINTS_FRAUD()":"7bd7782a","POINTS_INACTIVITY_DECAY()":"d25a8bdc","POINTS_SUCCESSFUL_PURCHASE()":"5a5e2594","POINTS_SUCCESSFUL_SALE()":"3de1eeb2","POINTS_VERIFIED_ASSET()":"59a71a84","addAuthorizedContract(address)":"98eaa4a7","authorizedContracts(address)":"d5b9221b","banUser(address,string)":"de8be6fd","getReputation(address)":"9c89a0e2","getReputationScore(address)":"75a67d5c","isAuthorizedContract(address)":"66d0ead3","isBanned(address)":"97f735d5","isGoodStanding(address)":"7782cec6","pause()":"8456cb59","paused()":"5c975abb","removeAuthorizedContract(address)":"e6b165ed","reputations(address)":"06fa15a7","roleManager()":"00435da5","unbanUser(address)":"4d12b695","unpause()":"3f4ba83a","updateReputation(address,uint8)":"ecb134ad"},"id":103}