{"abi":[{"type":"constructor","inputs":[{"name":"initialAdmin","type":"address","internalType":"address"}],"stateMutability":"nonpayable"},{"type":"function","name":"ADMIN_ROLE","inputs":[],"outputs":[{"name":"","type":"bytes32","internalType":"bytes32"}],"stateMutability":"view"},{"type":"function","name":"ARBITRATOR_ROLE","inputs":[],"outputs":[{"name":"","type":"bytes32","internalType":"bytes32"}],"stateMutability":"view"},{"type":"function","name":"DEFAULT_ADMIN_ROLE","inputs":[],"outputs":[{"name":"","type":"bytes32","internalType":"bytes32"}],"stateMutability":"view"},{"type":"function","name":"FEE_MANAGER_ROLE","inputs":[],"outputs":[{"name":"","type":"bytes32","internalType":"bytes32"}],"stateMutability":"view"},{"type":"function","name":"PAUSER_ROLE","inputs":[],"outputs":[{"name":"","type":"bytes32","internalType":"bytes32"}],"stateMutability":"view"},{"type":"function","name":"ROLE_CHANGE_TIMELOCK","inputs":[],"outputs":[{"name":"","type":"uint256","internalType":"uint256"}],"stateMutability":"view"},{"type":"function","name":"VERIFIER_ROLE","inputs":[],"outputs":[{"name":"","type":"bytes32","internalType":"bytes32"}],"stateMutability":"view"},{"type":"function","name":"batchGrantRoles","inputs":[{"name":"roles","type":"bytes32[]","internalType":"bytes32[]"},{"name":"accounts","type":"address[]","internalType":"address[]"}],"outputs":[],"stateMutability":"nonpayable"},{"type":"function","name":"canExecuteRoleGrant","inputs":[{"name":"role","type":"bytes32","internalType":"bytes32"},{"name":"account","type":"address","internalType":"address"}],"outputs":[{"name":"","type":"bool","internalType":"bool"}],"stateMutability":"view"},{"type":"function","name":"cancelRoleGrant","inputs":[{"name":"role","type":"bytes32","internalType":"bytes32"},{"name":"account","type":"address","internalType":"address"}],"outputs":[],"stateMutability":"nonpayable"},{"type":"function","name":"executeRoleGrant","inputs":[{"name":"role","type":"bytes32","internalType":"bytes32"},{"name":"account","type":"address","internalType":"address"}],"outputs":[],"stateMutability":"nonpayable"},{"type":"function","name":"getPendingRoleGrant","inputs":[{"name":"role","type":"bytes32","internalType":"bytes32"},{"name":"account","type":"address","internalType":"address"}],"outputs":[{"name":"executeAfter","type":"uint256","internalType":"uint256"}],"stateMutability":"view"},{"type":"function","name":"getRoleAdmin","inputs":[{"name":"role","type":"bytes32","internalType":"bytes32"}],"outputs":[{"name":"","type":"bytes32","internalType":"bytes32"}],"stateMutability":"view"},{"type":"function","name":"getRoleMemberCount","inputs":[{"name":"role","type":"bytes32","internalType":"bytes32"}],"outputs":[{"name":"","type":"uint256","internalType":"uint256"}],"stateMutability":"view"},{"type":"function","name":"getRoleMembers","inputs":[{"name":"role","type":"bytes32","internalType":"bytes32"}],"outputs":[{"name":"","type":"address[]","internalType":"address[]"}],"stateMutability":"view"},{"type":"function","name":"grantRole","inputs":[{"name":"role","type":"bytes32","internalType":"bytes32"},{"name":"account","type":"address","internalType":"address"}],"outputs":[],"stateMutability":"nonpayable"},{"type":"function","name":"hasAllRoles","inputs":[{"name":"account","type":"address","internalType":"address"},{"name":"rolesToCheck","type":"bytes32[]","internalType":"bytes32[]"}],"outputs":[{"name":"","type":"bool","internalType":"bool"}],"stateMutability":"view"},{"type":"function","name":"hasAnyRole","inputs":[{"name":"account","type":"address","internalType":"address"},{"name":"rolesToCheck","type":"bytes32[]","internalType":"bytes32[]"}],"outputs":[{"name":"","type":"bool","internalType":"bool"}],"stateMutability":"view"},{"type":"function","name":"hasRole","inputs":[{"name":"role","type":"bytes32","internalType":"bytes32"},{"name":"account","type":"address","internalType":"address"}],"outputs":[{"name":"","type":"bool","internalType":"bool"}],"stateMutability":"view"},{"type":"function","name":"isAdmin","inputs":[{"name":"account","type":"address","internalType":"address"}],"outputs":[{"name":"","type":"bool","internalType":"bool"}],"stateMutability":"view"},{"type":"function","name":"isPaused","inputs":[],"outputs":[{"name":"","type":"bool","internalType":"bool"}],"stateMutability":"view"},{"type":"function","name":"pause","inputs":[{"name":"reason","type":"string","internalType":"string"}],"outputs":[],"stateMutability":"nonpayable"},{"type":"function","name":"paused","inputs":[],"outputs":[{"name":"","type":"bool","internalType":"bool"}],"stateMutability":"view"},{"type":"function","name":"pendingRoleGrants","inputs":[{"name":"","type":"bytes32","internalType":"bytes32"},{"name":"","type":"address","internalType":"address"}],"outputs":[{"name":"","type":"uint256","internalType":"uint256"}],"stateMutability":"view"},{"type":"function","name":"renounceRole","inputs":[{"name":"role","type":"bytes32","internalType":"bytes32"},{"name":"callerConfirmation","type":"address","internalType":"address"}],"outputs":[],"stateMutability":"nonpayable"},{"type":"function","name":"revokeRole","inputs":[{"name":"role","type":"bytes32","internalType":"bytes32"},{"name":"account","type":"address","internalType":"address"}],"outputs":[],"stateMutability":"nonpayable"},{"type":"function","name":"revokeRoleWithCheck","inputs":[{"name":"role","type":"bytes32","internalType":"bytes32"},{"name":"account","type":"address","internalType":"address"}],"outputs":[],"stateMutability":"nonpayable"},{"type":"function","name":"scheduleRoleGrant","inputs":[{"name":"role","type":"bytes32","internalType":"bytes32"},{"name":"account","type":"address","internalType":"address"}],"outputs":[],"stateMutability":"nonpayable"},{"type":"function","name":"supportsInterface","inputs":[{"name":"interfaceId","type":"bytes4","internalType":"bytes4"}],"outputs":[{"name":"","type":"bool","internalType":"bool"}],"stateMutability":"view"},{"type":"function","name":"unpause","inputs":[],"outputs":[],"stateMutability":"nonpayable"},{"type":"event","name":"EmergencyPaused","inputs":[{"name":"pauser","type":"address","indexed":true,"internalType":"address"},{"name":"reason","type":"string","indexed":false,"internalType":"string"}],"anonymous":false},{"type":"event","name":"EmergencyUnpaused","inputs":[{"name":"unpauser","type":"address","indexed":true,"internalType":"address"}],"anonymous":false},{"type":"event","name":"Paused","inputs":[{"name":"account","type":"address","indexed":false,"internalType":"address"}],"anonymous":false},{"type":"event","name":"RoleAdminChanged","inputs":[{"name":"role","type":"bytes32","indexed":true,"internalType":"bytes32"},{"name":"previousAdminRole","type":"bytes32","indexed":true,"internalType":"bytes32"},{"name":"newAdminRole","type":"bytes32","indexed":true,"internalType":"bytes32"}],"anonymous":false},{"type":"event","name":"RoleGrantCancelled","inputs":[{"name":"role","type":"bytes32","indexed":true,"internalType":"bytes32"},{"name":"account","type":"address","indexed":true,"internalType":"address"},{"name":"canceller","type":"address","indexed":true,"internalType":"address"}],"anonymous":false},{"type":"event","name":"RoleGrantExecuted","inputs":[{"name":"role","type":"bytes32","indexed":true,"internalType":"bytes32"},{"name":"account","type":"address","indexed":true,"internalType":"address"},{"name":"executor","type":"address","indexed":true,"internalType":"address"}],"anonymous":false},{"type":"event","name":"RoleGrantScheduled","inputs":[{"name":"role","type":"bytes32","indexed":true,"internalType":"bytes32"},{"name":"account","type":"address","indexed":true,"internalType":"address"},{"name":"scheduler","type":"address","indexed":true,"internalType":"address"},{"name":"executeAfter","type":"uint256","indexed":false,"internalType":"uint256"}],"anonymous":false},{"type":"event","name":"RoleGranted","inputs":[{"name":"role","type":"bytes32","indexed":true,"internalType":"bytes32"},{"name":"account","type":"address","indexed":true,"internalType":"address"},{"name":"sender","type":"address","indexed":true,"internalType":"address"}],"anonymous":false},{"type":"event","name":"RoleRevoked","inputs":[{"name":"role","type":"bytes32","indexed":true,"internalType":"bytes32"},{"name":"account","type":"address","indexed":true,"internalType":"address"},{"name":"sender","type":"address","indexed":true,"internalType":"address"}],"anonymous":false},{"type":"event","name":"Unpaused","inputs":[{"name":"account","type":"address","indexed":false,"internalType":"address"}],"anonymous":false},{"type":"error","name":"AccessControlBadConfirmation","inputs":[]},{"type":"error","name":"AccessControlUnauthorizedAccount","inputs":[{"name":"account","type":"address","internalType":"address"},{"name":"neededRole","type":"bytes32","internalType":"bytes32"}]},{"type":"error","name":"AlreadyHasRole","inputs":[{"name":"role","type":"bytes32","internalType":"bytes32"},{"name":"account","type":"address","internalType":"address"}]},{"type":"error","name":"CannotRevokeLastAdmin","inputs":[]},{"type":"error","name":"EnforcedPause","inputs":[]},{"type":"error","name":"ExpectedPause","inputs":[]},{"type":"error","name":"InvalidAddress","inputs":[{"name":"account","type":"address","internalType":"address"}]},{"type":"error","name":"InvalidRole","inputs":[{"name":"role","type":"bytes32","internalType":"bytes32"}]},{"type":"error","name":"LengthMismatch","inputs":[{"name":"rolesLength","type":"uint256","internalType":"uint256"},{"name":"accountsLength","type":"uint256","internalType":"uint256"}]},{"type":"error","name":"NoScheduledGrant","inputs":[{"name":"role","type":"bytes32","internalType":"bytes32"},{"name":"account","type":"address","internalType":"address"}]},{"type":"error","name":"TimelockNotExpired","inputs":[{"name":"currentTime","type":"uint256","internalType":"uint256"},{"name":"executeAfter","type":"uint256","internalType":"uint256"}]}],"bytecode":{"object":"0x60803461019057601f61171838819003918201601f19168301916001600160401b038311848410176101945780849260209460405283398101031261019057516001600160a01b0381169081810361019057811561017d578061006461016e92610206565b5061006e8161027c565b50610078816102fc565b506100828161037c565b505f805260036020526100b5817f3617319a054d772f909f7c479a2cebe5066e836a939412e32403c99029b92eff6101a8565b5f5160206116b85f395f51905f525f5260036020526100f4817fa665d3385c074a5fa4bcec2a570c94dbdb08d6b09bca4e08f8c3951c94a3d9986101a8565b5f5160206116985f395f51905f525f526003602052610133817f30adeb818ef77f204f5a603c30fa5332397b6e28fb3b7f9d937ae6a6914716de6101a8565b5f5160206116785f395f51905f525f5260036020527f58119bd1515bb97484111fa3e15ff9e20a5d0b7ad0f6b02809d8aa2ce9c5f47e6101a8565b60405161121b90816103fd8239f35b50634726455360e11b5f5260045260245ffd5b5f80fd5b634e487b7160e01b5f52604160045260245ffd5b8054906801000000000000000082101561019457600182018082558210156101f2575f908152602090200180546001600160a01b0319166001600160a01b03909216919091179055565b634e487b7160e01b5f52603260045260245ffd5b6001600160a01b0381165f9081525f5160206116d85f395f51905f52602052604090205460ff16610277576001600160a01b03165f8181525f5160206116d85f395f51905f5260205260408120805460ff191660011790553391905f5160206116185f395f51905f528180a4600190565b505f90565b6001600160a01b0381165f9081525f5160206116385f395f51905f52602052604090205460ff16610277576001600160a01b03165f8181525f5160206116385f395f51905f5260205260408120805460ff191660011790553391905f5160206116b85f395f51905f52905f5160206116185f395f51905f529080a4600190565b6001600160a01b0381165f9081525f5160206116585f395f51905f52602052604090205460ff16610277576001600160a01b03165f8181525f5160206116585f395f51905f5260205260408120805460ff191660011790553391905f5160206116985f395f51905f52905f5160206116185f395f51905f529080a4600190565b6001600160a01b0381165f9081525f5160206116f85f395f51905f52602052604090205460ff16610277576001600160a01b03165f8181525f5160206116f85f395f51905f5260205260408120805460ff191660011790553391905f5160206116785f395f51905f52905f5160206116185f395f51905f529080a460019056fe6080806040526004361015610012575f80fd5b5f3560e01c90816301ffc9a714610e5c5750806303ca995014610dde57806305db2f4114610e225780630c3293c414610dde5780630f592acc14610dc1578063248a9ca314610d8f57806324d7806c14610cdb5780632796a9e014610c7f5780632f2ff15d14610c4257806336568abe14610bfe5780633b0c7d0b14610b475780633f4ba83a14610a575780635c975abb146104a75780636200354a14610957578063653160981461081d57806368ca78f9146108045780636da66355146106a45780636fcc91461461068157806375b238fc1461064757806391d14854146105ff5780639cea0787146105c5578063a217fddf146105ab578063a3246ad3146104c9578063b187bd26146104a7578063bdd5fcd214610330578063ca15c87314610306578063d547741f146102c2578063dc2092c1146101de578063e63ab1e9146101a45763e7705db614610166575f80fd5b346101a0575f3660031901126101a05760206040517f0ce23c3e399818cfee81a7ab0880f714e53d7672b08df0fa62f2843416e1ea098152f35b5f80fd5b346101a0575f3660031901126101a05760206040517f65d7a28e3265b37a6474929f336521b332c1681b933f6cb9f3376673440d862a8152f35b346101a05760403660031901126101a0576004356101fa610eaf565b90610203611001565b805f52600260205260405f2060018060a01b0383165f5260205260405f205480156102a45780421061028e57505f8181526002602090815260408083206001600160a01b038616845290915281205561025c82826111a5565b33916001600160a01b0316907fe6b89cbc6b3d5f66cb6dc15940d5311bc3e1569726fc00324a47f6e8c3c7755a5f80a4005b63126b74dd60e11b5f524260045260245260445ffd5b506303ae162560e11b5f5260045260018060a01b031660245260445ffd5b346101a05760403660031901126101a0576103046004356102e1610eaf565b906102ff6102fa825f525f602052600160405f20015490565b611050565b611110565b005b346101a05760203660031901126101a0576004355f526003602052602060405f2054604051908152f35b346101a05760403660031901126101a05760043561034c610eaf565b90610355611001565b8015610467575b6103668282611110565b505f908152600360205260408120916001600160a01b0316905b82548082101561030457826103958386611190565b905460039190911b1c6001600160a01b0316146103b55750600101610380565b5f19810192508211610453576103ea6103d161040e9385611190565b905460039190911b1c6001600160a01b03169184611190565b81546001600160a01b0393841660039290921b91821b9390911b1916919091179055565b8054801561043f575f1901906104248282611190565b81546001600160a01b0360039290921b9190911b1916905555005b634e487b7160e01b5f52603160045260245ffd5b634e487b7160e01b5f52601160045260245ffd5b5f805260036020527f3617319a054d772f909f7c479a2cebe5066e836a939412e32403c99029b92eff5460011061035c57633d9e2b1360e11b5f5260045ffd5b346101a0575f3660031901126101a057602060ff600154166040519015158152f35b346101a05760203660031901126101a0576004355f52600360205260405f2060405190816020825491828152019081925f5260205f20905f5b81811061058c57505050829003601f01601f191682019167ffffffffffffffff8311818410176105785790829182604052602083019060208452518091526040830191905f5b818110610556575050500390f35b82516001600160a01b0316845285945060209384019390920191600101610548565b634e487b7160e01b5f52604160045260245ffd5b82546001600160a01b0316845260209093019260019283019201610502565b346101a0575f3660031901126101a05760206040515f8152f35b346101a0575f3660031901126101a05760206040517f16ceee8289685dd2a02b9c8ae81d2df373176ce53519e6284e2a2950d6546ffa8152f35b346101a05760403660031901126101a057610618610eaf565b6004355f525f60205260405f209060018060a01b03165f52602052602060ff60405f2054166040519015158152f35b346101a0575f3660031901126101a05760206040517fa49807205ce4d355092ef5a8a18f56e8913cf4a201fbe287825b095693c217758152f35b346101a057602061069a61069436610ef6565b91610fcb565b6040519015158152f35b346101a05760203660031901126101a05760043567ffffffffffffffff81116101a057366023820112156101a05780600401359067ffffffffffffffff82116101a05736602483830101116101a057335f9081527ff7c9542c591017a21c74b6f3fab6263c7952fc0aaf9db4c22a2a04ddc7f8674f602052604090205460ff16156107cd576001549060ff82166107be5760017f375c0abd968f4602b557f6ac9a48ffc89820233aa9becc5d7ff1176fd09eafff9260ff1916176001557f62e78cea01bee320cd4e420270b5ea74000d11b0c9f74754ebdbfc544b05a2586020604051338152a182602460405192602084528260208501520160408301375f604084830101526040813394601f80199101168101030190a2005b63d93c066560e01b5f5260045ffd5b63e2517d3f60e01b5f52336004527f65d7a28e3265b37a6474929f336521b332c1681b933f6cb9f3376673440d862a60245260445ffd5b346101a057602061069a61081736610ef6565b91610f72565b346101a05760403660031901126101a057600435610839610eaf565b610841611001565b6001600160a01b03811690811561094457825f525f60205260405f20825f5260205260ff60405f20541661092d5782158015610904575b156108d257506201518042019182421161045357805f52600260205260405f20825f526020528260405f20556040519283527f19778ea67577bff6e2c1e33661b2e4ff8bc8c70ec28739bfeb5ae1adf8777df160203394a4005b6108dc90836111a5565b33917fe6b89cbc6b3d5f66cb6dc15940d5311bc3e1569726fc00324a47f6e8c3c7755a5f80a4005b507fa49807205ce4d355092ef5a8a18f56e8913cf4a201fbe287825b095693c217758314610878565b509063ed8c1e4360e01b5f5260045260245260445ffd5b50634726455360e11b5f5260045260245ffd5b346101a05760403660031901126101a05760043567ffffffffffffffff81116101a057610988903690600401610ec5565b60243567ffffffffffffffff81116101a0576109a8903690600401610ec5565b906109b1611001565b818303610a40575f5b8381106109c357005b80610a0c6109d46001938789610f3a565b356109e86109e3848888610f3a565b610f5e565b905f525f60205260405f209060018060a01b03165f5260205260ff60405f20541690565b15610a18575b016109ba565b610a3b610a26828789610f3a565b35610a356109e3848888610f3a565b906111a5565b610a12565b50906355c5b3e360e11b5f5260045260245260445ffd5b346101a0575f3660031901126101a057335f9081527f7d7ffb7a348e1c6a02869081a26547b49160dd3df72d1d75a570eb9b698292ec602052604090205460ff1615610b105760015460ff811615610b015760ff19166001557f5db9ee0a495bf2e6ff9c91a7834c1ba4fdd244a5e8aa4e537bd38aeae4b073aa6020604051338152a1337ff5cbf596165cc457b2cd92e8d8450827ee314968160a5696402d75766fc52caf5f80a2005b638dfc202b60e01b5f5260045ffd5b63e2517d3f60e01b5f52336004527fa49807205ce4d355092ef5a8a18f56e8913cf4a201fbe287825b095693c2177560245260445ffd5b346101a05760403660031901126101a057600435610b63610eaf565b90610b6c611001565b805f52600260205260405f2060018060a01b0383165f5260205260405f205415610be157805f52600260205260405f2060018060a01b0383165f526020525f6040812055339160018060a01b0316907ff033a413ce556bee5ce1ef90ab6b0216db50b1462e9aa8d1d88917a0c1ac8ccd5f80a4005b6303ae162560e11b5f5260045260018060a01b031660245260445ffd5b346101a05760403660031901126101a057610c17610eaf565b336001600160a01b03821603610c335761030490600435611110565b63334bd91960e11b5f5260045ffd5b346101a05760403660031901126101a057610304600435610c61610eaf565b90610c7a6102fa825f525f602052600160405f20015490565b611088565b346101a05760403660031901126101a057610c98610eaf565b6004355f52600260205260405f209060018060a01b03165f52602052602060405f20548015159081610cd0575b506040519015158152f35b905042101582610cc5565b346101a05760203660031901126101a0576004356001600160a01b03811681036101a0576001600160a01b0381165f9081527fad3228b676f7d3cd4284a5443f17f1962b36e491b30a40b2405849e597ba5fb5602052604090205460ff168015610d4d575b6020906040519015158152f35b506001600160a01b03165f9081527f7d7ffb7a348e1c6a02869081a26547b49160dd3df72d1d75a570eb9b698292ec602090815260409091205460ff16610d40565b346101a05760203660031901126101a0576020610db96004355f525f602052600160405f20015490565b604051908152f35b346101a0575f3660031901126101a0576020604051620151808152f35b346101a05760403660031901126101a057610df7610eaf565b6004355f52600260205260405f209060018060a01b03165f52602052602060405f2054604051908152f35b346101a0575f3660031901126101a05760206040517f6c0757dc3e6b28b2580c03fd9e96c274acf4f99d91fbec9b418fa1d70604ff1c8152f35b346101a05760203660031901126101a0576004359063ffffffff60e01b82168092036101a057602091637965db0b60e01b8114908115610e9e575b5015158152f35b6301ffc9a760e01b14905083610e97565b602435906001600160a01b03821682036101a057565b9181601f840112156101a05782359167ffffffffffffffff83116101a0576020808501948460051b0101116101a057565b9060406003198301126101a0576004356001600160a01b03811681036101a057916024359067ffffffffffffffff82116101a057610f3691600401610ec5565b9091565b9190811015610f4a5760051b0190565b634e487b7160e01b5f52603260045260245ffd5b356001600160a01b03811681036101a05790565b5f5b838110610f8357505050505f90565b610fb682610f92838787610f3a565b355f525f60205260405f209060018060a01b03165f5260205260ff60405f20541690565b610fc257600101610f74565b50505050600190565b5f5b838110610fdd5750505050600190565b610fec82610f92838787610f3a565b15610ff957600101610fcd565b505050505f90565b335f9081527fad3228b676f7d3cd4284a5443f17f1962b36e491b30a40b2405849e597ba5fb5602052604090205460ff161561103957565b63e2517d3f60e01b5f52336004525f60245260445ffd5b5f8181526020818152604080832033845290915290205460ff16156110725750565b63e2517d3f60e01b5f523360045260245260445ffd5b5f818152602081815260408083206001600160a01b038616845290915290205460ff1661110a575f818152602081815260408083206001600160a01b0395909516808452949091528120805460ff19166001179055339291907f2f8788117e7eff1d82e926ec794901d17c78024a50270940304540a733656f0d9080a4600190565b50505f90565b5f818152602081815260408083206001600160a01b038616845290915290205460ff161561110a575f818152602081815260408083206001600160a01b0395909516808452949091528120805460ff19169055339291907ff6391f5c32d9c69d2a47ea670b442974b53935d1edc7fd64eb21e047a839171b9080a4600190565b8054821015610f4a575f5260205f2001905f90565b6111af8282611088565b505f52600360205260405f20908154916801000000000000000083101561057857826103ea9160016111e395018155611190565b56fea2646970667358221220eedfd87969a51fdf10307d7f4dacc930713f529117e44afeab06401fd4bf2d8e64736f6c634300081c00332f8788117e7eff1d82e926ec794901d17c78024a50270940304540a733656f0d7d7ffb7a348e1c6a02869081a26547b49160dd3df72d1d75a570eb9b698292ecf7c9542c591017a21c74b6f3fab6263c7952fc0aaf9db4c22a2a04ddc7f8674f6c0757dc3e6b28b2580c03fd9e96c274acf4f99d91fbec9b418fa1d70604ff1c65d7a28e3265b37a6474929f336521b332c1681b933f6cb9f3376673440d862aa49807205ce4d355092ef5a8a18f56e8913cf4a201fbe287825b095693c21775ad3228b676f7d3cd4284a5443f17f1962b36e491b30a40b2405849e597ba5fb5175e50102ecf9cfc73f21ab2786f3296b7cae96dee56a3f6a84b3c656d591ada","linkReferences":{}},"methodIdentifiers":{"ADMIN_ROLE()":"75b238fc","ARBITRATOR_ROLE()":"9cea0787","DEFAULT_ADMIN_ROLE()":"a217fddf","FEE_MANAGER_ROLE()":"05db2f41","PAUSER_ROLE()":"e63ab1e9","ROLE_CHANGE_TIMELOCK()":"0f592acc","VERIFIER_ROLE()":"e7705db6","batchGrantRoles(bytes32[],address[])":"6200354a","canExecuteRoleGrant(bytes32,address)":"2796a9e0","cancelRoleGrant(bytes32,address)":"3b0c7d0b","executeRoleGrant(bytes32,address)":"dc2092c1","getPendingRoleGrant(bytes32,address)":"0c3293c4","getRoleAdmin(bytes32)":"248a9ca3","getRoleMemberCount(bytes32)":"ca15c873","getRoleMembers(bytes32)":"a3246ad3","grantRole(bytes32,address)":"2f2ff15d","hasAllRoles(address,bytes32[])":"6fcc9146","hasAnyRole(address,bytes32[])":"68ca78f9","hasRole(bytes32,address)":"91d14854","isAdmin(address)":"24d7806c","isPaused()":"b187bd26","pause(string)":"6da66355","paused()":"5c975abb","pendingRoleGrants(bytes32,address)":"03ca9950","renounceRole(bytes32,address)":"36568abe","revokeRole(bytes32,address)":"d547741f","revokeRoleWithCheck(bytes32,address)":"bdd5fcd2","scheduleRoleGrant(bytes32,address)":"65316098","supportsInterface(bytes4)":"01ffc9a7","unpause()":"3f4ba83a"},"id":76}