{"abi":[{"type":"constructor","inputs":[{"name":"_singlesNFT721","type":"address","internalType":"address"},{"name":"_singlesNFT1155","type":"address","internalType":"address"},{"name":"_marketplaceCore","type":"address","internalType":"address"}],"stateMutability":"nonpayable"},{"type":"function","name":"getSharedCollections","inputs":[],"outputs":[{"name":"nft721","type":"address","internalType":"address"},{"name":"nft1155","type":"address","internalType":"address"}],"stateMutability":"view"},{"type":"function","name":"isApproved","inputs":[{"name":"user","type":"address","internalType":"address"}],"outputs":[{"name":"approved721","type":"bool","internalType":"bool"},{"name":"approved1155","type":"bool","internalType":"bool"}],"stateMutability":"view"},{"type":"function","name":"marketplaceCore","inputs":[],"outputs":[{"name":"","type":"address","internalType":"contract MarketplaceCore"}],"stateMutability":"view"},{"type":"function","name":"mintAndList1155","inputs":[{"name":"amount","type":"uint256","internalType":"uint256"},{"name":"maxSupply","type":"uint256","internalType":"uint256"},{"name":"tokenURI","type":"string","internalType":"string"},{"name":"price","type":"uint256","internalType":"uint256"},{"name":"quantityToList","type":"uint256","internalType":"uint256"}],"outputs":[{"name":"tokenId","type":"uint256","internalType":"uint256"},{"name":"listingId","type":"uint256","internalType":"uint256"}],"stateMutability":"nonpayable"},{"type":"function","name":"mintAndList721","inputs":[{"name":"tokenURI","type":"string","internalType":"string"},{"name":"price","type":"uint256","internalType":"uint256"}],"outputs":[{"name":"tokenId","type":"uint256","internalType":"uint256"},{"name":"listingId","type":"uint256","internalType":"uint256"}],"stateMutability":"nonpayable"},{"type":"function","name":"onERC1155BatchReceived","inputs":[{"name":"","type":"address","internalType":"address"},{"name":"","type":"address","internalType":"address"},{"name":"","type":"uint256[]","internalType":"uint256[]"},{"name":"","type":"uint256[]","internalType":"uint256[]"},{"name":"","type":"bytes","internalType":"bytes"}],"outputs":[{"name":"","type":"bytes4","internalType":"bytes4"}],"stateMutability":"pure"},{"type":"function","name":"onERC1155Received","inputs":[{"name":"","type":"address","internalType":"address"},{"name":"","type":"address","internalType":"address"},{"name":"","type":"uint256","internalType":"uint256"},{"name":"","type":"uint256","internalType":"uint256"},{"name":"","type":"bytes","internalType":"bytes"}],"outputs":[{"name":"","type":"bytes4","internalType":"bytes4"}],"stateMutability":"pure"},{"type":"function","name":"onERC721Received","inputs":[{"name":"","type":"address","internalType":"address"},{"name":"","type":"address","internalType":"address"},{"name":"","type":"uint256","internalType":"uint256"},{"name":"","type":"bytes","internalType":"bytes"}],"outputs":[{"name":"","type":"bytes4","internalType":"bytes4"}],"stateMutability":"pure"},{"type":"function","name":"singlesNFT1155","inputs":[],"outputs":[{"name":"","type":"address","internalType":"contract VertixSinglesNFT1155"}],"stateMutability":"view"},{"type":"function","name":"singlesNFT721","inputs":[],"outputs":[{"name":"","type":"address","internalType":"contract VertixSinglesNFT721"}],"stateMutability":"view"},{"type":"function","name":"supportsInterface","inputs":[{"name":"interfaceId","type":"bytes4","internalType":"bytes4"}],"outputs":[{"name":"","type":"bool","internalType":"bool"}],"stateMutability":"pure"},{"type":"event","name":"SingleNFTMintedAndListed","inputs":[{"name":"creator","type":"address","indexed":true,"internalType":"address"},{"name":"tokenId","type":"uint256","indexed":true,"internalType":"uint256"},{"name":"listingId","type":"uint256","indexed":true,"internalType":"uint256"},{"name":"price","type":"uint256","indexed":false,"internalType":"uint256"},{"name":"nftContract","type":"address","indexed":false,"internalType":"address"}],"anonymous":false},{"type":"error","name":"InvalidAmount","inputs":[]},{"type":"error","name":"NotApproved","inputs":[]},{"type":"error","name":"ZeroAddress","inputs":[]}],"bytecode":{"object":"0x60e03461010b57601f610ddc38819003918201601f19168301916001600160401b0383118484101761010f5780849260609460405283398101031261010b5761004781610123565b61005f604061005860208501610123565b9301610123565b6001600160a01b039091169182156100fc576001600160a01b03169081156100fc576001600160a01b03169182156100fc5760805260a05260c052604051610ca490816101388239608051818181610578015281816107d20152818161084901526109aa015260a051818181610155015281816108bc0152818161095d01526109cf015260c051818181610179015281816106110152610a0b0152f35b63d92e233d60e01b5f5260045ffd5b5f80fd5b634e487b7160e01b5f52604160045260245ffd5b51906001600160a01b038216820361010b5756fe6080806040526004361015610012575f80fd5b5f905f3560e01c90816301ffc9a714610a9157508063150b7a0214610a3a578063287b19ed146109f6578063306279ea1461098c57806363c5062e14610948578063673448dd1461080157806372ba9ab7146107bd578063ad9b823614610524578063bc197c8114610488578063f135ed1e146100f35763f23a6e6114610097575f80fd5b346100f05760a03660031901126100f0576100b0610afc565b506100b9610b12565b5060843567ffffffffffffffff81116100ee576100da903690600401610b28565b505060405163f23a6e6160e01b8152602090f35b505b80fd5b50346100f05760a03660031901126100f0576004359060443567ffffffffffffffff81116100ee57610129903690600401610b8c565b60843592606435918415801561047f575b610470576040516351ef182d60e01b81526001600160a01b037f00000000000000000000000000000000000000000000000000000000000000008116937f0000000000000000000000000000000000000000000000000000000000000000909116929091602081600481875afa908115610438576101ec916020918991610443575b5060405163e985e9c560e01b81523360048201526001600160a01b03909116602482015291829081906044820190565b0381885afa908115610438578791610409575b50156103fa57918596916020610240979481604051998a92633f9a835d60e21b84528560048501526024356024850152608060448501526084840190610c2b565b87838203916003198301606486015252018187895af19687156103b45784976103c3575b50843b156103bf5760405190637921219560e11b8252306004830152336024830152876044830152606482015260a060848201528360a4820152838160c48183895af19081156103b457849161039b575b505060c460209260405194859384926306e3f6b560e21b84523360048501528860248501528a60448501526064840152886084840152600160a48401525af194851561038f5794610357575b50604080519283526001600160a01b03909116602083015292908190839033907f333e9133ebcffe1638c06452113d69d3e1ee7e05a88855999a8e4aabd864b83d90808089015b0390a482519182526020820152f35b93506020843d602011610387575b8161037260209383610b56565b810103126103835792519282610301565b5f80fd5b3d9150610365565b604051903d90823e3d90fd5b816103a591610b56565b6103b057825f6102b5565b8280fd5b6040513d86823e3d90fd5b8380fd5b935095506020833d6020116103f2575b816103e060209383610b56565b8101031261038357869251955f610264565b3d91506103d3565b63c19f17a960e01b8652600486fd5b61042b915060203d602011610431575b6104238183610b56565b810190610c13565b5f6101ff565b503d610419565b6040513d89823e3d90fd5b6104639150823d8411610469575b61045b8183610b56565b810190610c4f565b5f6101bc565b503d610451565b63162908e360e11b8452600484fd5b5081851161013a565b50346100f05760a03660031901126100f0576104a2610afc565b506104ab610b12565b5060443567ffffffffffffffff81116100ee576104cc903690600401610be2565b505060643567ffffffffffffffff81116100ee576104ee903690600401610be2565b505060843567ffffffffffffffff81116100ee57610510903690600401610b28565b505060405163bc197c8160e01b8152602090f35b50346103835760403660031901126103835760043567ffffffffffffffff8111610383576105596105af913690600401610b8c565b6040516369bb7d5b60e11b8152602060048201819052909260248035937f00000000000000000000000000000000000000000000000000000000000000006001600160a01b031693928692839290830190610c2b565b03815f855af192831561077e575f93610789575b50803b15610383576040516323b872dd60e01b8152306004820152336024820152604481018490525f8160648183865af1801561077e57610769575b506040516351ef182d60e01b815284907f00000000000000000000000000000000000000000000000000000000000000006001600160a01b031690602081600481855afa90811561073f57839161074a575b50833b156103b05760405163095ea7b360e01b81526001600160a01b03909116600482015260248101869052828160448183885af190811561073f57839161072a575b505060209060c4604051809481936306e3f6b560e21b8352336004840152876024840152896044840152600160648401528860848401528160a48401525af194851561038f57946103575750604080519283526001600160a01b03909116602083015292908190839033907f333e9133ebcffe1638c06452113d69d3e1ee7e05a88855999a8e4aabd864b83d9080808901610348565b8161073491610b56565b6100ee57815f610694565b6040513d85823e3d90fd5b610763915060203d6020116104695761045b8183610b56565b5f610651565b6107769194505f90610b56565b5f925f6105ff565b6040513d5f823e3d90fd5b9092506020813d6020116107b5575b816107a560209383610b56565b810103126103835751915f6105c3565b3d9150610798565b34610383575f366003190112610383576040517f00000000000000000000000000000000000000000000000000000000000000006001600160a01b03168152602090f35b346103835760203660031901126103835761081a610afc565b60405163e985e9c560e01b81526001600160a01b038216600482015230602482015290602082806044810103817f00000000000000000000000000000000000000000000000000000000000000006001600160a01b03165afa90811561077e576108b8925f92610926575b5060405163e985e9c560e01b81526001600160a01b03909116600482015230602482015291602090839081906044820190565b03817f00000000000000000000000000000000000000000000000000000000000000006001600160a01b03165afa801561077e576040925f91610907575b508251911515825215156020820152f35b610920915060203d602011610431576104238183610b56565b836108f6565b602091925061094190823d8411610431576104238183610b56565b9190610885565b34610383575f366003190112610383576040517f00000000000000000000000000000000000000000000000000000000000000006001600160a01b03168152602090f35b34610383575f36600319011261038357604080516001600160a01b037f0000000000000000000000000000000000000000000000000000000000000000811682527f0000000000000000000000000000000000000000000000000000000000000000166020820152f35b34610383575f366003190112610383576040517f00000000000000000000000000000000000000000000000000000000000000006001600160a01b03168152602090f35b3461038357608036600319011261038357610a53610afc565b50610a5c610b12565b5060643567ffffffffffffffff811161038357610a7d903690600401610b28565b5050604051630a85bd0160e11b8152602090f35b34610383576020366003190112610383576004359063ffffffff60e01b821680920361038357602091630a85bd0160e11b8114908115610aeb575b8115610ada575b5015158152f35b6301ffc9a760e01b14905083610ad3565b630271189760e51b81149150610acc565b600435906001600160a01b038216820361038357565b602435906001600160a01b038216820361038357565b9181601f840112156103835782359167ffffffffffffffff8311610383576020838186019501011161038357565b90601f8019910116810190811067ffffffffffffffff821117610b7857604052565b634e487b7160e01b5f52604160045260245ffd5b81601f820112156103835780359067ffffffffffffffff8211610b785760405192610bc1601f8401601f191660200185610b56565b8284526020838301011161038357815f926020809301838601378301015290565b9181601f840112156103835782359167ffffffffffffffff8311610383576020808501948460051b01011161038357565b90816020910312610383575180151581036103835790565b805180835260209291819084018484015e5f828201840152601f01601f1916010190565b9081602091031261038357516001600160a01b0381168103610383579056fea2646970667358221220208b756b8ba3e66fa91225ee63b1e7b0fbf4b657bf4b2206513306af635ac11364736f6c634300081c0033","linkReferences":{}},"methodIdentifiers":{"getSharedCollections()":"306279ea","isApproved(address)":"673448dd","marketplaceCore()":"287b19ed","mintAndList1155(uint256,uint256,string,uint256,uint256)":"f135ed1e","mintAndList721(string,uint256)":"ad9b8236","onERC1155BatchReceived(address,address,uint256[],uint256[],bytes)":"bc197c81","onERC1155Received(address,address,uint256,uint256,bytes)":"f23a6e61","onERC721Received(address,address,uint256,bytes)":"150b7a02","singlesNFT1155()":"63c5062e","singlesNFT721()":"72ba9ab7","supportsInterface(bytes4)":"01ffc9a7"},"id":88}