{"abi":[{"type":"constructor","inputs":[{"name":"_roleManager","type":"address","internalType":"address"}],"stateMutability":"nonpayable"},{"type":"function","name":"CHALLENGE_PERIOD","inputs":[],"outputs":[{"name":"","type":"uint256","internalType":"uint256"}],"stateMutability":"view"},{"type":"function","name":"CHALLENGE_STAKE","inputs":[],"outputs":[{"name":"","type":"uint256","internalType":"uint256"}],"stateMutability":"view"},{"type":"function","name":"addVerification","inputs":[{"name":"owner","type":"address","internalType":"address"},{"name":"assetType","type":"uint8","internalType":"enum AssetTypes.AssetType"},{"name":"proofHash","type":"bytes32","internalType":"bytes32"},{"name":"expiresAt","type":"uint256","internalType":"uint256"},{"name":"metadataURI","type":"string","internalType":"string"}],"outputs":[{"name":"verificationId","type":"uint256","internalType":"uint256"}],"stateMutability":"nonpayable"},{"type":"function","name":"addVerifier","inputs":[{"name":"verifier","type":"address","internalType":"address"}],"outputs":[],"stateMutability":"nonpayable"},{"type":"function","name":"challengeCounter","inputs":[],"outputs":[{"name":"","type":"uint256","internalType":"uint256"}],"stateMutability":"view"},{"type":"function","name":"challengeVerification","inputs":[{"name":"verificationId","type":"uint256","internalType":"uint256"},{"name":"evidence","type":"string","internalType":"string"}],"outputs":[],"stateMutability":"payable"},{"type":"function","name":"challenges","inputs":[{"name":"","type":"uint256","internalType":"uint256"}],"outputs":[{"name":"challenger","type":"address","internalType":"address"},{"name":"stake","type":"uint256","internalType":"uint256"},{"name":"evidence","type":"string","internalType":"string"},{"name":"challengedAt","type":"uint32","internalType":"uint32"},{"name":"status","type":"uint8","internalType":"enum VerificationRegistry.ChallengeStatus"}],"stateMutability":"view"},{"type":"function","name":"finalizeUserVerification","inputs":[{"name":"verificationId","type":"uint256","internalType":"uint256"}],"outputs":[],"stateMutability":"nonpayable"},{"type":"function","name":"getOwnerVerifications","inputs":[{"name":"owner","type":"address","internalType":"address"}],"outputs":[{"name":"","type":"uint256[]","internalType":"uint256[]"}],"stateMutability":"view"},{"type":"function","name":"getVerification","inputs":[{"name":"verificationId","type":"uint256","internalType":"uint256"}],"outputs":[{"name":"","type":"tuple","internalType":"struct IVerificationRegistry.Verification","components":[{"name":"proofHash","type":"bytes32","internalType":"bytes32"},{"name":"verifier","type":"address","internalType":"address"},{"name":"verifiedAt","type":"uint32","internalType":"uint32"},{"name":"expiresAt","type":"uint32","internalType":"uint32"},{"name":"assetType","type":"uint8","internalType":"enum AssetTypes.AssetType"},{"name":"isActive","type":"bool","internalType":"bool"},{"name":"verificationCount","type":"uint16","internalType":"uint16"}]}],"stateMutability":"view"},{"type":"function","name":"getVerificationByOwnerAndType","inputs":[{"name":"owner","type":"address","internalType":"address"},{"name":"assetType","type":"uint8","internalType":"enum AssetTypes.AssetType"}],"outputs":[{"name":"","type":"uint256","internalType":"uint256"}],"stateMutability":"view"},{"type":"function","name":"isExpired","inputs":[{"name":"verificationId","type":"uint256","internalType":"uint256"}],"outputs":[{"name":"","type":"bool","internalType":"bool"}],"stateMutability":"view"},{"type":"function","name":"isVerified","inputs":[{"name":"owner","type":"address","internalType":"address"},{"name":"assetType","type":"uint8","internalType":"enum AssetTypes.AssetType"}],"outputs":[{"name":"","type":"bool","internalType":"bool"}],"stateMutability":"view"},{"type":"function","name":"ownerAssetVerification","inputs":[{"name":"","type":"address","internalType":"address"},{"name":"","type":"uint8","internalType":"enum AssetTypes.AssetType"}],"outputs":[{"name":"","type":"uint256","internalType":"uint256"}],"stateMutability":"view"},{"type":"function","name":"ownerVerifications","inputs":[{"name":"","type":"address","internalType":"address"},{"name":"","type":"uint256","internalType":"uint256"}],"outputs":[{"name":"","type":"uint256","internalType":"uint256"}],"stateMutability":"view"},{"type":"function","name":"pause","inputs":[],"outputs":[],"stateMutability":"nonpayable"},{"type":"function","name":"paused","inputs":[],"outputs":[{"name":"","type":"bool","internalType":"bool"}],"stateMutability":"view"},{"type":"function","name":"pendingVerifications","inputs":[{"name":"","type":"uint256","internalType":"uint256"}],"outputs":[{"name":"","type":"bool","internalType":"bool"}],"stateMutability":"view"},{"type":"function","name":"removeVerifier","inputs":[{"name":"verifier","type":"address","internalType":"address"}],"outputs":[],"stateMutability":"nonpayable"},{"type":"function","name":"renewVerification","inputs":[{"name":"verificationId","type":"uint256","internalType":"uint256"},{"name":"newExpiresAt","type":"uint256","internalType":"uint256"},{"name":"newProofHash","type":"bytes32","internalType":"bytes32"},{"name":"newMetadataURI","type":"string","internalType":"string"}],"outputs":[],"stateMutability":"nonpayable"},{"type":"function","name":"resolveChallenge","inputs":[{"name":"verificationId","type":"uint256","internalType":"uint256"},{"name":"approveChallenge","type":"bool","internalType":"bool"}],"outputs":[],"stateMutability":"nonpayable"},{"type":"function","name":"revokeVerification","inputs":[{"name":"verificationId","type":"uint256","internalType":"uint256"},{"name":"reason","type":"string","internalType":"string"}],"outputs":[],"stateMutability":"nonpayable"},{"type":"function","name":"roleManager","inputs":[],"outputs":[{"name":"","type":"address","internalType":"contract RoleManager"}],"stateMutability":"view"},{"type":"function","name":"submitUserVerification","inputs":[{"name":"assetType","type":"uint8","internalType":"enum AssetTypes.AssetType"},{"name":"proofHash","type":"bytes32","internalType":"bytes32"},{"name":"expiresAt","type":"uint256","internalType":"uint256"},{"name":"metadataURI","type":"string","internalType":"string"}],"outputs":[{"name":"verificationId","type":"uint256","internalType":"uint256"}],"stateMutability":"nonpayable"},{"type":"function","name":"unpause","inputs":[],"outputs":[],"stateMutability":"nonpayable"},{"type":"function","name":"verificationCounter","inputs":[],"outputs":[{"name":"","type":"uint256","internalType":"uint256"}],"stateMutability":"view"},{"type":"function","name":"verificationMetadata","inputs":[{"name":"","type":"uint256","internalType":"uint256"}],"outputs":[{"name":"","type":"string","internalType":"string"}],"stateMutability":"view"},{"type":"function","name":"verificationOwner","inputs":[{"name":"","type":"uint256","internalType":"uint256"}],"outputs":[{"name":"","type":"address","internalType":"address"}],"stateMutability":"view"},{"type":"function","name":"verifications","inputs":[{"name":"","type":"uint256","internalType":"uint256"}],"outputs":[{"name":"proofHash","type":"bytes32","internalType":"bytes32"},{"name":"verifier","type":"address","internalType":"address"},{"name":"verifiedAt","type":"uint32","internalType":"uint32"},{"name":"expiresAt","type":"uint32","internalType":"uint32"},{"name":"assetType","type":"uint8","internalType":"enum AssetTypes.AssetType"},{"name":"isActive","type":"bool","internalType":"bool"},{"name":"verificationCount","type":"uint16","internalType":"uint16"}],"stateMutability":"view"},{"type":"function","name":"whitelistedVerifiers","inputs":[{"name":"","type":"address","internalType":"address"}],"outputs":[{"name":"","type":"bool","internalType":"bool"}],"stateMutability":"view"},{"type":"event","name":"ChallengeResolved","inputs":[{"name":"verificationId","type":"uint256","indexed":true,"internalType":"uint256"},{"name":"challengeApproved","type":"bool","indexed":false,"internalType":"bool"},{"name":"challenger","type":"address","indexed":true,"internalType":"address"}],"anonymous":false},{"type":"event","name":"Paused","inputs":[{"name":"account","type":"address","indexed":false,"internalType":"address"}],"anonymous":false},{"type":"event","name":"Unpaused","inputs":[{"name":"account","type":"address","indexed":false,"internalType":"address"}],"anonymous":false},{"type":"event","name":"UserVerificationFinalized","inputs":[{"name":"verificationId","type":"uint256","indexed":true,"internalType":"uint256"},{"name":"owner","type":"address","indexed":true,"internalType":"address"},{"name":"assetType","type":"uint8","indexed":false,"internalType":"enum AssetTypes.AssetType"}],"anonymous":false},{"type":"event","name":"UserVerificationSubmitted","inputs":[{"name":"verificationId","type":"uint256","indexed":true,"internalType":"uint256"},{"name":"owner","type":"address","indexed":true,"internalType":"address"},{"name":"assetType","type":"uint8","indexed":false,"internalType":"enum AssetTypes.AssetType"},{"name":"proofHash","type":"bytes32","indexed":false,"internalType":"bytes32"},{"name":"expiresAt","type":"uint256","indexed":false,"internalType":"uint256"},{"name":"metadataURI","type":"string","indexed":false,"internalType":"string"}],"anonymous":false},{"type":"event","name":"VerificationAdded","inputs":[{"name":"verificationId","type":"uint256","indexed":true,"internalType":"uint256"},{"name":"owner","type":"address","indexed":true,"internalType":"address"},{"name":"verifier","type":"address","indexed":true,"internalType":"address"},{"name":"assetType","type":"uint8","indexed":false,"internalType":"enum AssetTypes.AssetType"},{"name":"proofHash","type":"bytes32","indexed":false,"internalType":"bytes32"},{"name":"expiresAt","type":"uint256","indexed":false,"internalType":"uint256"},{"name":"metadataURI","type":"string","indexed":false,"internalType":"string"}],"anonymous":false},{"type":"event","name":"VerificationChallenged","inputs":[{"name":"verificationId","type":"uint256","indexed":true,"internalType":"uint256"},{"name":"challenger","type":"address","indexed":true,"internalType":"address"},{"name":"evidence","type":"string","indexed":false,"internalType":"string"},{"name":"stake","type":"uint256","indexed":false,"internalType":"uint256"}],"anonymous":false},{"type":"event","name":"VerificationRenewed","inputs":[{"name":"verificationId","type":"uint256","indexed":true,"internalType":"uint256"},{"name":"owner","type":"address","indexed":true,"internalType":"address"},{"name":"newExpiresAt","type":"uint256","indexed":false,"internalType":"uint256"},{"name":"renewalCount","type":"uint256","indexed":false,"internalType":"uint256"}],"anonymous":false},{"type":"event","name":"VerificationRevoked","inputs":[{"name":"verificationId","type":"uint256","indexed":true,"internalType":"uint256"},{"name":"owner","type":"address","indexed":true,"internalType":"address"},{"name":"revokedBy","type":"address","indexed":false,"internalType":"address"},{"name":"reason","type":"string","indexed":false,"internalType":"string"}],"anonymous":false},{"type":"event","name":"VerifierAdded","inputs":[{"name":"verifier","type":"address","indexed":true,"internalType":"address"},{"name":"addedBy","type":"address","indexed":false,"internalType":"address"}],"anonymous":false},{"type":"event","name":"VerifierRemoved","inputs":[{"name":"verifier","type":"address","indexed":true,"internalType":"address"},{"name":"removedBy","type":"address","indexed":false,"internalType":"address"}],"anonymous":false},{"type":"error","name":"AlreadyVerified","inputs":[{"name":"owner","type":"address","internalType":"address"},{"name":"assetType","type":"uint8","internalType":"enum AssetTypes.AssetType"}]},{"type":"error","name":"ChallengePeriodEnded","inputs":[{"name":"verificationId","type":"uint256","internalType":"uint256"}]},{"type":"error","name":"ChallengePeriodNotEnded","inputs":[{"name":"verificationId","type":"uint256","internalType":"uint256"}]},{"type":"error","name":"EnforcedPause","inputs":[]},{"type":"error","name":"ExpectedPause","inputs":[]},{"type":"error","name":"InsufficientChallengeStake","inputs":[{"name":"provided","type":"uint256","internalType":"uint256"},{"name":"required","type":"uint256","internalType":"uint256"}]},{"type":"error","name":"InvalidAssetType","inputs":[{"name":"assetType","type":"uint8","internalType":"uint8"}]},{"type":"error","name":"InvalidExpiration","inputs":[{"name":"expiresAt","type":"uint256","internalType":"uint256"}]},{"type":"error","name":"InvalidOwner","inputs":[{"name":"owner","type":"address","internalType":"address"}]},{"type":"error","name":"InvalidProofHash","inputs":[]},{"type":"error","name":"InvalidRoleManager","inputs":[]},{"type":"error","name":"InvalidVerifier","inputs":[]},{"type":"error","name":"NoActiveChallenge","inputs":[{"name":"verificationId","type":"uint256","internalType":"uint256"}]},{"type":"error","name":"NotAdmin","inputs":[{"name":"caller","type":"address","internalType":"address"}]},{"type":"error","name":"NotAuthorized","inputs":[{"name":"caller","type":"address","internalType":"address"}]},{"type":"error","name":"NotPauser","inputs":[{"name":"caller","type":"address","internalType":"address"}]},{"type":"error","name":"ReentrancyGuardReentrantCall","inputs":[]},{"type":"error","name":"TransferFailed","inputs":[{"name":"recipient","type":"address","internalType":"address"},{"name":"amount","type":"uint256","internalType":"uint256"}]},{"type":"error","name":"UnauthorizedVerifier","inputs":[{"name":"caller","type":"address","internalType":"address"}]},{"type":"error","name":"VerificationAlreadyChallenged","inputs":[{"name":"verificationId","type":"uint256","internalType":"uint256"}]},{"type":"error","name":"VerificationExpired","inputs":[{"name":"verificationId","type":"uint256","internalType":"uint256"},{"name":"expiredAt","type":"uint256","internalType":"uint256"}]},{"type":"error","name":"VerificationHasActiveChallenge","inputs":[{"name":"verificationId","type":"uint256","internalType":"uint256"}]},{"type":"error","name":"VerificationNotActive","inputs":[{"name":"verificationId","type":"uint256","internalType":"uint256"}]},{"type":"error","name":"VerificationNotFound","inputs":[{"name":"verificationId","type":"uint256","internalType":"uint256"}]},{"type":"error","name":"VerificationNotPending","inputs":[{"name":"verificationId","type":"uint256","internalType":"uint256"}]},{"type":"error","name":"VerifierAlreadyWhitelisted","inputs":[{"name":"verifier","type":"address","internalType":"address"}]},{"type":"error","name":"VerifierNotWhitelisted","inputs":[{"name":"verifier","type":"address","internalType":"address"}]}],"bytecode":{"object":"0x60a0346100af57601f61257938819003918201601f19168301916001600160401b038311848410176100b3578084926020946040528339810103126100af57516001600160a01b038116908190036100af5760015f5580156100a0576080526040516124b190816100c8823960805181818161076101528181610e0f015281816110a2015281816112a5015281816115a4015281816117bf0152611fc10152f35b6309a53a6560e31b5f5260045ffd5b5f80fd5b634e487b7160e01b5f52604160045260245ffdfe6080806040526004361015610012575f80fd5b5f3560e01c908162435da514611faf5750806303feed2514611f6d57806316cd94fc14611f505780632f05d5ea14611c9c57806330daf170146118e157806333cbda85146106c05780633f4ba83a146117a057806345a2e18514611763578063483b26c114611567578063496dbd721461154457806355e953761461151557806358937cc8146113ff5780635c975abb146113dd5780638456cb59146112865780638f1d3776146111fd5780639000b3d61461107a57806394a754e014610de05780639b06afdb14610d2c5780639d9cd6dd14610975578063b90b0a10146108f1578063c3a079ed146108d4578063ca2dfd0a14610739578063d9548e53146106f8578063de246082146106c0578063e0386737146103b9578063e8f007b914610231578063e912ed63146101ff578063ef1d2547146101de578063f6f96d45146101865763f7fed02c14610165575f80fd5b34610182575f366003190112610182576020600b54604051908152f35b5f80fd5b346101825760403660031901126101825761019f612155565b6001600160a01b03165f90815260056020526040902080546024359190821015610182576020916101cf916121fe565b90549060031b1c604051908152f35b34610182575f366003190112610182576020604051662386f26fc100008152f35b34610182576020366003190112610182576004355f526007602052602060018060a01b0360405f205416604051908152f35b346101825760203660031901126101825760043561024d612407565b61025681612425565b805f52600360205260405f20815f52600a60205260ff60405f205416156103a65760010190815463ffffffff8160a01c1662093a80810180911161039257421061037f57815f52600960205260ff600360405f20015460201c16600481101561036b576001146103585760ff60e81b1916600160e81b1782555f818152600a60209081526040808320805460ff1916905560078252808320546001600160a01b0316808452600683529220845492947f9ed7be125c3b58b362a034061bb489a9753ed5eb5b043b61d58738a8cb4be8679360ff92869161033e9160e09190911c8516906121e8565b555460e01c1661035160405180926121db565ba360015f55005b50636c97906f60e11b5f5260045260245ffd5b634e487b7160e01b5f52602160045260245ffd5b50630722feaf60e51b5f5260045260245ffd5b634e487b7160e01b5f52601160045260245ffd5b5063a1b3e3d160e01b5f5260045260245ffd5b6103c23661219a565b91906103cc612407565b6103d582612425565b662386f26fc1000034106106a257815f52600360205260405f20825f52600a60205260ff60405f2054161561068f57600163ffffffff91015460a01c1662093a80810180911161039257421161067c57815f52600960205260ff600360405f20015460201c16600481101561036b57600114610669576040519060a082018281106001600160401b03821117610655576040523382526020820134815261047b856123ec565b926104896040519485612043565b858452368684011161018257858360208601375f6020878601015260408101938452606081019363ffffffff42168552608082019260018452865f52600960205260405f209260018060a01b039060018060a01b03905116166001600160601b0360a01b8454161783555160018301556002820190518051906001600160401b038211610655576105248261051e8554611ff0565b85612227565b602090601f83116001146105ea578263ffffffff95936003959361055d935f926105df575b50508160011b915f199060031b1c19161790565b90555b0193511663ffffffff198454161783555190600482101561036b577f6fcffc78d209bce1d48d349afc3bc92e35509e6f88022b382ee0fd1664e448a1926105cc9264ff0000000082549160201b169064ff000000001916179055604051946040865260408601916122c9565b923460208201528033940390a360015f55005b015190508c80610549565b90601f19831691845f52815f20925f5b81811061063d575092600192859263ffffffff98966003989610610626575b505050811b019055610560565b01515f1983881b60f8161c191690558b8080610619565b929360206001819287860151815501950193016105fa565b634e487b7160e01b5f52604160045260245ffd5b5063691313a760e11b5f5260045260245ffd5b50632c962cdf60e21b5f5260045260245ffd5b8263a1b3e3d160e01b5f5260045260245ffd5b6306026d1160e01b5f5234600452662386f26fc1000060245260445ffd5b346101825760206106ef6106d33661216b565b6001600160a01b039091165f90815260068452604090206121e8565b54604051908152f35b346101825760203660031901126101825760043561071581612425565b5f526003602052602063ffffffff600160405f20015460c01c164211604051908152f35b3461018257602036600319011261018257610752612155565b604051631d6c8e3f60e21b81527f00000000000000000000000000000000000000000000000000000000000000006001600160a01b031690602081600481855afa908115610895575f916108a0575b50604051632474521560e21b815260048101919091523360248201529060209082908180604481015b03915afa908115610895575f91610866575b5015610853576001600160a01b03165f8181526008602052604090205460ff161561084157805f52600860205260405f2060ff1981541690557f490861baee43b8ebd28f134f99c0aa7848888c4bde402256ad4cf455d147aed66020604051338152a2005b631f312d3b60e31b5f5260045260245ffd5b630bd4212160e11b5f523360045260245ffd5b610888915060203d60201161088e575b6108808183612043565b810190612316565b826107dc565b503d610876565b6040513d5f823e3d90fd5b90506020813d6020116108cc575b816108bb60209383612043565b8101031261018257516107ca6107a1565b3d91506108ae565b34610182575f36600319011261018257602060405162093a808152f35b34610182576020366003190112610182576004355f52600360205260e060405f206001815491015460405191825260018060a01b038116602083015263ffffffff8160a01c16604083015263ffffffff8160c01c16606083015261095d6080830160ff83861c166121db565b60ff8160e81c16151560a083015260f01c60c0820152f35b3461018257608036600319011261018257600435600d8110156101825760243590604435906064356001600160401b038111610182576109b9903690600401612128565b936109c2612407565b8015610d1d5762093a80420180421161039257841115610d0a576109e583612452565b335f5260066020526109fa8360405f206121e8565b548015159081610ced575b50610cd157610a15600254612276565b938460025584604051610a2781612028565b83815260208101903382526040810163ffffffff42168152610ae163ffffffff6060840181881681526080850193610a5f8c86612284565b5f60a0878101828152600160c0808b018281529c85526003602052604090942099518a5599519890990180549351945163ffffffff60c01b1987841b196001600160a01b0319969096166001600160a01b039b909b169a909a179490941694861690911b9390931796909616921690941b63ffffffff60c01b16178355919291565b5192600d84101561036b578254915161ffff60e01b1990921660e09490941b60ff60e01b169390931790151560e81b60ff60e81b16178155610b429161ffff905b5182546001600160f01b0316911660f01b6001600160f01b031916179055565b845f52600a60205260405f20600160ff19825416179055845f52600460205260405f20916001600160401b038711610655578683610b8d602099610b878a9754611ff0565b83612227565b5f601f8311600114610c4557958291610be183610c2b957f99950b80a4b951d708483928fcbc9ae6532d3ae744d852255ea16487b9eea452999a5f91610c3a575b508160011b915f199060031b1c19161790565b90555b335f5260058a52610bf88760405f20612290565b865f5260078a5260405f2060018060a01b0333166001600160601b0360a01b8254161790556040519485943399866122e9565b0390a360015f55604051908152f35b90508401358e610bce565b9590601f198316815f528a5f20905f5b818110610cb75750907f99950b80a4b951d708483928fcbc9ae6532d3ae744d852255ea16487b9eea452979885610c2b9695949310610c9e575b5050600183811b019055610be4565b8301355f19600386901b60f8161c191690558b80610c8f565b848a01358355988c01988b98506001909201918c01610c55565b63360d138960e21b5f5233600452610ce8836121cd565b60445ffd5b90505f52600360205260ff600160405f20015460e81c1686610a05565b8363035c098b60e01b5f5260045260245ffd5b63b780d61f60e01b5f5260045ffd5b34610182576020366003190112610182576001600160a01b03610d4d612155565b165f52600560205260405f20604051806020835491828152019081935f5260205f20905f5b818110610dca5750505081610d88910382612043565b604051918291602083019060208452518091526040830191905f5b818110610db1575050500390f35b8251845285945060209384019390920191600101610da3565b8254845260209093019260019283019201610d72565b3461018257604036600319011261018257600435602435801515810361018257604051631d6c8e3f60e21b81527f00000000000000000000000000000000000000000000000000000000000000006001600160a01b031690602081600481855afa908115610895575f91611046575b50604051632474521560e21b815260048101919091523360248201529060209082908180604481015b03915afa908115610895575f91611027575b501561085357610e98612407565b610ea182612425565b815f52600960205260405f2090825f52600360205260405f20600383019160ff835460201c16600481101561036b576001036110145715610fc657815464ff000000001916640200000000179091556001908101805460ff60e81b191690555f838152600a60205260408120805460ff19169055825491830180549092829182918291906001600160a01b03165af13d15610fc1573d610f40816123ec565b90610f4e6040519283612043565b81525f60203d92013e5b15610f9b575060018060a01b03905416907f874fd3e0ba6d81d58b06aa295084dbe040084ea483a51e07e5c551498e515a3c602060405160018152a35b60015f55005b90549054630e21dcbb60e11b5f9081526001600160a01b03909216600452602452604490fd5b610f58565b5064030000000064ff000000001982541617905560018060a01b03905416907f874fd3e0ba6d81d58b06aa295084dbe040084ea483a51e07e5c551498e515a3c60206040515f8152a3610f95565b84630f46347360e21b5f5260045260245ffd5b611040915060203d60201161088e576108808183612043565b83610e8a565b90506020813d602011611072575b8161106160209383612043565b810103126101825751610e78610e4f565b3d9150611054565b3461018257602036600319011261018257611093612155565b604051631d6c8e3f60e21b81527f00000000000000000000000000000000000000000000000000000000000000006001600160a01b031690602081600481855afa908115610895575f916111c9575b50604051632474521560e21b815260048101919091523360248201529060209082908180604481015b03915afa908115610895575f916111aa575b5015610853576001600160a01b0316801561119b57805f52600860205260ff60405f20541661118957805f52600860205260405f20600160ff198254161790557fcded52b8cbf99afd8d08e8cbbd08132079749ce1735c8ff927d746d8af29782e6020604051338152a2005b636e0a8b5960e11b5f5260045260245ffd5b63baa3de5f60e01b5f5260045ffd5b6111c3915060203d60201161088e576108808183612043565b8261111d565b90506020813d6020116111f5575b816111e460209383612043565b81010312610182575161110b6110e2565b3d91506111d7565b34610182576020366003190112610182576004355f52600960205260405f2060018060a01b038154169060018101549063ffffffff61126b600361124360028501612064565b9301549260ff8460201c1694604051968752602087015260a0604087015260a0860190612104565b91166060840152600482101561036b57829160808301520390f35b34610182575f3660031901126101825760405163e63ab1e960e01b81527f00000000000000000000000000000000000000000000000000000000000000006001600160a01b031690602081600481855afa908115610895575f916113a9575b50604051632474521560e21b815260048101919091523360248201529060209082908180604481015b03915afa908115610895575f9161138a575b50156113775760015460ff81166113685760019060ff1916176001557f62e78cea01bee320cd4e420270b5ea74000d11b0c9f74754ebdbfc544b05a2586020604051338152a1005b63d93c066560e01b5f5260045ffd5b6310351a3760e11b5f523360045260245ffd5b6113a3915060203d60201161088e576108808183612043565b81611320565b90506020813d6020116113d5575b816113c460209383612043565b81010312610182575161130e6112e5565b3d91506113b7565b34610182575f36600319011261018257602060ff600154166040519015158152f35b34610182576020366003190112610182576004355f60c060405161142281612028565b8281528260208201528260408201528260608201528260808201528260a0820152015261144e81612425565b5f52600360205260e060405f2061ffff60016040519261146d84612028565b8054845201546020830160018060a01b03821681526115046040850163ffffffff8460a01c16815263ffffffff60608701818660c01c1681528160808901936114bb60ff898d1c1686612284565b60a08a019660ff8960e81c161515885260c08b019860f01c89526040519a518b5260018060a01b0390511660208b015251166040890152511660608701525160808601906121db565b51151560a0840152511660c0820152f35b34610182576020366003190112610182576004355f52600a602052602060ff60405f2054166040519015158152f35b3461018257602061155d6115573661216b565b9061232e565b6040519015158152f35b34610182576115753661219a565b919061157f612407565b61158882612425565b815f526003602052600160405f20019283549360018060a01b037f000000000000000000000000000000000000000000000000000000000000000016604051631d6c8e3f60e21b8152602081600481855afa908115610895575f9161172f575b50604051632474521560e21b815260048101919091523360248201529060209082908180604481015b03915afa908115610895575f91611710575b50336001600160a01b03871614159081611707575b506116f45760ff8560e81c16156116e15760ff60e81b19851690555f838152600760205260409020546001600160a01b0316937fe6f5929f4674f37c5e62c31dbc9f34921ea1a8b84f94de6930863c912f3559b3929190856116bc575b506116b36040519283923384526040602085015260408401916122c9565b0390a360015f55005b6116da5f91878352600660205260ff604084209160e01c16906121e8565b5585611695565b83630db8670760e41b5f5260045260245ffd5b634a0bfec160e01b5f523360045260245ffd5b90501586611638565b611729915060203d60201161088e576108808183612043565b86611623565b90506020813d60201161175b575b8161174a60209383612043565b8101031261018257516116116115e8565b3d915061173d565b34610182576020366003190112610182576001600160a01b03611784612155565b165f526008602052602060ff60405f2054166040519015158152f35b34610182575f36600319011261018257604051631d6c8e3f60e21b81527f00000000000000000000000000000000000000000000000000000000000000006001600160a01b031690602081600481855afa908115610895575f916118ad575b50604051632474521560e21b815260048101919091523360248201529060209082908180604481015b03915afa908115610895575f9161188e575b50156108535760015460ff81161561187f5760ff19166001557f5db9ee0a495bf2e6ff9c91a7834c1ba4fdd244a5e8aa4e537bd38aeae4b073aa6020604051338152a1005b638dfc202b60e01b5f5260045ffd5b6118a7915060203d60201161088e576108808183612043565b8161183a565b90506020813d6020116118d9575b816118c860209383612043565b8101031261018257516118286117ff565b3d91506118bb565b346101825760a0366003190112610182576118fa612155565b602435600d81101561018257606435906044356084356001600160401b0381116101825761192c903690600401612128565b94611935612407565b335f52600860205260ff60405f20541615611c89576001600160a01b0316918215611c76578015610d1d5742851115611c635761197184612452565b825f5260066020526119868460405f206121e8565b548015159081611c46575b50611c2e576119a1600254612276565b9485600255856040516119b381612028565b83815260208101903382526040810163ffffffff42168152611a6a63ffffffff60608401818816815260808501936119eb8d86612284565b600160a087810182815260c0808a018481525f9c8d5260036020526040909c2099518a5599519890920180549351945163ffffffff60c01b1987841b196001600160a01b0319969096166001600160a01b039b909b169a909a179490941694861690911b9390931796909616921690951b63ffffffff60c01b16178455565b5192600d84101561036b578254915161ffff60e01b1990921660e09490941b60ff60e01b169390931790151560e81b60ff60e81b16178155611aaf9161ffff90610b22565b855f52600460205260405f20916001600160401b038811610655578783611add60209a610b878b9754611ff0565b5f601f8311600114611ba257958291611b3083611b88957fcfa3a11e600e21a62128b4fa7a286fc645c762d11a6002a4416048c441c5d4b5999a5f91611b9757508160011b915f199060031b1c19161790565b90555b875f5260058b52611b478760405f20612290565b875f5260068b5286611b5c8a60405f206121e8565b55865f5260078b5260405f20886001600160601b0360a01b825416179055604051948594339a866122e9565b0390a460015f55604051908152f35b90508401358f610bce565b9590601f198316815f528b5f20905f5b818110611c145750907fcfa3a11e600e21a62128b4fa7a286fc645c762d11a6002a4416048c441c5d4b5979885611b889695949310611bfb575b5050600183811b019055611b33565b8301355f19600386901b60f8161c191690558c80611bec565b848a01358355988d01988c98506001909201918d01611bb2565b63360d138960e21b5f526004839052610ce8846121cd565b90505f52600360205260ff600160405f20015460e81c1687611991565b8463035c098b60e01b5f5260045260245ffd5b8263b20f76e360e01b5f5260045260245ffd5b631eb1c0a560e01b5f523360045260245ffd5b34610182576080366003190112610182576044356004356024356064356001600160401b03811161018257611cd5903690600401612128565b611cdd612407565b611ce684612425565b5f848152600360205260409020600181018054909691906001600160a01b03163303611c895742851115611c6357865463ffffffff60c01b191660c086901b63ffffffff60c01b16178755865460f01c61ffff81146103925787546001600160f01b031660019190910160f01b6001600160f01b03191617875581611f48575b505080611e2f575b505060407fc55cf4b810e6f67c8d0bc197d54866ce759909373a277a6f788cc5d18bf5599391835f52600760205260018060a01b03825f2054169484815460ff8160e81c1615611dd0575b50505460f01c82519182526020820152a360015f55005b60ff60e81b1916600160e81b178083558715611db957611e0290885f52600660205260ff865f209160e01c16906121e8565b555f858152600760205283902080546001600160a01b0319166001600160a01b0388161790558487611db9565b835f52600460205260405f20916001600160401b03821161065557611e588261051e8554611ff0565b5f90601f8311600114611ebf57827fc55cf4b810e6f67c8d0bc197d54866ce759909373a277a6f788cc5d18bf55993959360409593611eab935f92611eb45750508160011b915f199060031b1c19161790565b90555b91611d6e565b013590508980610549565b601f19831691845f5260205f20925f5b818110611f3057509260019285927fc55cf4b810e6f67c8d0bc197d54866ce759909373a277a6f788cc5d18bf5599398966040989610611f17575b505050811b019055611eae565b01355f19600384901b60f8161c19169055888080611f0a565b91936020600181928787013581550195019201611ecf565b558580611d66565b34610182575f366003190112610182576020600254604051908152f35b34610182576020366003190112610182576004355f526004602052611fab611f9760405f20612064565b604051918291602083526020830190612104565b0390f35b34610182575f366003190112610182577f00000000000000000000000000000000000000000000000000000000000000006001600160a01b03168152602090f35b90600182811c9216801561201e575b602083101461200a57565b634e487b7160e01b5f52602260045260245ffd5b91607f1691611fff565b60e081019081106001600160401b0382111761065557604052565b90601f801991011681019081106001600160401b0382111761065557604052565b9060405191825f82549261207784611ff0565b80845293600181169081156120e2575060011461209e575b5061209c92500383612043565b565b90505f9291925260205f20905f915b8183106120c657505090602061209c928201015f61208f565b60209193508060019154838589010152019101909184926120ad565b90506020925061209c94915060ff191682840152151560051b8201015f61208f565b805180835260209291819084018484015e5f828201840152601f01601f1916010190565b9181601f84011215610182578235916001600160401b038311610182576020838186019501011161018257565b600435906001600160a01b038216820361018257565b6040906003190112610182576004356001600160a01b03811681036101825790602435600d8110156101825790565b9060406003198301126101825760043591602435906001600160401b038211610182576121c991600401612128565b9091565b600d81101561036b57602452565b90600d82101561036b5752565b90600d81101561036b575f5260205260405f2090565b8054821015612213575f5260205f2001905f90565b634e487b7160e01b5f52603260045260245ffd5b601f821161223457505050565b5f5260205f20906020601f840160051c8301931061226c575b601f0160051c01905b818110612261575050565b5f8155600101612256565b909150819061224d565b5f1981146103925760010190565b600d82101561036b5752565b805468010000000000000000811015610655576122b2916001820181556121fe565b819291549060031b91821b915f19901b1916179055565b908060209392818452848401375f828201840152601f01601f1916010190565b90926080926122fc8361231398966121db565b6020830152604082015281606082015201916122c9565b90565b90816020910312610182575180151581036101825790565b6001600160a01b03165f90815260066020526040902061234e91906121e8565b5480156123e7575f52600360205260405f2060016040519161236f83612028565b8054835201549060018060a01b038216602082015263ffffffff8260a01c166040820152606081019063ffffffff8360c01c1682526123b760ff8460e01c1660808301612284565b60c060ff8460e81c161515938460a084015260f01c910152816123d8575090565b63ffffffff9150511642111590565b505f90565b6001600160401b03811161065557601f01601f191660200190565b60025f54146124165760025f55565b633ee5aeb560e01b5f5260045ffd5b80158015612447575b6124355750565b6306a7cca360e31b5f5260045260245ffd5b50600254811161242e565b600d81101561036b5760ff16600c81116124695750565b6308a8fee960e31b5f5260045260245ffdfea264697066735822122037df86b876666856429c6833c3fcf2565a3ed51f055ec9a814d6a069f9d0600564736f6c634300081c0033","linkReferences":{}},"methodIdentifiers":{"CHALLENGE_PERIOD()":"c3a079ed","CHALLENGE_STAKE()":"ef1d2547","addVerification(address,uint8,bytes32,uint256,string)":"30daf170","addVerifier(address)":"9000b3d6","challengeCounter()":"f7fed02c","challengeVerification(uint256,string)":"e0386737","challenges(uint256)":"8f1d3776","finalizeUserVerification(uint256)":"e8f007b9","getOwnerVerifications(address)":"9b06afdb","getVerification(uint256)":"58937cc8","getVerificationByOwnerAndType(address,uint8)":"33cbda85","isExpired(uint256)":"d9548e53","isVerified(address,uint8)":"496dbd72","ownerAssetVerification(address,uint8)":"de246082","ownerVerifications(address,uint256)":"f6f96d45","pause()":"8456cb59","paused()":"5c975abb","pendingVerifications(uint256)":"55e95376","removeVerifier(address)":"ca2dfd0a","renewVerification(uint256,uint256,bytes32,string)":"2f05d5ea","resolveChallenge(uint256,bool)":"94a754e0","revokeVerification(uint256,string)":"483b26c1","roleManager()":"00435da5","submitUserVerification(uint8,bytes32,uint256,string)":"9d9cd6dd","unpause()":"3f4ba83a","verificationCounter()":"16cd94fc","verificationMetadata(uint256)":"03feed25","verificationOwner(uint256)":"e912ed63","verifications(uint256)":"b90b0a10","whitelistedVerifiers(address)":"45a2e185"},"id":104}