{"abi":[{"type":"function","name":"approve","inputs":[{"name":"to","type":"address","internalType":"address"},{"name":"tokenId","type":"uint256","internalType":"uint256"}],"outputs":[],"stateMutability":"nonpayable"},{"type":"function","name":"balanceOf","inputs":[{"name":"owner","type":"address","internalType":"address"}],"outputs":[{"name":"","type":"uint256","internalType":"uint256"}],"stateMutability":"view"},{"type":"function","name":"burn","inputs":[{"name":"tokenId","type":"uint256","internalType":"uint256"}],"outputs":[],"stateMutability":"nonpayable"},{"type":"function","name":"getApproved","inputs":[{"name":"tokenId","type":"uint256","internalType":"uint256"}],"outputs":[{"name":"","type":"address","internalType":"address"}],"stateMutability":"view"},{"type":"function","name":"getMinter","inputs":[{"name":"tokenId","type":"uint256","internalType":"uint256"}],"outputs":[{"name":"","type":"address","internalType":"address"}],"stateMutability":"view"},{"type":"function","name":"initialize","inputs":[{"name":"name_","type":"string","internalType":"string"},{"name":"symbol_","type":"string","internalType":"string"},{"name":"owner_","type":"address","internalType":"address"}],"outputs":[],"stateMutability":"nonpayable"},{"type":"function","name":"isApprovedForAll","inputs":[{"name":"owner","type":"address","internalType":"address"},{"name":"operator","type":"address","internalType":"address"}],"outputs":[{"name":"","type":"bool","internalType":"bool"}],"stateMutability":"view"},{"type":"function","name":"mintPublic","inputs":[{"name":"uri","type":"string","internalType":"string"}],"outputs":[{"name":"tokenId","type":"uint256","internalType":"uint256"}],"stateMutability":"nonpayable"},{"type":"function","name":"name","inputs":[],"outputs":[{"name":"","type":"string","internalType":"string"}],"stateMutability":"view"},{"type":"function","name":"owner","inputs":[],"outputs":[{"name":"","type":"address","internalType":"address"}],"stateMutability":"view"},{"type":"function","name":"ownerOf","inputs":[{"name":"tokenId","type":"uint256","internalType":"uint256"}],"outputs":[{"name":"","type":"address","internalType":"address"}],"stateMutability":"view"},{"type":"function","name":"pause","inputs":[],"outputs":[],"stateMutability":"nonpayable"},{"type":"function","name":"paused","inputs":[],"outputs":[{"name":"","type":"bool","internalType":"bool"}],"stateMutability":"view"},{"type":"function","name":"renounceOwnership","inputs":[],"outputs":[],"stateMutability":"nonpayable"},{"type":"function","name":"safeTransferFrom","inputs":[{"name":"from","type":"address","internalType":"address"},{"name":"to","type":"address","internalType":"address"},{"name":"tokenId","type":"uint256","internalType":"uint256"}],"outputs":[],"stateMutability":"nonpayable"},{"type":"function","name":"safeTransferFrom","inputs":[{"name":"from","type":"address","internalType":"address"},{"name":"to","type":"address","internalType":"address"},{"name":"tokenId","type":"uint256","internalType":"uint256"},{"name":"data","type":"bytes","internalType":"bytes"}],"outputs":[],"stateMutability":"nonpayable"},{"type":"function","name":"setApprovalForAll","inputs":[{"name":"operator","type":"address","internalType":"address"},{"name":"approved","type":"bool","internalType":"bool"}],"outputs":[],"stateMutability":"nonpayable"},{"type":"function","name":"supportsInterface","inputs":[{"name":"interfaceId","type":"bytes4","internalType":"bytes4"}],"outputs":[{"name":"","type":"bool","internalType":"bool"}],"stateMutability":"view"},{"type":"function","name":"symbol","inputs":[],"outputs":[{"name":"","type":"string","internalType":"string"}],"stateMutability":"view"},{"type":"function","name":"tokenMinter","inputs":[{"name":"","type":"uint256","internalType":"uint256"}],"outputs":[{"name":"","type":"address","internalType":"address"}],"stateMutability":"view"},{"type":"function","name":"tokenURI","inputs":[{"name":"tokenId","type":"uint256","internalType":"uint256"}],"outputs":[{"name":"","type":"string","internalType":"string"}],"stateMutability":"view"},{"type":"function","name":"totalMinted","inputs":[],"outputs":[{"name":"","type":"uint256","internalType":"uint256"}],"stateMutability":"view"},{"type":"function","name":"transferFrom","inputs":[{"name":"from","type":"address","internalType":"address"},{"name":"to","type":"address","internalType":"address"},{"name":"tokenId","type":"uint256","internalType":"uint256"}],"outputs":[],"stateMutability":"nonpayable"},{"type":"function","name":"transferOwnership","inputs":[{"name":"newOwner","type":"address","internalType":"address"}],"outputs":[],"stateMutability":"nonpayable"},{"type":"function","name":"unpause","inputs":[],"outputs":[],"stateMutability":"nonpayable"},{"type":"event","name":"Approval","inputs":[{"name":"owner","type":"address","indexed":true,"internalType":"address"},{"name":"approved","type":"address","indexed":true,"internalType":"address"},{"name":"tokenId","type":"uint256","indexed":true,"internalType":"uint256"}],"anonymous":false},{"type":"event","name":"ApprovalForAll","inputs":[{"name":"owner","type":"address","indexed":true,"internalType":"address"},{"name":"operator","type":"address","indexed":true,"internalType":"address"},{"name":"approved","type":"bool","indexed":false,"internalType":"bool"}],"anonymous":false},{"type":"event","name":"BatchMetadataUpdate","inputs":[{"name":"_fromTokenId","type":"uint256","indexed":false,"internalType":"uint256"},{"name":"_toTokenId","type":"uint256","indexed":false,"internalType":"uint256"}],"anonymous":false},{"type":"event","name":"Initialized","inputs":[{"name":"version","type":"uint64","indexed":false,"internalType":"uint64"}],"anonymous":false},{"type":"event","name":"MetadataUpdate","inputs":[{"name":"_tokenId","type":"uint256","indexed":false,"internalType":"uint256"}],"anonymous":false},{"type":"event","name":"OwnershipTransferred","inputs":[{"name":"previousOwner","type":"address","indexed":true,"internalType":"address"},{"name":"newOwner","type":"address","indexed":true,"internalType":"address"}],"anonymous":false},{"type":"event","name":"Paused","inputs":[{"name":"account","type":"address","indexed":false,"internalType":"address"}],"anonymous":false},{"type":"event","name":"SingleNFTMinted","inputs":[{"name":"minter","type":"address","indexed":true,"internalType":"address"},{"name":"tokenId","type":"uint256","indexed":true,"internalType":"uint256"},{"name":"uri","type":"string","indexed":false,"internalType":"string"}],"anonymous":false},{"type":"event","name":"Transfer","inputs":[{"name":"from","type":"address","indexed":true,"internalType":"address"},{"name":"to","type":"address","indexed":true,"internalType":"address"},{"name":"tokenId","type":"uint256","indexed":true,"internalType":"uint256"}],"anonymous":false},{"type":"event","name":"Unpaused","inputs":[{"name":"account","type":"address","indexed":false,"internalType":"address"}],"anonymous":false},{"type":"error","name":"ERC721IncorrectOwner","inputs":[{"name":"sender","type":"address","internalType":"address"},{"name":"tokenId","type":"uint256","internalType":"uint256"},{"name":"owner","type":"address","internalType":"address"}]},{"type":"error","name":"ERC721InsufficientApproval","inputs":[{"name":"operator","type":"address","internalType":"address"},{"name":"tokenId","type":"uint256","internalType":"uint256"}]},{"type":"error","name":"ERC721InvalidApprover","inputs":[{"name":"approver","type":"address","internalType":"address"}]},{"type":"error","name":"ERC721InvalidOperator","inputs":[{"name":"operator","type":"address","internalType":"address"}]},{"type":"error","name":"ERC721InvalidOwner","inputs":[{"name":"owner","type":"address","internalType":"address"}]},{"type":"error","name":"ERC721InvalidReceiver","inputs":[{"name":"receiver","type":"address","internalType":"address"}]},{"type":"error","name":"ERC721InvalidSender","inputs":[{"name":"sender","type":"address","internalType":"address"}]},{"type":"error","name":"ERC721NonexistentToken","inputs":[{"name":"tokenId","type":"uint256","internalType":"uint256"}]},{"type":"error","name":"EnforcedPause","inputs":[]},{"type":"error","name":"ExpectedPause","inputs":[]},{"type":"error","name":"InvalidInitialization","inputs":[]},{"type":"error","name":"NotInitializing","inputs":[]},{"type":"error","name":"OwnableInvalidOwner","inputs":[{"name":"owner","type":"address","internalType":"address"}]},{"type":"error","name":"OwnableUnauthorizedAccount","inputs":[{"name":"account","type":"address","internalType":"address"}]},{"type":"error","name":"ZeroAddress","inputs":[]}],"bytecode":{"object":"0x60808060405234601557611a34908161001a8239f35b5f80fdfe6080806040526004361015610012575f80fd5b5f3560e01c90816301ffc9a71461100e5750806306fdde0314610f64578063077f224a14610ab8578063081812fc14610a90578063095ea7b31461099157806323b872dd1461097a5780633f4ba83a146108fc57806342842e0e146108d357806342966c68146108b65780635b7121f8146107705780635c975abb146108885780636352211e1461085857806370a0823114610809578063715018a6146107a25780637c57d947146107705780638456cb59146106ff5780638da5cb5b146106cb57806395d89b41146105e9578063a22cb46514610551578063a2309ff814610534578063b88d4fde146104d4578063c87b56dd1461049d578063d376fab6146101aa578063e985e9c51461015e5763f2fde38b1461012f575f80fd5b3461015a57602036600319011261015a5761015861014b611149565b61015361174e565b611543565b005b5f80fd5b3461015a57604036600319011261015a57610177611149565b61018861018261115f565b916113a9565b9060018060a01b03165f52602052602060ff60405f2054166040519015158152f35b3461015a57602036600319011261015a5760043567ffffffffffffffff811161015a576101db90369060040161112b565b6101e3611865565b6101ed5f54611521565b90815f556101fc600154611521565b6001555f82815260026020526040902080546001600160a01b031916339081179091551561048a5761022d826118b7565b6001600160a01b038116801515919084908361046c575b61024d33611371565b805460010190555f8281525f51602061197f5f395f51905f526020526040812080546001600160a01b0319163390811790915591907fddf252ad1be2c89b69c2b068fc378daa952ba7f163c4a11628f55a4df523b3ef9080a45061045957815f527f0542a41881ee128a365a727b282c86fa859579490b9bb45aab8503648c8e790060205260405f209181519167ffffffffffffffff8311610445576102f384546111af565b93601f8511610400575b6020945084601f85116001146103a057938084955f91610395575b508160011b915f199060031b1c19161790555b7ff8e1a15aba9398e019f0b49df1a4fde98ee17ae345cb5f6b5e2c27f5033e8ce784604051848152a17f30895e01050c8d1ca8e080e6a8e104e7b621e53faac042a55db4b7fc19c72eb96040518581528061038a339488830190611093565b0390a3604051908152f35b905083015187610318565b601f19851690825f52805f20915f5b8181106103e957509186918697600194106103d1575b5050811b01905561032b565b8501515f1960f88460031b161c1916905587806103c5565b9192886001819286890151815501940192016103af565b805f5260205f20601f850160051c8101956020861061043b575b601f0160051c01945b85811061043057506102fd565b5f8155600101610423565b909550859061041a565b634e487b7160e01b5f52604160045260245ffd5b6339e3563760e11b5f525f60045260245ffd5b610475826118dd565b61047e83611371565b80545f19019055610244565b633250574960e11b5f525f60045260245ffd5b3461015a57602036600319011261015a576104d06104bc600435611781565b604051918291602083526020830190611093565b0390f35b3461015a57608036600319011261015a576104ed611149565b6104f561115f565b6064359167ffffffffffffffff831161015a573660238401121561015a5761052a6101589336906024816004013591016110f5565b91604435916113e1565b3461015a575f36600319011261015a576020600154604051908152f35b3461015a57604036600319011261015a5761056a611149565b6024359081151580920361015a576001600160a01b03169081156105d657610591336113a9565b825f5260205260405f2060ff1981541660ff83161790556040519081527f17307eab39ab6107e8899845ad3d59bd9653f200f220920489ca2b5937696c3160203392a3005b50630b61174360e31b5f5260045260245ffd5b3461015a575f36600319011261015a576040515f5f5160206119bf5f395f51905f5254610615816111af565b80845290600181169081156106a7575060011461063d575b6104d0836104bc818503826110b7565b5f5160206119bf5f395f51905f525f9081527ff4bad0a69248f59680a4f2b3000328cec71a413447c96781cfe5996daa8c456e939250905b80821061068d575090915081016020016104bc61062d565b919260018160209254838588010152019101909291610675565b60ff191660208086019190915291151560051b840190910191506104bc905061062d565b3461015a575f36600319011261015a575f51602061193f5f395f51905f52546040516001600160a01b039091168152602090f35b3461015a575f36600319011261015a5761071761174e565b61071f611865565b600160ff195f51602061195f5f395f51905f525416175f51602061195f5f395f51905f52557f62e78cea01bee320cd4e420270b5ea74000d11b0c9f74754ebdbfc544b05a2586020604051338152a1005b3461015a57602036600319011261015a576004355f526002602052602060018060a01b0360405f205416604051908152f35b3461015a575f36600319011261015a576107ba61174e565b5f51602061193f5f395f51905f5280546001600160a01b031981169091555f906001600160a01b03167f8be0079c531659141344cd1fd0a4f28419497f9722a3daafe3b4186f6b6457e08280a3005b3461015a57602036600319011261015a57610822611149565b6001600160a01b038116156108455761083c602091611371565b54604051908152f35b6322718ad960e21b5f525f60045260245ffd5b3461015a57602036600319011261015a5760206108766004356115b4565b6040516001600160a01b039091168152f35b3461015a575f36600319011261015a57602060ff5f51602061195f5f395f51905f5254166040519015158152f35b3461015a57602036600319011261015a576101583360043561161c565b3461015a576101586108e436611175565b90604051926108f46020856110b7565b5f84526113e1565b3461015a575f36600319011261015a5761091461174e565b5f51602061195f5f395f51905f525460ff81161561096b5760ff19165f51602061195f5f395f51905f52557f5db9ee0a495bf2e6ff9c91a7834c1ba4fdd244a5e8aa4e537bd38aeae4b073aa6020604051338152a1005b638dfc202b60e01b5f5260045ffd5b3461015a5761015861098b36611175565b916111e7565b3461015a57604036600319011261015a576109aa611149565b6024356109b6816115b4565b33151580610a7d575b80610a5a575b610a475781906001600160a01b0384811691167f8c5be1e5ebec7d5bd14f71427d1e84f3dd0314c0f7b2291e5b200ac8c7c3b9255f80a45f9081527f80bb2b638cc20bc4d0a60d66940f3ab4a00c1d7b313497ca82fb0b4ab00793046020526040902080546001600160a01b0319166001600160a01b03909216919091179055005b63a9fbf51f60e01b5f523360045260245ffd5b50610a64816113a9565b335f908152602091909152604090205460ff16156109c5565b506001600160a01b0381163314156109bf565b3461015a57602036600319011261015a576020610876600435610ab2816115b4565b506115e3565b3461015a57606036600319011261015a5760043567ffffffffffffffff811161015a57610ae990369060040161112b565b60243567ffffffffffffffff811161015a57610b0990369060040161112b565b6044356001600160a01b0381169182820361015a575f51602061199f5f395f51905f52549260ff8460401c16159367ffffffffffffffff811680159081610f5c575b6001149081610f52575b159081610f49575b50610f3a5767ffffffffffffffff1981166001175f51602061199f5f395f51905f525584610f0e575b5015610eff57610b9461188c565b610b9c61188c565b835167ffffffffffffffff811161044557610bc45f51602061191f5f395f51905f52546111af565b601f8111610e8b575b50602094601f8211600114610e05579481929394955f92610dfa575b50508160011b915f199060031b1c1916175f51602061191f5f395f51905f52555b80519067ffffffffffffffff821161044557610c335f5160206119bf5f395f51905f52546111af565b601f8111610d8b575b50602090601f8311600114610d0a57610c9a9392915f9183610cff575b50508160011b915f199060031b1c1916175f5160206119bf5f395f51905f52555b610c8261188c565b610c8a61188c565b610c9261188c565b61015361188c565b610ca261188c565b610ca857005b68ff0000000000000000195f51602061199f5f395f51905f5254165f51602061199f5f395f51905f52557fc7f505b2f371ae2175ee4913f4499e1f2633a7b5936321eed1cdaeb6115181d2602060405160018152a1005b015190508580610c59565b90601f198316915f5160206119bf5f395f51905f525f52815f20925f5b818110610d735750916001939185610c9a97969410610d5b575b505050811b015f5160206119bf5f395f51905f5255610c7a565b01515f1960f88460031b161c19169055858080610d41565b92936020600181928786015181550195019301610d27565b5f5160206119bf5f395f51905f525f527ff4bad0a69248f59680a4f2b3000328cec71a413447c96781cfe5996daa8c456e601f840160051c81019160208510610df0575b601f0160051c01905b818110610de55750610c3c565b5f8155600101610dd8565b9091508190610dcf565b015190508580610be9565b601f198216955f51602061191f5f395f51905f525f525f5160206119df5f395f51905f52915f5b888110610e7357508360019596979810610e5b575b505050811b015f51602061191f5f395f51905f5255610c0a565b01515f1960f88460031b161c19169055858080610e41565b91926020600181928685015181550194019201610e2c565b5f51602061191f5f395f51905f525f52601f820160051c5f5160206119df5f395f51905f52019060208310610eea575b601f0160051c5f5160206119df5f395f51905f5201905b818110610edf5750610bcd565b5f8155600101610ed2565b5f5160206119df5f395f51905f529150610ebb565b63d92e233d60e01b5f5260045ffd5b68ffffffffffffffffff191668010000000000000001175f51602061199f5f395f51905f525585610b86565b63f92ee8a960e01b5f5260045ffd5b90501587610b5d565b303b159150610b55565b869150610b4b565b3461015a575f36600319011261015a576040515f5f51602061191f5f395f51905f5254610f90816111af565b80845290600181169081156106a75750600114610fb7576104d0836104bc818503826110b7565b5f51602061191f5f395f51905f525f9081525f5160206119df5f395f51905f52939250905b808210610ff4575090915081016020016104bc61062d565b919260018160209254838588010152019101909291610fdc565b3461015a57602036600319011261015a576004359063ffffffff60e01b821680920361015a57602091632483248360e11b8114908115611050575b5015158152f35b6380ac58cd60e01b811491508115611082575b8115611071575b5083611049565b6301ffc9a760e01b1490508361106a565b635b5e139f60e01b81149150611063565b805180835260209291819084018484015e5f828201840152601f01601f1916010190565b90601f8019910116810190811067ffffffffffffffff82111761044557604052565b67ffffffffffffffff811161044557601f01601f191660200190565b929192611101826110d9565b9161110f60405193846110b7565b82948184528183011161015a578281602093845f960137010152565b9080601f8301121561015a57816020611146933591016110f5565b90565b600435906001600160a01b038216820361015a57565b602435906001600160a01b038216820361015a57565b606090600319011261015a576004356001600160a01b038116810361015a57906024356001600160a01b038116810361015a579060443590565b90600182811c921680156111dd575b60208310146111c957565b634e487b7160e01b5f52602260045260245ffd5b91607f16916111be565b9091906001600160a01b038316801561048a5782611204816118b7565b91331515806112cf575b506001600160a01b0383169561122890876112b157611371565b60018154019055815f525f51602061197f5f395f51905f5260205260405f20816bffffffffffffffffffffffff60a01b825416179055857fddf252ad1be2c89b69c2b068fc378daa952ba7f163c4a11628f55a4df523b3ef5f80a4506001600160a01b031680830361129957505050565b6364283d7b60e01b5f5260045260245260445260645ffd5b6112ba846118dd565b6112c385611371565b80545f19019055611371565b9091508061131c575b156112e55783905f61120e565b836001600160a01b03831661130657637e27328960e01b5f5260045260245ffd5b63177e802f60e01b5f523360045260245260445ffd5b506001600160a01b0382163314801561134f575b806112d85750336001600160a01b03611348866115e3565b16146112d8565b50611359826113a9565b335f908152602091909152604090205460ff16611330565b6001600160a01b03165f9081527f80bb2b638cc20bc4d0a60d66940f3ab4a00c1d7b313497ca82fb0b4ab00793036020526040902090565b6001600160a01b03165f9081527f80bb2b638cc20bc4d0a60d66940f3ab4a00c1d7b313497ca82fb0b4ab00793056020526040902090565b92916113ee8183866111e7565b813b6113fb575b50505050565b604051630a85bd0160e11b81523360048201526001600160a01b0394851660248201526044810191909152608060648201529216919060209082908190611446906084830190611093565b03815f865af15f91816114dc575b506114a957503d156114a2573d61146a816110d9565b9061147860405192836110b7565b81523d5f602083013e5b8051908161149d5782633250574960e11b5f5260045260245ffd5b602001fd5b6060611482565b6001600160e01b03191663757a42ff60e11b016114ca57505f8080806113f5565b633250574960e11b5f5260045260245ffd5b9091506020813d602011611519575b816114f8602093836110b7565b8101031261015a57516001600160e01b03198116810361015a57905f611454565b3d91506114eb565b5f19811461152f5760010190565b634e487b7160e01b5f52601160045260245ffd5b6001600160a01b031680156115a1575f51602061193f5f395f51905f5280546001600160a01b0319811683179091556001600160a01b03167f8be0079c531659141344cd1fd0a4f28419497f9722a3daafe3b4186f6b6457e05f80a3565b631e4fbdf760e01b5f525f60045260245ffd5b6115bd816118b7565b906001600160a01b038216156115d1575090565b637e27328960e01b5f5260045260245ffd5b5f9081527f80bb2b638cc20bc4d0a60d66940f3ab4a00c1d7b313497ca82fb0b4ab007930460205260409020546001600160a01b031690565b611625816118b7565b916001600160a01b0316801515806116b7575b505f90506001600160a01b03831680611699575b8282525f51602061197f5f395f51905f526020526040822080546001600160a01b03191690557fddf252ad1be2c89b69c2b068fc378daa952ba7f163c4a11628f55a4df523b3ef8280a490565b6116a2836118dd565b6116ab84611371565b8219815401905561164c565b806116fe575b156116c85780611638565b6001600160a01b0383166116e95750637e27328960e01b5f5260045260245ffd5b63177e802f60e01b5f5260045260245260445ffd5b506001600160a01b03831681148015611731575b806116bd5750806001600160a01b0361172a846115e3565b16146116bd565b5061173b836113a9565b815f5260205260ff60405f205416611712565b5f51602061193f5f395f51905f52546001600160a01b0316330361176e57565b63118cdaa760e01b5f523360045260245ffd5b61178a816115b4565b505f527f0542a41881ee128a365a727b282c86fa859579490b9bb45aab8503648c8e790060205260405f2060405190815f8254926117c7846111af565b808452936001811690811561184357506001146117ff575b506117ec925003826110b7565b5f6040516117fb6020826110b7565b5290565b90505f9291925260205f20905f915b8183106118275750509060206117ec928201015f6117df565b602091935080600191548385880101520191019091839261180e565b9050602092506117ec94915060ff191682840152151560051b8201015f6117df565b60ff5f51602061195f5f395f51905f52541661187d57565b63d93c066560e01b5f5260045ffd5b60ff5f51602061199f5f395f51905f525460401c16156118a857565b631afcd79f60e31b5f5260045ffd5b5f9081525f51602061197f5f395f51905f5260205260409020546001600160a01b031690565b5f527f80bb2b638cc20bc4d0a60d66940f3ab4a00c1d7b313497ca82fb0b4ab007930460205260405f206bffffffffffffffffffffffff60a01b815416905556fe80bb2b638cc20bc4d0a60d66940f3ab4a00c1d7b313497ca82fb0b4ab00793009016d09d72d40fdae2fd8ceac6b6234c7706214fd39c1cd1e609a0528c199300cd5ed15c6e187e77e9aee88184c21f4f2182ab5827cb3b7e07fbedcd63f0330080bb2b638cc20bc4d0a60d66940f3ab4a00c1d7b313497ca82fb0b4ab0079302f0c57e16840df040f15088dc2f81fe391c3923bec73e23a9662efc9c229c6a0080bb2b638cc20bc4d0a60d66940f3ab4a00c1d7b313497ca82fb0b4ab007930137c58c799b6609234b945e882912ee9ad34948a1dfaa20a97485e1a7752bbf81a2646970667358221220bcc7e5a5123d87cb4aee6ffb8b1d77b485b78e8f6f8eabd57396a31e31485fd664736f6c634300081c0033","linkReferences":{}},"methodIdentifiers":{"approve(address,uint256)":"095ea7b3","balanceOf(address)":"70a08231","burn(uint256)":"42966c68","getApproved(uint256)":"081812fc","getMinter(uint256)":"5b7121f8","initialize(string,string,address)":"077f224a","isApprovedForAll(address,address)":"e985e9c5","mintPublic(string)":"d376fab6","name()":"06fdde03","owner()":"8da5cb5b","ownerOf(uint256)":"6352211e","pause()":"8456cb59","paused()":"5c975abb","renounceOwnership()":"715018a6","safeTransferFrom(address,address,uint256)":"42842e0e","safeTransferFrom(address,address,uint256,bytes)":"b88d4fde","setApprovalForAll(address,bool)":"a22cb465","supportsInterface(bytes4)":"01ffc9a7","symbol()":"95d89b41","tokenMinter(uint256)":"7c57d947","tokenURI(uint256)":"c87b56dd","totalMinted()":"a2309ff8","transferFrom(address,address,uint256)":"23b872dd","transferOwnership(address)":"f2fde38b","unpause()":"3f4ba83a"},"id":92}