{"abi":[{"type":"function","name":"balanceOf","inputs":[{"name":"account","type":"address","internalType":"address"},{"name":"id","type":"uint256","internalType":"uint256"}],"outputs":[{"name":"","type":"uint256","internalType":"uint256"}],"stateMutability":"view"},{"type":"function","name":"balanceOfBatch","inputs":[{"name":"accounts","type":"address[]","internalType":"address[]"},{"name":"ids","type":"uint256[]","internalType":"uint256[]"}],"outputs":[{"name":"","type":"uint256[]","internalType":"uint256[]"}],"stateMutability":"view"},{"type":"function","name":"batchMintPublic","inputs":[{"name":"amounts","type":"uint256[]","internalType":"uint256[]"},{"name":"maxSupplies","type":"uint256[]","internalType":"uint256[]"},{"name":"tokenURIs","type":"string[]","internalType":"string[]"},{"name":"data","type":"bytes","internalType":"bytes"}],"outputs":[{"name":"startTokenId","type":"uint256","internalType":"uint256"}],"stateMutability":"nonpayable"},{"type":"function","name":"burn","inputs":[{"name":"account","type":"address","internalType":"address"},{"name":"id","type":"uint256","internalType":"uint256"},{"name":"value","type":"uint256","internalType":"uint256"}],"outputs":[],"stateMutability":"nonpayable"},{"type":"function","name":"burnBatch","inputs":[{"name":"account","type":"address","internalType":"address"},{"name":"ids","type":"uint256[]","internalType":"uint256[]"},{"name":"values","type":"uint256[]","internalType":"uint256[]"}],"outputs":[],"stateMutability":"nonpayable"},{"type":"function","name":"canMintMore","inputs":[{"name":"tokenId","type":"uint256","internalType":"uint256"}],"outputs":[{"name":"canMint","type":"bool","internalType":"bool"},{"name":"available","type":"uint256","internalType":"uint256"}],"stateMutability":"view"},{"type":"function","name":"exists","inputs":[{"name":"id","type":"uint256","internalType":"uint256"}],"outputs":[{"name":"","type":"bool","internalType":"bool"}],"stateMutability":"view"},{"type":"function","name":"getMinter","inputs":[{"name":"tokenId","type":"uint256","internalType":"uint256"}],"outputs":[{"name":"","type":"address","internalType":"address"}],"stateMutability":"view"},{"type":"function","name":"initialize","inputs":[{"name":"name_","type":"string","internalType":"string"},{"name":"symbol_","type":"string","internalType":"string"},{"name":"uri_","type":"string","internalType":"string"},{"name":"owner_","type":"address","internalType":"address"}],"outputs":[],"stateMutability":"nonpayable"},{"type":"function","name":"isApprovedForAll","inputs":[{"name":"account","type":"address","internalType":"address"},{"name":"operator","type":"address","internalType":"address"}],"outputs":[{"name":"","type":"bool","internalType":"bool"}],"stateMutability":"view"},{"type":"function","name":"mintMore","inputs":[{"name":"tokenId","type":"uint256","internalType":"uint256"},{"name":"amount","type":"uint256","internalType":"uint256"},{"name":"data","type":"bytes","internalType":"bytes"}],"outputs":[],"stateMutability":"nonpayable"},{"type":"function","name":"mintPublic","inputs":[{"name":"amount","type":"uint256","internalType":"uint256"},{"name":"maxSupply","type":"uint256","internalType":"uint256"},{"name":"tokenURI","type":"string","internalType":"string"},{"name":"data","type":"bytes","internalType":"bytes"}],"outputs":[{"name":"tokenId","type":"uint256","internalType":"uint256"}],"stateMutability":"nonpayable"},{"type":"function","name":"name","inputs":[],"outputs":[{"name":"","type":"string","internalType":"string"}],"stateMutability":"view"},{"type":"function","name":"owner","inputs":[],"outputs":[{"name":"","type":"address","internalType":"address"}],"stateMutability":"view"},{"type":"function","name":"pause","inputs":[],"outputs":[],"stateMutability":"nonpayable"},{"type":"function","name":"paused","inputs":[],"outputs":[{"name":"","type":"bool","internalType":"bool"}],"stateMutability":"view"},{"type":"function","name":"renounceOwnership","inputs":[],"outputs":[],"stateMutability":"nonpayable"},{"type":"function","name":"safeBatchTransferFrom","inputs":[{"name":"from","type":"address","internalType":"address"},{"name":"to","type":"address","internalType":"address"},{"name":"ids","type":"uint256[]","internalType":"uint256[]"},{"name":"values","type":"uint256[]","internalType":"uint256[]"},{"name":"data","type":"bytes","internalType":"bytes"}],"outputs":[],"stateMutability":"nonpayable"},{"type":"function","name":"safeTransferFrom","inputs":[{"name":"from","type":"address","internalType":"address"},{"name":"to","type":"address","internalType":"address"},{"name":"id","type":"uint256","internalType":"uint256"},{"name":"value","type":"uint256","internalType":"uint256"},{"name":"data","type":"bytes","internalType":"bytes"}],"outputs":[],"stateMutability":"nonpayable"},{"type":"function","name":"setApprovalForAll","inputs":[{"name":"operator","type":"address","internalType":"address"},{"name":"approved","type":"bool","internalType":"bool"}],"outputs":[],"stateMutability":"nonpayable"},{"type":"function","name":"setURI","inputs":[{"name":"newuri","type":"string","internalType":"string"}],"outputs":[],"stateMutability":"nonpayable"},{"type":"function","name":"supportsInterface","inputs":[{"name":"interfaceId","type":"bytes4","internalType":"bytes4"}],"outputs":[{"name":"","type":"bool","internalType":"bool"}],"stateMutability":"view"},{"type":"function","name":"symbol","inputs":[],"outputs":[{"name":"","type":"string","internalType":"string"}],"stateMutability":"view"},{"type":"function","name":"tokenMaxSupply","inputs":[{"name":"","type":"uint256","internalType":"uint256"}],"outputs":[{"name":"","type":"uint256","internalType":"uint256"}],"stateMutability":"view"},{"type":"function","name":"tokenMinter","inputs":[{"name":"","type":"uint256","internalType":"uint256"}],"outputs":[{"name":"","type":"address","internalType":"address"}],"stateMutability":"view"},{"type":"function","name":"totalSupply","inputs":[],"outputs":[{"name":"","type":"uint256","internalType":"uint256"}],"stateMutability":"view"},{"type":"function","name":"totalSupply","inputs":[{"name":"id","type":"uint256","internalType":"uint256"}],"outputs":[{"name":"","type":"uint256","internalType":"uint256"}],"stateMutability":"view"},{"type":"function","name":"totalTokens","inputs":[],"outputs":[{"name":"","type":"uint256","internalType":"uint256"}],"stateMutability":"view"},{"type":"function","name":"transferOwnership","inputs":[{"name":"newOwner","type":"address","internalType":"address"}],"outputs":[],"stateMutability":"nonpayable"},{"type":"function","name":"unpause","inputs":[],"outputs":[],"stateMutability":"nonpayable"},{"type":"function","name":"uri","inputs":[{"name":"tokenId","type":"uint256","internalType":"uint256"}],"outputs":[{"name":"","type":"string","internalType":"string"}],"stateMutability":"view"},{"type":"event","name":"ApprovalForAll","inputs":[{"name":"account","type":"address","indexed":true,"internalType":"address"},{"name":"operator","type":"address","indexed":true,"internalType":"address"},{"name":"approved","type":"bool","indexed":false,"internalType":"bool"}],"anonymous":false},{"type":"event","name":"Initialized","inputs":[{"name":"version","type":"uint64","indexed":false,"internalType":"uint64"}],"anonymous":false},{"type":"event","name":"OwnershipTransferred","inputs":[{"name":"previousOwner","type":"address","indexed":true,"internalType":"address"},{"name":"newOwner","type":"address","indexed":true,"internalType":"address"}],"anonymous":false},{"type":"event","name":"Paused","inputs":[{"name":"account","type":"address","indexed":false,"internalType":"address"}],"anonymous":false},{"type":"event","name":"SingleEditionMinted","inputs":[{"name":"minter","type":"address","indexed":true,"internalType":"address"},{"name":"tokenId","type":"uint256","indexed":true,"internalType":"uint256"},{"name":"amount","type":"uint256","indexed":false,"internalType":"uint256"},{"name":"maxSupply","type":"uint256","indexed":false,"internalType":"uint256"},{"name":"uri","type":"string","indexed":false,"internalType":"string"}],"anonymous":false},{"type":"event","name":"TransferBatch","inputs":[{"name":"operator","type":"address","indexed":true,"internalType":"address"},{"name":"from","type":"address","indexed":true,"internalType":"address"},{"name":"to","type":"address","indexed":true,"internalType":"address"},{"name":"ids","type":"uint256[]","indexed":false,"internalType":"uint256[]"},{"name":"values","type":"uint256[]","indexed":false,"internalType":"uint256[]"}],"anonymous":false},{"type":"event","name":"TransferSingle","inputs":[{"name":"operator","type":"address","indexed":true,"internalType":"address"},{"name":"from","type":"address","indexed":true,"internalType":"address"},{"name":"to","type":"address","indexed":true,"internalType":"address"},{"name":"id","type":"uint256","indexed":false,"internalType":"uint256"},{"name":"value","type":"uint256","indexed":false,"internalType":"uint256"}],"anonymous":false},{"type":"event","name":"URI","inputs":[{"name":"value","type":"string","indexed":false,"internalType":"string"},{"name":"id","type":"uint256","indexed":true,"internalType":"uint256"}],"anonymous":false},{"type":"event","name":"Unpaused","inputs":[{"name":"account","type":"address","indexed":false,"internalType":"address"}],"anonymous":false},{"type":"error","name":"ArrayLengthMismatch","inputs":[]},{"type":"error","name":"ArrayTooLarge","inputs":[{"name":"length","type":"uint256","internalType":"uint256"},{"name":"max","type":"uint256","internalType":"uint256"}]},{"type":"error","name":"ERC1155InsufficientBalance","inputs":[{"name":"sender","type":"address","internalType":"address"},{"name":"balance","type":"uint256","internalType":"uint256"},{"name":"needed","type":"uint256","internalType":"uint256"},{"name":"tokenId","type":"uint256","internalType":"uint256"}]},{"type":"error","name":"ERC1155InvalidApprover","inputs":[{"name":"approver","type":"address","internalType":"address"}]},{"type":"error","name":"ERC1155InvalidArrayLength","inputs":[{"name":"idsLength","type":"uint256","internalType":"uint256"},{"name":"valuesLength","type":"uint256","internalType":"uint256"}]},{"type":"error","name":"ERC1155InvalidOperator","inputs":[{"name":"operator","type":"address","internalType":"address"}]},{"type":"error","name":"ERC1155InvalidReceiver","inputs":[{"name":"receiver","type":"address","internalType":"address"}]},{"type":"error","name":"ERC1155InvalidSender","inputs":[{"name":"sender","type":"address","internalType":"address"}]},{"type":"error","name":"ERC1155MissingApprovalForAll","inputs":[{"name":"operator","type":"address","internalType":"address"},{"name":"owner","type":"address","internalType":"address"}]},{"type":"error","name":"EmptyArray","inputs":[]},{"type":"error","name":"EnforcedPause","inputs":[]},{"type":"error","name":"ExceedsMaxSupply","inputs":[]},{"type":"error","name":"ExpectedPause","inputs":[]},{"type":"error","name":"InvalidAmount","inputs":[]},{"type":"error","name":"InvalidInitialization","inputs":[]},{"type":"error","name":"NotInitializing","inputs":[]},{"type":"error","name":"OwnableInvalidOwner","inputs":[{"name":"owner","type":"address","internalType":"address"}]},{"type":"error","name":"OwnableUnauthorizedAccount","inputs":[{"name":"account","type":"address","internalType":"address"}]},{"type":"error","name":"UnauthorizedCaller","inputs":[{"name":"caller","type":"address","internalType":"address"}]},{"type":"error","name":"ZeroAddress","inputs":[]}],"bytecode":{"object":"0x60808060405234601557612671908161001a8239f35b5f80fdfe60806040526004361015610011575f80fd5b5f3560e01c80624221f0146101fd578062fdd58e146101f857806301ffc9a7146101f357806302fe5305146101ee57806306fdde03146101e95780630e89341c146101e4578063161678ae146101df57806318160ddd146101da5780632e058339146101d55780632eb2c2d6146101d05780633f4ba83a146101cb5780634e1273f4146101c65780634f558e79146101c15780635b7121f8146101a85780635c6d8da1146101bc5780635c975abb146101b75780636b20c454146101b2578063715018a6146101ad5780637c57d947146101a85780637e1c0c09146101a35780638456cb591461019e5780638da5cb5b1461019957806395d89b4114610194578063a22cb4651461018f578063aecb0a391461018a578063bd85b03914610185578063e985e9c514610180578063f242432a1461017b578063f2fde38b14610176578063f5298aca146101715763fe6a0d741461016c575f80fd5b6111f8565b61116f565b611146565b61107a565b61103d565b611007565b610fdb565b610f35565b610e5f565b610e2b565b610dba565b610d9d565b610b82565b610d36565b610c6d565b610c3f565b610bb4565b610b4a565b610a8b565b6109c9565b61093f565b610821565b610784565b6106ab565b610681565b61064d565b6103f8565b6102f1565b61028a565b61021c565b5f525f5160206125bc5f395f51905f5260205260405f2090565b34610246576020366003190112610246576004355f526006602052602060405f2054604051908152f35b5f80fd5b600435906001600160a01b038216820361024657565b602435906001600160a01b038216820361024657565b35906001600160a01b038216820361024657565b346102465760403660031901126102465760206102d66102a861024a565b6024355f525f51602061257c5f395f51905f52835260405f209060018060a01b03165f5260205260405f2090565b54604051908152f35b6001600160e01b031981160361024657565b34610246576020366003190112610246576020600435610310816102df565b63ffffffff60e01b16636cdb3d1360e11b811490811561034e575b811561033d575b506040519015158152f35b6301ffc9a760e01b1490505f610332565b6303a24d0760e21b8114915061032b565b634e487b7160e01b5f52604160045260245ffd5b90601f801991011681019081106001600160401b0382111761039457604052565b61035f565b6001600160401b03811161039457601f01601f191660200190565b81601f82011215610246576020813591016103ce82610399565b926103dc6040519485610373565b8284528282011161024657815f92602092838601378301015290565b34610246576020366003190112610246576004356001600160401b038111610246576104289036906004016103b4565b610430611d57565b80516001600160401b038111610394576104608161045b5f51602061261c5f395f51905f525461053d565b61159a565b602091601f82116001146104aa5761048e925f918361049f575b50508160011b915f199060031b1c19161790565b5f51602061261c5f395f51905f5255005b015190505f8061047a565b5f51602061261c5f395f51905f525f52601f198216927ff429cb5e2ec84cbb765e76b31964a56ccde03e7a6122d6cc4afb19edc55edeed915f5b8581106105255750836001951061050d575b505050811b015f51602061261c5f395f51905f5255005b01515f1960f88460031b161c191690555f80806104f6565b919260206001819286850151815501940192016104e4565b90600182811c9216801561056b575b602083101461055757565b634e487b7160e01b5f52602260045260245ffd5b91607f169161054c565b9060405191825f8254926105888461053d565b80845293600181169081156105f357506001146105af575b506105ad92500383610373565b565b90505f9291925260205f20905f915b8183106105d75750509060206105ad928201015f6105a0565b60209193508060019154838589010152019101909184926105be565b9050602092506105ad94915060ff191682840152151560051b8201015f6105a0565b805180835260209291819084018484015e5f828201840152601f01601f1916010190565b90602061064a928181520190610615565b90565b34610246575f3660031901126102465761067d6106695f610575565b604051918291602083526020830190610615565b0390f35b34610246576020366003190112610246576004355f52600460205261067d61066960405f20610575565b34610246576060366003190112610246576004356024356044356001600160401b038111610246576106e19036906004016103b4565b906106ea611d8a565b5f83815260056020526040902054336001600160a01b039091160361077157801561076257610721835f52600660205260405f2090565b5480610735575b506107339233611db1565b005b6107488261074286610202565b546113ab565b11610753575f610728565b63c30436e960e01b5f5260045ffd5b63162908e360e11b5f5260045ffd5b63d86ad9cf60e01b5f523360045260245ffd5b34610246575f3660031901126102465760205f5160206125dc5f395f51905f5254604051908152f35b6001600160401b0381116103945760051b60200190565b9080601f830112156102465781356107db816107ad565b926107e96040519485610373565b81845260208085019260051b82010192831161024657602001905b8282106108115750505090565b8135815260209182019101610804565b34610246576080366003190112610246576004356001600160401b038111610246576108519036906004016107c4565b6024356001600160401b038111610246576108709036906004016107c4565b90604435906001600160401b038211610246573660238301121561024657816004013561089c816107ad565b926108aa6040519485610373565b8184526024602085019260051b820101903682116102465760248101925b8284106109105750505050606435916001600160401b0383116102465761067d936108fa6109009436906004016103b4565b926113b8565b6040519081529081906020820190565b83356001600160401b038111610246576020916109348392602436918701016103b4565b8152019301926108c8565b346102465760a03660031901126102465761095861024a565b610960610260565b906044356001600160401b038111610246576109809036906004016107c4565b6064356001600160401b0381116102465761099f9036906004016107c4565b90608435936001600160401b038511610246576109c36107339536906004016103b4565b936118c9565b34610246575f366003190112610246576109e1611d57565b5f51602061259c5f395f51905f525460ff811615610a385760ff19165f51602061259c5f395f51905f52557f5db9ee0a495bf2e6ff9c91a7834c1ba4fdd244a5e8aa4e537bd38aeae4b073aa6020604051338152a1005b638dfc202b60e01b5f5260045ffd5b90602080835192838152019201905f5b818110610a645750505090565b8251845260209384019390920191600101610a57565b90602061064a928181520190610a47565b34610246576040366003190112610246576004356001600160401b038111610246573660238201121561024657806004013590610ac7826107ad565b91610ad56040519384610373565b8083526024602084019160051b8301019136831161024657602401905b828210610b3257836024356001600160401b0381116102465761067d91610b20610b269236906004016107c4565b9061191a565b60405191829182610a7a565b60208091610b3f84610276565b815201910190610af2565b34610246576020366003190112610246576004355f525f5160206125bc5f395f51905f52602052602060405f20541515604051908152f35b34610246576020366003190112610246576004355f526005602052602060018060a01b0360405f205416604051908152f35b34610246576080366003190112610246576004356001600160401b03811161024657610be49036906004016103b4565b6024356001600160401b03811161024657610c039036906004016103b4565b6044356001600160401b03811161024657610c229036906004016103b4565b606435916001600160a01b038316830361024657610733936119af565b34610246575f36600319011261024657602060ff5f51602061259c5f395f51905f5254166040519015158152f35b3461024657606036600319011261024657610c8661024a565b6024356001600160401b03811161024657610ca59036906004016107c4565b906044356001600160401b03811161024657610cc59036906004016107c4565b6001600160a01b0382163381141580610d25575b610d0f5715610cfd576107339260405192610cf5602085610373565b5f8452611eae565b626a0d4560e21b5f525f60045260245ffd5b63711bec9160e11b5f523360045260245260445ffd5b50610d303384611cd2565b15610cd9565b34610246575f36600319011261024657610d4e611d57565b5f51602061255c5f395f51905f5280546001600160a01b031981169091555f906001600160a01b03167f8be0079c531659141344cd1fd0a4f28419497f9722a3daafe3b4186f6b6457e08280a3005b34610246575f366003190112610246576020600354604051908152f35b34610246575f36600319011261024657610dd2611d57565b610dda611d8a565b600160ff195f51602061259c5f395f51905f525416175f51602061259c5f395f51905f52557f62e78cea01bee320cd4e420270b5ea74000d11b0c9f74754ebdbfc544b05a2586020604051338152a1005b34610246575f366003190112610246575f51602061255c5f395f51905f52546040516001600160a01b039091168152602090f35b34610246575f366003190112610246576040515f600154610e7f8161053d565b8084529060018116908115610f115750600114610eb3575b61067d83610ea781850382610373565b60405191829182610639565b60015f9081527fb10e2d527612073b26eecdfd717e6a320cf44b4afac2b0732d9fcbe2b7fa0cf6939250905b808210610ef757509091508101602001610ea7610e97565b919260018160209254838588010152019101909291610edf565b60ff191660208086019190915291151560051b84019091019150610ea79050610e97565b3461024657604036600319011261024657610f4e61024a565b602435801515809103610246576001600160a01b038216918215610fc957610f8e90610f7933611318565b9060018060a01b03165f5260205260405f2090565b60ff1981541660ff83161790556040519081527f17307eab39ab6107e8899845ad3d59bd9653f200f220920489ca2b5937696c3160203392a3005b62ced3e160e81b5f525f60045260245ffd5b34610246576020366003190112610246576040610ff9600435611c7d565b825191151582526020820152f35b34610246576020366003190112610246576004355f525f5160206125bc5f395f51905f52602052602060405f2054604051908152f35b3461024657604036600319011261024657602060ff61106e61105d61024a565b610f79611068610260565b91611318565b54166040519015158152f35b346102465760a03660031901126102465761109361024a565b61109b610260565b60443590606435926084356001600160401b038111610246576110c29036906004016103b4565b926001600160a01b0382163381141580611135575b610d0f576001600160a01b038416156111225715610cfd576107339461111a60405192600184526020840152604083019160018352606084015260808301604052565b929091611f86565b632bfa23e760e11b5f525f60045260245ffd5b506111403384611cd2565b156110d7565b346102465760203660031901126102465761073361116261024a565b61116a611d57565b611ce6565b346102465760603660031901126102465761118861024a565b604435906024356001600160a01b03821633811415806111e7575b610d0f5715610cfd57610733926111d760405192600184526020840152604083019160018352606084015260808301604052565b9060405192610cf5602085610373565b506111f23384611cd2565b156111a3565b34610246576080366003190112610246576024356004356044356001600160401b0381116102465761122e9036906004016103b4565b906064356001600160401b0381116102465761124e9036906004016103b4565b90611257611d8a565b8015610762577f6049135c39266bf7730d09d40b36f98b9beec5a994f3dcce6adc6785d20af8806112f49361067d9561129160025461158c565b958695866002556112a360035461158c565b6003555f87815260056020526040902080546001600160a01b03191633179055865f5260066020528260405f20556112ec846112e7895f52600460205260405f2090565b6117ee565b858733611db1565b6113056040519283923396846118ad565b0390a36040519081529081906020820190565b6001600160a01b03165f9081527f88be536d5240c274a3b1d3a1be54482fd9caa294f08c62a7cde569f49a3c45016020526040902090565b611380915f525f51602061257c5f395f51905f5260205260405f209060018060a01b03165f5260205260405f2090565b5490565b634e487b7160e01b5f52601160045260245ffd5b90600182018092116113a657565b611384565b919082018092116113a657565b9192906113c3611d8a565b8251928315611555578151841480159061154a575b61153b5760648411611522576113ef600254611398565b945f5b8581106114025750505050505090565b61140c8184611564565b51156107625760019061142060025461158c565b61142981600255565b61143c61143760035461158c565b600355565b61147133611452835f52600560205260405f2090565b80546001600160a01b0319166001600160a01b03909216919091179055565b61147b8287611564565b5161148e825f52600660205260405f2090565b556114af61149c8386611564565b516112e7835f52600460205260405f2090565b6114c5876114bd8488611564565b518333611db1565b6114cf8286611564565b517f6049135c39266bf7730d09d40b36f98b9beec5a994f3dcce6adc6785d20af8806114fb8489611564565b516115068588611564565b51906115196040519283923396846118ad565b0390a3016113f2565b6342b154e560e01b5f526004849052606460245260445ffd5b63512509d360e11b5f5260045ffd5b5084518414156113d8565b63521299a960e01b5f5260045ffd5b80518210156115785760209160051b010190565b634e487b7160e01b5f52603260045260245ffd5b5f1981146113a65760010190565b601f81116115a6575050565b5f51602061261c5f395f51905f525f5260205f20906020601f840160051c830193106115ec575b601f0160051c01905b8181106115e1575050565b5f81556001016115d6565b90915081906115cd565b601f821161160357505050565b5f5260205f20906020601f840160051c8301931061163b575b601f0160051c01905b818110611630575050565b5f8155600101611625565b909150819061161c565b9081516001600160401b0381116103945761166a816116645f5461053d565b5f6115f6565b602092601f821160011461169d57611699929382915f9261049f5750508160011b915f199060031b1c19161790565b5f55565b5f8052601f198216937f290decd9548b62a8d60345a988386fc84ba6bc95484008f6362f93160ef3e563915f5b8681106116ff57508360019596106116e7575b505050811b015f55565b01515f1960f88460031b161c191690555f80806116dd565b919260206001819286850151815501940192016116ca565b9081516001600160401b0381116103945761173e8161173760015461053d565b60016115f6565b602092601f82116001146117725761176d929382915f9261049f5750508160011b915f199060031b1c19161790565b600155565b60015f52601f198216937fb10e2d527612073b26eecdfd717e6a320cf44b4afac2b0732d9fcbe2b7fa0cf6915f5b8681106117d657508360019596106117be575b505050811b01600155565b01515f1960f88460031b161c191690555f80806117b3565b919260206001819286850151815501940192016117a0565b91909182516001600160401b038111610394576118158161180f845461053d565b846115f6565b6020601f82116001146118485781906118449394955f9261049f5750508160011b915f199060031b1c19161790565b9055565b601f1982169061185b845f5260205f2090565b915f5b8181106118955750958360019596971061187d575b505050811b019055565b01515f1960f88460031b161c191690555f8080611873565b9192602060018192868b01518155019401920161185e565b61064a9392606092825260208201528160408201520190610615565b939291906001600160a01b0385163381141580611902575b610d0f576001600160a01b038216156111225715610cfd576105ad94611f86565b5060ff61191233610f7989611318565b5416156118e1565b9190918051835180820361199a575050805190611936826107ad565b916119446040519384610373565b808352611953601f19916107ad565b013660208401375f5b8151811015611993578061198260019260051b6020808287010151918901015190611350565b61198c8286611564565b520161195c565b5090925050565b635b05999160e01b5f5260045260245260445ffd5b5f5160206125fc5f395f51905f525493909290916001600160401b036119e4604087901c60ff1615966001600160401b031690565b1680159081611afe575b6001149081611af4575b159081611aeb575b50611adc57611a439385611a3a60016001600160401b03195f5160206125fc5f395f51905f525416175f5160206125fc5f395f51905f5255565b611aa257611b06565b611a4957565b611a7360ff60401b195f5160206125fc5f395f51905f5254165f5160206125fc5f395f51905f5255565b604051600181527fc7f505b2f371ae2175ee4913f4499e1f2633a7b5936321eed1cdaeb6115181d290602090a1565b611ad76801000000000000000060ff60401b195f5160206125fc5f395f51905f525416175f5160206125fc5f395f51905f5255565b611b06565b63f92ee8a960e01b5f5260045ffd5b9050155f611a00565b303b1591506119f8565b8691506119ee565b909290916001600160a01b03821615611c6e57611b216120c6565b611b296120c6565b8051906001600160401b03821161039457611b558261045b5f51602061261c5f395f51905f525461053d565b602090601f8311600114611bc75792611b90836105ad979694611bb594611bc2975f9261049f5750508160011b915f199060031b1c19161790565b5f51602061261c5f395f51905f52555b611ba86120c6565b611bb06120c6565b611e9a565b611bbd6120c6565b611645565b611717565b5f51602061261c5f395f51905f525f52601f19831691907ff429cb5e2ec84cbb765e76b31964a56ccde03e7a6122d6cc4afb19edc55edeed925f5b818110611c56575093611bb593611bc29693600193836105ad9b9a9810611c3e575b505050811b015f51602061261c5f395f51905f5255611ba0565b01515f1960f88460031b161c191690555f8080611c24565b92936020600181928786015181550195019301611c02565b63d92e233d60e01b5f5260045ffd5b90815f52600660205260405f2054918215611cc9575f525f5160206125bc5f395f51905f5260205260405f205482811015611cc15782039182116113a65760019190565b505f91508190565b50600191505f90565b60ff91610f79611ce192611318565b541690565b6001600160a01b03168015611d44575f51602061255c5f395f51905f5280546001600160a01b0319811683179091556001600160a01b03167f8be0079c531659141344cd1fd0a4f28419497f9722a3daafe3b4186f6b6457e05f80a3565b631e4fbdf760e01b5f525f60045260245ffd5b5f51602061255c5f395f51905f52546001600160a01b03163303611d7757565b63118cdaa760e01b5f523360045260245ffd5b60ff5f51602061259c5f395f51905f525416611da257565b63d93c066560e01b5f5260045ffd5b93916001600160a01b0385161561112257611de960405192600184526020840152604083019160018352606084015260808301604052565b9091611df78284875f61237a565b5f94855b8451871015611e3e57611e366001918860051b90611e24602080848a010151938a010151610202565b611e2f8382546113ab565b90556113ab565b960195611dfb565b611e70919594929650611e5f905f5160206125dc5f395f51905f52546113ab565b5f5160206125dc5f395f51905f5255565b8051600103611e8f57906020806105ad95930151910151915f336122b7565b6105ad935f33612188565b6105ad90611ea66120c6565b61116a6120c6565b9091939250611ebf84835f8461237a565b6001600160a01b031615611f30575b5f805b8251821015611f06576001908260051b90611ef7602080848a0101519387010151610202565b82815403905501910190611ed1565b9150506105ad9192505f5160206125dc5f395f51905f5254035f5160206125dc5f395f51905f5255565b5f805b8251821015611f6457611f5c6001918360051b90611e24602080848b0101519388010151610202565b910190611f33565b611f819150611e5f905f5160206125dc5f395f51905f52546113ab565b611ece565b91939290611f968286838661237a565b6001600160a01b03831615612068575b6001600160a01b0381161580611ffb575b15611fc4575b5050505050565b8451600103611fea57602080611fe096015192015192336122b7565b5f80808080611fbd565b611ff694919233612188565b611fe0565b94935f939091845b8651861015612038576001908660051b90612029602080848a010151938b010151610202565b82815403905501950194612003565b612063919396979295505f5160206125dc5f395f51905f5254035f5160206125dc5f395f51905f5255565b611fb7565b93925f92835b855185101561209f576120976001918660051b90611e24602080848a010151938b010151610202565b94019361206e565b6120c1919450611e5f90969295965f5160206125dc5f395f51905f52546113ab565b611fa6565b60ff5f5160206125fc5f395f51905f525460401c16156120e257565b631afcd79f60e31b5f5260045ffd5b90816020910312610246575161064a816102df565b6001600160a01b0391821681529116602082015260a06040820181905261064a949193919261214b929161213d9190860190610a47565b908482036060860152610a47565b916080818403910152610615565b3d15612183573d9061216a82610399565b916121786040519384610373565b82523d5f602084013e565b606090565b9091949293853b61219c575b505050505050565b6020936121be91604051968795869563bc197c8160e01b875260048701612106565b03815f6001600160a01b0387165af15f918161224d575b5061220f57506121e3612159565b805191908261220857632bfa23e760e11b5f526001600160a01b03821660045260245ffd5b6020915001fd5b6001600160e01b0319166343e6837f60e01b0161223257505f8080808080612194565b632bfa23e760e11b5f526001600160a01b031660045260245ffd5b61227091925060203d602011612277575b6122688183610373565b8101906120f1565b905f6121d5565b503d61225e565b6001600160a01b039182168152911660208201526040810191909152606081019190915260a06080820181905261064a92910190610615565b9091949293853b6122ca57505050505050565b6020936122ec91604051968795869563f23a6e6160e01b87526004870161227e565b03815f6001600160a01b0387165af15f9181612334575b5061231157506121e3612159565b6001600160e01b031916630dc5919f60e01b0161223257505f8080808080612194565b61234e91925060203d602011612277576122688183610373565b905f612303565b909161236c61064a93604084526040840190610a47565b916020818403910152610a47565b93929180518351908181036125465750505f5b81518110156124a0578060051b90602080838501015192860101518460018060a01b038916612409575b6001936001600160a01b0382166123d2575b5050500161238d565b6123ff91610f796123f7925f525f51602061257c5f395f51905f5260205260405f2090565b9182546113ab565b90555f84816123c9565b50909161242e88610f79835f525f51602061257c5f395f51905f5260205260405f2090565b54828110612469578291600194938792036124618b610f79845f525f51602061257c5f395f51905f5260205260405f2090565b5593506123b7565b6040516303dee4c560e01b81526001600160a01b038a16600482015260248101919091526044810183905260648101829052608490fd5b508051939493919291600103612503576020908101519181015160408051938452918301526001600160a01b03928316939092169133917fc3d58168c5ae7397731d063d5bbf3d657854427343f4c083240f7aacaa2d0f6291819081015b0390a4565b6040516001600160a01b03938416949093169233927f4a39dc06d4c0dbc64b70af90fd698a233a518aa5d07e595d983b8c0526c8f7fb9282916124fe9183612355565b635b05999160e01b5f5260045260245260445ffdfe9016d09d72d40fdae2fd8ceac6b6234c7706214fd39c1cd1e609a0528c19930088be536d5240c274a3b1d3a1be54482fd9caa294f08c62a7cde569f49a3c4500cd5ed15c6e187e77e9aee88184c21f4f2182ab5827cb3b7e07fbedcd63f033004a593662ee04d27b6a00ebb31be7fe0c102c2ade82a7c5d764f2df05dc4e28004a593662ee04d27b6a00ebb31be7fe0c102c2ade82a7c5d764f2df05dc4e2801f0c57e16840df040f15088dc2f81fe391c3923bec73e23a9662efc9c229c6a0088be536d5240c274a3b1d3a1be54482fd9caa294f08c62a7cde569f49a3c4502a2646970667358221220aa68a41dfef50c21f915731ababf80494916a0dff585f18b46d41fa300b392f264736f6c634300081c0033","linkReferences":{}},"methodIdentifiers":{"balanceOf(address,uint256)":"00fdd58e","balanceOfBatch(address[],uint256[])":"4e1273f4","batchMintPublic(uint256[],uint256[],string[],bytes)":"2e058339","burn(address,uint256,uint256)":"f5298aca","burnBatch(address,uint256[],uint256[])":"6b20c454","canMintMore(uint256)":"aecb0a39","exists(uint256)":"4f558e79","getMinter(uint256)":"5b7121f8","initialize(string,string,string,address)":"5c6d8da1","isApprovedForAll(address,address)":"e985e9c5","mintMore(uint256,uint256,bytes)":"161678ae","mintPublic(uint256,uint256,string,bytes)":"fe6a0d74","name()":"06fdde03","owner()":"8da5cb5b","pause()":"8456cb59","paused()":"5c975abb","renounceOwnership()":"715018a6","safeBatchTransferFrom(address,address,uint256[],uint256[],bytes)":"2eb2c2d6","safeTransferFrom(address,address,uint256,uint256,bytes)":"f242432a","setApprovalForAll(address,bool)":"a22cb465","setURI(string)":"02fe5305","supportsInterface(bytes4)":"01ffc9a7","symbol()":"95d89b41","tokenMaxSupply(uint256)":"004221f0","tokenMinter(uint256)":"7c57d947","totalSupply()":"18160ddd","totalSupply(uint256)":"bd85b039","totalTokens()":"7e1c0c09","transferOwnership(address)":"f2fde38b","unpause()":"3f4ba83a","uri(uint256)":"0e89341c"},"id":104}